:020000040800F2
:10000000005000200D4300081D4200082342000854
:10001000294200082F420008354200080000000075
:100020000000000000000000000000003B4200084B
:100030004742000800000000534200085F420008E9
:100040005543000855430008554300085543000830
:100050005543000855430008554300085543000820
:100060005543000855430008554300085543000810
:100070005543000855430008554300086D420008E9
:1000800055430008554300085543000855430008F0
:1000900081420008554300085543000855430008B5
:1000A00055430008554300085543000855430008D0
:1000B00055430008554300085543000855430008C0
:1000C00055430008554300085543000855430008B0
:1000D00055430008554300085543000855430008A0
:1000E0005543000855430008554300080000000030
:1000F0000000000000000000000000000000000000
:0C01000000000000000000005FF808F1A3
:10010C0010B5054C237833B9044B13B10448AFF345
:10011C0000800123237010BDE801002000000000C6
:10012C005CEF000808B5034B1BB103490348AFF360
:10013C00008008BD00000000EC0100205CEF00080E
:10014C0010F8012B11F8013B012A28BF9A42F7D075
:10015C00D01A7047034613F8012B002AFBD1181A4A
:10016C000138704780B582B000AF04F047F93860B1
:10017C000023FB7122E0FB79144A32F81330194644
:10018C00134805F0EFFA0346002B01D1012100E0E2
:10019C000021FB790F4AD154FA79FB790D49895C1E
:1001AC000D4AD154FB790D493A6841F82320FB796B
:1001BC000B4A0021D154FB790133FB71FB79052BE0
:1001CC00D9D900BF00BF0837BD4680BDA8F20008D2
:1001DC00000C01400C02002004020020140200203C
:1001EC002C02002080B584B000AF04F007F9B86091
:1001FC000023FB733CE0FB7B214A32F81330194699
:10020C00204805F0AFFA0346002B01D1012300E092
:10021C000023FB71FB7B1C4AD35CFA799A4208D011
:10022C00FB7B1949FA79CA54FB7B1849BA6841F827
:10023C002320FB7B154A52F82330BA68D31A042BBF
:10024C0013D9FB7B124AD35CBB71FB7B1049FA7947
:10025C00CA54BB79002B08D1FB7B0D4AD35C012B14
:10026C0003D1FB7B0B4A0121D154FB7B0133FB7384
:10027C00FB7B052BBFD900BF00BF1037BD4680BD2F
:10028C00A8F20008000C01400C020020140200200F
:10029C00040200202C02002080B483B000AF03467F
:1002AC00FB71FB79052B01D9002302E0FB79034A92
:1002BC00D35C18460C37BD4680BC70470402002046
:1002CC0080B485B000AF0346FB71FB79052B01D9D7
:1002DC00002308E0FB79064AD35CFB73FB79044AE4
:1002EC000021D154FB7B18461437BD4680BC7047A7
:1002FC002C02002080B584B000AF78600B467B8068
:10030C000023FB6015E07B88194678680DF092F8A5
:10031C000346002B11D00023BB6002E0BB68013305
:10032C00BB60BB6842F20F729342F7DDFB6801338E
:10033C00FB60FB68632BE6DD00E000BF1037BD46B9
:10034C0080BD80B582B000AF78600B467B807B8827
:10035C00194678680DF06EF800BF0837BD4680BDB1
:10036C0080B582B000AF4FF48072002114480DF0BC
:10037C009FFC0A22002113480DF09AFC124B00221C
:10038C001A80124B00221A70114B00221A7004F0C2
:10039C0035F8786000E000BF04F030F802467B6866
:1003AC00D31AB3F5167FF6D31C210A48FFF7A2FF28
:1003BC00074B00221A7000BF0837BD4680BD00BF36
:1003CC0034020020380300203403002042030020B4
:1003DC004303002074EF000880B59CB002AF786036
:1003EC00396000237B665AE27A687B6E13441B7873
:1003FC0087F84B3097F84B300D2B00F04C8297F868
:10040C004B300A2B40F03382A34B1B881A46A34B6C
:10041C0000219954A249A148FFF792FE0346002BF4
:10042C0012D1A04B01221A709F4B14221A7003F0A8
:10043C00E5FF03469D4A13601C219D48FFF75AFFB8
:10044C009C4B01221A700EE212229B4993480DF02C
:10045C0044FC0346002B47D1984B3B6602E03B6EB5
:10046C0001333B663B6E1B78202BF8D03B6E1B7820
:10047C00222B34D13B6E01333B662221386E0DF0BA
:10048C001FFCF862FB6A002B29D0FB6A00221A7051
:10049C003B6EBB62FB6A01333B6602E03B6E013391
:1004AC003B663B6E1B782C2BF8D03B6E1B78202BBD
:1004BC00F4D03B6E1B78222B11D13B6E01333B6683
:1004CC002221386E0DF0FCFB78627B6A002B06D083
:1004DC007B6A00221A70396EB86A03F035F8052170
:1004EC007748FFF707FFBEE10B2276496B480DF00A
:1004FC00F4FB0346002B40F08581734B7B647B6CD3
:10050C00FB65002387F85B3069E17C21F86D0DF009
:10051C00D7FB38643B6C002B02D03B6C00221A706A
:10052C003A21F86D0DF0CCFBF863FB6B002B00F05F
:10053C004E81FB6B00221A70FB6DBB63FB6B0133AE
:10054C007B6300237B657B6B3B650123FB643B6D0D
:10055C001B782D2B13D14FF0FF33FB643B6D013314
:10056C003B650CE07A6D13469B0013445B00194607
:10057C003B6D5A1C3A651B78303B0B447B653B6DDD
:10058C001B782F2B03D93B6D1B78392BEAD97B6D4C
:10059C00FA6C02FB03F37B654C49B86BFFF7D0FD9B
:1005AC000346002B08D17B6DDBB2184603F068FACA
:1005BC00012387F85B300AE14549B86BFFF7C0FDB2
:1005CC000346002B08D17B6DDBB2184603F0EAFA28
:1005DC00012387F85B30FAE03E49B86BFFF7B0FDBA
:1005EC000346002B08D17B6DDBB2184603F06AFA88
:1005FC00012387F85B30EAE03749B86BFFF7A0FDC1
:10060C000346002B08D17B6DDBB2184603F076FA5B
:10061C00012387F85B30DAE03049B86BFFF790FDC7
:10062C000346002B08D17B6DDBB2184603F0D6FADB
:10063C00012387F85B30CAE02949B86BFFF780FDCE
:10064C000346002B08D17B6DDBB2184603F072FA1F
:10065C00012387F85B30BAE02249B86BFFF770FDD5
:10066C000346002B08D17B6DDBB2184603F07EFAF3
:10067C00012387F85B30AAE01B49B86BFFF760FDDC
:10068C000346002B32D17B6DDBB2184603F0C2FA65
:10069C00012387F85B309AE03403002034020020F9
:1006AC0094EF00084303002049030020440300207A
:1006BC0074EF000848030020B4EF00084602002045
:1006CC00C8EF0008D0EF00083F020020DCEF000864
:1006DC00E0EF0008E4EF0008E8EF0008ECEF00089A
:1006EC00F0EF0008F4EF0008F8EF0008BB6B1B7884
:1006FC00532B34D1BB6B01331B78432B2FD1BB6BEA
:10070C0002331B78302B2AD9BB6B02331B78352B69
:10071C0025D8BB6B02331B78313B87F83330002371
:10072C003B620023FB610023BB6107F11C0107F155
:10073C00200207F1180300930B465E49786B0DF00D
:10074C008BFA3B6AD9B2FB69DAB2BB69DBB297F8B8
:10075C00330003F085FA012387F85B3037E0BB6B7D
:10076C001B78422B33D1BB6B01331B78432B2ED11F
:10077C00BB6B02331B78302B29D9BB6B02331B7834
:10078C00362B24D8BB6B02331B78313B87F83230C5
:10079C0000237B6100233B610023FB6007F1100108
:1007AC0007F1140207F10C0300930B464149786BD7
:1007BC000DF052FA7B69D9B23B69DAB2FB68DBB255
:1007CC0097F8320003F086FA012387F85B303B6C14
:1007DC00002B02D03B6C013300E00023FB65FB6D6A
:1007EC00002B04D0FB6D1B78002B7FF48EAE97F89A
:1007FC005B30002B01D003F0A7FA05212E48FFF740
:10080C0079FD30E02D492E48FFF79AFC0346002B6A
:10081C0007D12C4B00221A7005212748FFF76AFDDF
:10082C0021E029492648FFF78BFC0346002B03D116
:10083C00264B01221A7016E025492148FFF780FC4F
:10084C000346002B04D125212248FFF753FD0AE073
:10085C0021491B48FFF774FC0346002B03D10521EB
:10086C001548FFF747FD1D4B00221A8014E01B4B67
:10087C001B88FE2B0BD8194B1B885A1C91B2174A9C
:10088C00118019460E4A97F84B30535404E0134B21
:10089C0000221A8000E000BF7B6E01337B667A6E0B
:1008AC003B689A42FFF4A0AD00BF00BF6837BD465D
:1008BC0080BD00BFFCEF0008C8EF000808F000087E
:1008CC00340200204303002018F0000848030020E5
:1008DC0024F00008B4F2000830F0000834030020C3
:1008EC0090B58FB002AF78600B46FB708A4B1B78CB
:1008FC00002B00F00B81894B1B78002B1BD10023A4
:10090C0087F82F300FE097F82F305B007A681A4485
:10091C0097F82F301188824A22F8131097F82F304D
:10092C00013387F82F3097F82F20FB789A42EAD3BF
:10093C007A4B01221A707B4B1B78002B7CD0002346
:10094C0087F82E30002387F82D3061E097F82D3092
:10095C00754A32F81330BB8497F82D305B007A68F7
:10096C0013441B887B847A8CBB8C9A4204D37A8C7C
:10097C00BB8CD31A9BB203E0BA8C7B8CD31A9BB280
:10098C003B843B8C082B02D9012387F82E3097F837
:10099C002D30634A32F813307A8C9A4208D397F888
:1009AC002D305F4A32F813307A8CD31A9BB207E0A1
:1009BC0097F82D305A4A32F813207B8CD31A9BB2FD
:1009CC00FB83FB8B0E2B1ED997F82D3054497A8C58
:1009DC0021F813207B8C642202FB03F39B0ABB617E
:1009EC0007F10800BB69514A10210DF001F997F885
:1009FC002D30184602F0DAFF024607F108031946BB
:100A0C00104600F019FC97F82D30013387F82D3083
:100A1C0097F82D20FB789A4298D3454B1B78002BE6
:100A2C0006D0434B1B78013BDAB2414B1A7003E002
:100A3C0097F82E30002B6BD00023BB62002387F875
:100A4C00273026E097F82730002B05D0BB6A5A1CBC
:100A5C00BA62384A7C21D154BB6A364A9818BB6AB0
:100A6C00C3F5007197F827305C1C97F827305B00B2
:100A7C007A6813441B88009323462F4A0DF0B8F86C
:100A8C000246BB6A1344BB6297F82730013387F8E0
:100A9C00273097F82720FB789A4203D2BB6AB3F52C
:100AAC00F87FCFDBBB6A5A1CBA62224A0D21D154A3
:100ABC00BB6A5A1CBA621F4A0A21D1541D4ABB6A2E
:100ACC00134400221A70002387F826300FE097F8A1
:100ADC0026305B007A681A4497F826301188124A3F
:100AEC0022F8131097F82630013387F8263097F840
:100AFC002620FB789A42EAD30A4B01221A70BB6A71
:100B0C009BB219460B48FFF71CFC02E000BF00E04B
:100B1C0000BF3437BD4690BD430300204A0300207C
:100B2C004C03002042030020380300203CF0000856
:100B3C00490300205803002044F0000880B58AB017
:100B4C0000AF0346FB71114B1B78002B1AD0FB79BD
:100B5C00184602F05DFF03460D49184600F06CFB89
:100B6C00FB79013307F10C000A4A18210DF040F80B
:100B7C0078627B6A9AB207F10C0311461846FFF7AC
:100B8C00B9FB00E000BF2837BD4680BD4303002001
:100B9C0054F0000858F0000880B584B000AF7860BD
:100BAC007868FFF7D7FA0346FB81FB89002B05D049
:100BBC00FB8919467868FFF79DFB00E000BF1037F2
:100BCC00BD4680BD80B582B000AF03F017FC7860E5
:100BDC00124B1B78002B0DD0114B1B687A68D31A63
:100BEC0047F22F52934205D90D4A7B6813600D488A
:100BFC00FFF7D2FF0C4B1B78002B04D00A4B0022C2
:100C0C001A7002F099FD02F08FFC044B1B78184609
:100C1C0000F0E6FA00BF0837BD4680BD4303002054
:100C2C004403002068F000084803002080B500AFA2
:100C3C0000F030FC02F04EFC00F0BEF80346002B36
:100C4C0001D100F093FA02F0E9F803F07DF803F01B
:100C5C00FFF8FFF787FAFFF783FB03F0CFFB0346A0
:100C6C00014A136000BF80BD5805002080B584B0D8
:100C7C0000AFFFF7A7FF00F019FBFFF7B3FA002353
:100C8C00FB730023BB7311E0BB7B1846FFF704FB1F
:100C9C000346002B07D0BB7B012202FA03F3DAB226
:100CAC00FB7B1343FB73BB7B0133BB73BB7B052B00
:100CBC00EAD9FB7B184601F0CDFF00237B730DE0D6
:100CCC007B7B1846FFF7FCFA0346002B03D07B7B9B
:100CDC001846FFF733FF7B7B01337B737B7B052B44
:100CEC00EED900F0E5FC03F089FBB860154B1B68EE
:100CFC00BA68D31A042B21D9124ABB68136003F0CB
:100D0C00B1F803F02BF9786000233B730CE03B7BCC
:100D1C005B007A6813441A883B7B1146184601F035
:100D2C00A9FF3B7B01333B733B7B042BEFD903F0D7
:100D3C0015F9034605211846FFF7D2FD00BF103701
:100D4C00BD4680BD5805002080B586B002AF034675
:100D5C00FB7100233B73FB797B7307F10C0232238D
:100D6C00009302237821044804F070FE03461846D1
:100D7C001037BD4680BD00BFB011002080B586B0D5
:100D8C0002AF03460A46FB711346BB7100233B734B
:100D9C00FB797B73BB79BB7307F10C023223009395
:100DAC0003237821034804F051FE034618461037FC
:100DBC00BD4680BDB011002080B586B002AF0A20C0
:100DCC0003F026FB134BFB60134BBB6014E00023BA
:100DDC003B71FB685A1CFA601B787B713A1D3223FD
:100DEC000093022378210D4804F030FE0346002BBB
:100DFC0002D04FF0FF3308E0FA68BB689A42E6D3A2
:100E0C0000F00EF800F018F8002318461037BD4615
:100E1C0080BD00BFB8F40008D1F40008B011002068
:100E2C0080B500AF4FF48062002102480CF040FF07
:100E3C0000BF80BD5C05002080B5A4B002AF0021CE
:100E4C002120FFF79BFF7F20FFF77EFF0021222050
:100E5C00FFF794FF0720FFF777FF002387F8873011
:100E6C0019E040233B7197F88730DB010E4A991843
:100E7C003B1D0133802218460CF088FF3A1D642379
:100E8C00009381237821094804F0E0FD97F887301E
:100E9C00013387F8873097F88730072BE1D900BFEB
:100EAC0000BF8837BD4680BD5C050020B011002016
:100EBC0080B485B000AF0346FB710B46BB71134683
:100ECC007B717B791F2B02D97B797E2B01D93F2338
:100EDC007B71BB79072B32D87B79203BDBB21A466E
:100EEC0013469B001344184A1344BB600023FB7346
:100EFC0015E0FA79FB7B13447F2B0DDCFB7BBA6886
:100F0C00D118BA79F879FB7B034408780F49D201E0
:100F1C000A44134402461A70FB7B0133FB73FB7BC0
:100F2C00042BE6D9FB797A2B0AD8BA79FB790533ED
:100F3C000649D2010A44134400221A7000E000BF93
:100F4C001437BD4680BC7047DCF200085C050020FD
:100F5C0080B582B000AF03463A60FB710B46BB71A3
:100F6C000BE03B685A1C3A601A78B979FB79184641
:100F7C00FFF79EFFFB790633FB713B681B78002B58
:100F8C0003D097F90730002BEBDA00BF0837BD46CA
:100F9C0080BD000080B487B000AF0346FB710B46E8
:100FAC00BB7113467B717B791F2B02D97B797E2B0E
:100FBC0001D93F237B71BB79062B00F2AB807B7987
:100FCC00203BDBB21A4613469B001344544A13448D
:100FDC00FB600023FB756DE0FB7DFA6813441B7806
:100FEC00FB720023BB820023FB7415E0FA7AFB7CB6
:100FFC0042FA03F303F00103002B0AD0FB7C5B00E5
:10100C00032202FA03F31AB2B7F9143013431BB2DA
:10101C00BB82FB7C0133FB74FB7C072BE6D9FA7992
:10102C00FB7D5B0013447F2B1CDCBA79F979FB7DCB
:10103C005B000B44B98AC8B23A49D2010A44134442
:10104C0002461A70BB8A1B0A98B2BB795A1CF979F2
:10105C00FB7D5B000B44C0B23249D2010A441344FD
:10106C0002461A70FA79FB7D5B0013447E2B1EDC62
:10107C00BA79F979FB7D5B000B440133B98AC8B2AC
:10108C002849D2010A44134402461A70BB8A1B0A2F
:10109C0098B2BB795A1CF979FB7D5B000B44013388
:1010AC00C0B22049D2010A44134402461A70FB7D97
:1010BC000133FB75FB7D042B8ED9FB79752B12D874
:1010CC00BA79FB790A331749D2010A441344002236
:1010DC001A70BB795A1CFB790A331249D2010A44A3
:1010EC00134400221A70FB79742B14D8BA79FB794B
:1010FC000B330C49D2010A44134400221A70BB79F9
:10110C005A1CFB790B330749D2010A4413440022C1
:10111C001A7000E000BF1C37BD4680BC704700BF92
:10112C00DCF200085C05002080B582B000AF0346FD
:10113C003A60FB710B46BB710BE03B685A1C3A6082
:10114C001A78B979FB791846FFF724FFFB790C3331
:10115C00FB713B681B78002B03D097F90730002BF1
:10116C00EBDA00BF0837BD4680BD000080B584B007
:10117C0000AFFFF755FE184BFB600923FB72FB7A9F
:10118C001A46520013445B00BB72BB7AC3F1800356
:10119C005B087B727B7AFA6803211846FFF7D8FE4E
:1011AC000E4B7B600F23FB70FB781A4652001344E6
:1011BC005B00BB70BB78C3F180035B087B707B78F2
:1011CC007A6805211846FFF7C3FEFFF735FE00BF0E
:1011DC001037BD4680BD00BF70F000087CF00008E1
:1011EC0080B582B000AF0346FB71FB79002B0AD1AE
:1011FC000E4B1B78002B15D00C4B00221A700C4B8D
:10120C0001221A700EE0094B1B78002B0AD1074BF8
:10121C0001221A7003F0F2F80346064A1360044BDD
:10122C0001221A7000BF0837BD4680BD5C09002042
:10123C00000000206009002080B582B000AF78600B
:10124C0039607B68002B05D01F22796812480CF09E
:10125C0056FD02E0104B00221A703B68002B05D0A3
:10126C000F2239680D480CF04AFD02E00B4B0022AE
:10127C001A7003F0C3F80346094A1360094B1B7834
:10128C00032B02D0074B03221A70074B01221A7052
:10129C0000BF0837BD4680BD6809002088090020C2
:1012AC00640900205C0900200000002080B588B093
:1012BC0000AF03F0A3F87861514B1B78012B0ED1D2
:1012CC00504B1B687A69D31A41F28732934217D973
:1012DC004B4B02221A704C4B01221A7010E0484BF7
:1012EC001B78032B0CD1494B1B687A69D31AB3F5C5
:1012FC00FA6F05D3424B02221A70434B01221A702B
:10130C00414B1B78002B76D03F4B00221A703C4B84
:10131C001B78002B09D1FFF783FD3D4A03211C20CC
:10132C00FFF716FEFFF788FD65E0354B1B78012BA8
:10133C0009D1FFF775FD374A03212520FFF708FE79
:10134C00FFF77AFD57E02E4B1B78022B02D1FFF7EB
:10135C000DFF50E02A4B1B78032B4CD1FFF760FD9F
:10136C002D48FEF7F7FE03463B613B69002B18DD69
:10137C003A6913465B0013449B00FB60FB68C3F1A6
:10138C008003DA0F13445B10FB61FB69002B01DA5D
:10139C000023FB61FB69DBB21F4A02211846FFF7F1
:1013AC00C3FE1E48FEF7D6FE0346BB60BB68002B8F
:1013BC001FDDBA6813465B0013445B007B607B68DF
:1013CC00C3F18003DA0F13445B10BB61BB69002BC4
:1013DC0001DA0023BB613B69002B01DD052300E032
:1013EC000323FB70BB69DBB2F9780C4A1846FFF794
:1013FC00AFFDFFF721FD00BF2037BD4680BD00BF0C
:10140C005C09002060090020000000206409002015
:10141C0090F00008A0F0000888090020680900205E
:10142C0080B582B000AF0346FB7100220121094850
:10143C0004F0AFF9F91D64230122074807F0C2F943
:10144C0001220121034804F0A4F900BF0837BD466E
:10145C0080BD00BF000C01400412002080B584B098
:10146C0000AF78607B681B0CDBB23B737B681B0A9C
:10147C00DBB27B737B68DBB2BB7307F10C016423BB
:10148C000322034807F09EF900BF1037BD4680BD0C
:10149C000412002080B582B000AF01220121104857
:1014AC0004F077F9012002F0B3FF0E4B1B88BB80D0
:1014BC000023BB713B1D184600F016F83B79FF2B3F
:1014CC0008D17B79FF2B05D1BB79FF2B02D14FF0D3
:1014DC00FF3300E0002318460837BD4680BD00BF2F
:1014EC00000C0140ACF0000880B584B000AF78600F
:1014FC009F23FB73002201210C4804F04AF907F1E9
:10150C000F01642301220A4807F05CF964230322CB
:10151C007968074807F09AFA01220121034804F080
:10152C0038F900BF1037BD4680BD00BF000C01402C
:10153C000412002080B582B000AF0523FB7100239C
:10154C00BB71002201210E4804F023F9F91D64231C
:10155C0001220C4807F036F9B91D64230122094811
:10156C0007F074FA01220121054804F012F9BB7945
:10157C0003F00103DBB218460837BD4680BD00BF3F
:10158C00000C01400412002080B500AF02E00120E5
:10159C0002F03EFFFFF7CEFF0346002BF7D100BF52
:1015AC0000BF80BD80B586B000AFF860B96013464F
:1015BC00FB800323FB75002201210E4804F0E9F89F
:1015CC0007F11701642301220B4807F0FBF8F868B8
:1015DC00FFF744FFFA884FF4FA73B968064807F02E
:1015EC0035FA01220121034804F0D3F800BF183763
:1015FC00BD4680BD000C01400412002080B586B0B1
:10160C0000AFF860B9601346FB800620FFF708FFB7
:10161C0000220121104804F0BCF80223FB7507F1ED
:10162C001701642301220D4807F0CCF8F868FFF786
:10163C0015FFFA884FF4FA73B968084807F0C2F836
:10164C0001220121044804F0A4F8FFF79DFF00BF1C
:10165C001837BD4680BD00BF000C014004120020AD
:10166C0080B584B000AF78600620FFF7D9FE002269
:10167C0001210D4804F08DF82023FB7307F10F01B5
:10168C0064230122094807F09DF87868FFF7E6FE0D
:10169C0001220121044804F07CF8FFF775FF00BF1C
:1016AC001037BD4680BD00BF000C01400412002065
:1016BC0080B582B000AF02F0A1FE7860094B1B68C8
:1016CC007A68D31A0F2B09D9064A7B68136000F08D
:1016DC00E5FC00F037FE01F0FBFB00E000BF083733
:1016EC00BD4680BD9809002080B500AF0E4B1B682D
:1016FC00002B06D102F082FE034643F001030A4A96
:10170C001360094B1B68094A03FB02F2084B134494
:10171C00054A1360044B1B681B0CDBB203F0070378
:10172C00DBB2184680BD00BF9C0900200D66190075
:10173C005FF36E3C80B485B000AF3B600346FB7139
:10174C000B46BB7113467B71484B1B78012B24D184
:10175C00FB79474AD25C3B681A70FB79454AD25CEC
:10176C00BB691A70FB79444AD25CFB691A703B68FE
:10177C001B78002B74D1BB691B78002B70D1FB69D3
:10178C001B78002B6CD133223B681A700022BB698A
:10179C001A700022FB691A7062E0384B1B78012B1F
:1017AC003BD10023FB730023BB7314E0BB7B304A9B
:1017BC00D35C002B09D1BB7B2E4AD35C002B04D10C
:1017CC00BB7B2D4AD35C002B09D0FB7B0133FB7315
:1017DC00BB7B0133BB73BB7B042BE7D900E000BFA1
:1017EC00FB7B002B01D10123FB737B79FA7BB3FBD1
:1017FC00F2F101FB02F29B1A7B737B7B1C4AD25CDD
:10180C003B681A707B7B1B4AD25CBB691A707B7B72
:10181C00194AD25CFB691A7022E0BB7903F007020B
:10182C00174913465B0013440B441A783B681A7033
:10183C00BB7903F00702124913465B0013440B44B7
:10184C0001331A78BB691A70BB7903F007020C4993
:10185C0013465B0013440B4402331A78FB691A706D
:10186C0000BF1437BD4680BC704700BF800A002003
:10187C00900A0020980A0020A00A0020820A00206A
:10188C00D4F4000880B485B000AF3B600346FB7114
:10189C000B46BB7113467B71484B1B78012B24D133
:1018AC00FB79474AD25C3B681A70FB79454AD25C9B
:1018BC00BB691A70FB79444AD25CFB691A703B68AD
:1018CC001B78002B74D1BB691B78002B70D1FB6982
:1018DC001B78002B6CD133223B681A700022BB6939
:1018EC001A700022FB691A7062E0384B1B78012BCE
:1018FC003BD10023FB730023BB7314E0BB7B304A4A
:10190C00D35C002B09D1BB7B2E4AD35C002B04D1BA
:10191C00BB7B2D4AD35C002B09D0FB7B0133FB73C3
:10192C00BB7B0133BB73BB7B052BE7D900E000BF4E
:10193C00FB7B002B01D10123FB737B79FA7BB3FB7F
:10194C00F2F101FB02F29B1A7B737B7B1C4AD25C8B
:10195C003B681A707B7B1B4AD25CBB691A707B7B21
:10196C00194AD25CFB691A7022E0BB7903F00702BA
:10197C00174913465B0013440B441A783B681A70E2
:10198C00BB7903F00702124913465B0013440B4466
:10199C0001331A78BB691A70BB7903F007020C4942
:1019AC0013465B0013440B4402331A78FB691A701C
:1019BC0000BF1437BD4680BC704700BF810A0020B1
:1019CC00A80A0020B00A0020B80A0020830A0020D0
:1019DC00D4F4000880B483B000AF0023FB713EE068
:1019EC00FB79234A1178234AD154214B1B78184692
:1019FC00FA79214903465B0003440B4418781F49CC
:101A0C0013465B0013440B4402461A70184B1B78A8
:101A1C001846FA79184903465B0003440B4401331A
:101A2C001878164913465B0013440B4401330246E5
:101A3C001A700F4B1B781846FA790F4903465B0056
:101A4C0003440B44023318780C4913465B001344CF
:101A5C000B44023302461A70FB790133FB71FB799C
:101A6C00062BBDD900BF00BF0C37BD4680BC7047EC
:101A7C00A1090020C0090020D4F40008A809002006
:101A8C0080B485B000AF03460A46FB711346BB71A8
:101A9C00FA79BB799A4201D1FB792EE0BB799AB2E3
:101AAC00FB799BB2D31A9BB27B81B7F90A30002B1E
:101ABC0000DA0F331B11FB81B7F90E30002B08D164
:101ACC00B7F90A30002B01DD012301E04FF0FF33A1
:101ADC00FB81FB799AB2FB8913449BB2BB81B7F9AA
:101AEC000C30002B01DA0023BB81B7F90C30FF2B33
:101AFC0001DDFF23BB81BB89DBB218461437BD4621
:101B0C0080BC704790B587B002AF02F077FCB8602C
:101B1C00654B1B78002B02D0012B12D045E0634B98
:101B2C001B68BA68D21A624B1B689A4241D35E4B4F
:101B3C0001221A705F4B00221A705C4ABB6813605A
:101B4C0037E05A4B1B68BA68D21A5B4B1B689A4237
:101B5C0031D3564B1A68584B1B681344534A1360C5
:101B6C00544B1B781A46554B1978554B9954514B7D
:101B7C001B780133DAB24F4B1A704E4B1B78062B85
:101B8C0019D94E4B1A784F4B1A704C4B1B780133AA
:101B9C00DBB203F00703DAB2484B1A70424B002257
:101BAC001A70424ABB68136005E03F4B00221A7062
:101BBC0002E000BF00E000BF0023FB736CE0FB7B86
:101BCC00042B0FD8FB7B3E4AD15CFB7B3C4AD25C9E
:101BDC00FC1DF87B7B1D0193BB1D00932346FFF777
:101BEC00A9FD10E0FB7B053BD8B2FB7B344AD15CF2
:101BFC00FB7B334AD25CFC1D7B1D0193BB1D009308
:101C0C002346FFF73FFEFA7B2F4913465B00134434
:101C1C000B441B78FA79FC7B11461846FFF730FF12
:101C2C0003461946284A23465B00234413440A46BC
:101C3C001A70FA7B244913465B0013440B4401339E
:101C4C001B78BA79FC7B11461846FFF719FF03463F
:101C5C0019461D4A23465B002344134401330A46AC
:101C6C001A70FA7B184913465B0013440B44023379
:101C7C001B787A79FC7B11461846FFF701FF034667
:101C8C001946114A23465B002344134402330A4687
:101C9C001A70FB7B0133FB73FB7B062B8FD900BFC8
:101CAC0000BF1437BD4690BDA0090020A409002038
:101CBC0004000020A20900200800002014000020CD
:101CCC00C0090020A1090020A809002080B582B01D
:101CDC0000AF02F093FB7860234B1B687A68D21A32
:101CEC00224B1B689A423AD31F4A7B681360204BE5
:101CFC0093F90030DBB29B00DAB21E4B1B78134415
:101D0C00DAB21C4B1A701A4B93F90030002B0ADD17
:101D1C00184B1B78632B06D9164B64221A70144B84
:101D2C00FF221A701CE0124B93F90030002B17DACB
:101D3C00104B1B78042B13D80E4B00221A700C4B33
:101D4C0001221A70FFF7D0FC03461A460A4B1A7090
:101D5C000A4B1B780133DAB2084B1A7000E000BF53
:101D6C000837BD4680BD00BFC80900200C0000200C
:101D7C0015000020CC090020CD090020CE09002040
:101D8C0090B583B000AF0023FB7123E0FB79154ABB
:101D9C0032F81330BB80BB88002B13D0FB79124A6E
:101DAC0032F81330002B0DD1FC79FFF79DFC034664
:101DBC001A460E4B1A55FB790D4AD25C0132D1B240
:101DCC000B4AD154FB790849BA8821F81320FB79C6
:101DDC000133FB71FB79042BD8D900BF00BF0C3742
:101DEC00BD4690BD840A0020D0090020DC090020EB
:101DFC00E409002090B589B002AF02F0FFFAF86058
:101E0C00994B1B68FA68D31A092B3FD9964AFB6881
:101E1C0013600023FB7536E00023BB752DE0FA7DC3
:101E2C00B97D924813465B00134403440B441B7862
:101E3C00062B15D9FA7DB97D8C4813465B001344EB
:101E4C0003440B441B78FA7DB97D063BDCB2874812
:101E5C0013465B00134403440B4422461A7009E0FA
:101E6C00FA7DB97D814813465B00134403440B444F
:101E7C0000221A70BB7D0133BB75BB7D022BCED902
:101E8C00FB7D0133FB75FB7D2D2BC5D9784B1B6876
:101E9C00FA68D21A774B1B689A42C0F0E080744AF9
:101EAC00FB68136000237B75D5E0734B1B68002B1C
:101EBC0006D102F0A3FA034643F001036E4A136005
:101ECC006D4B1B686D4A03FB02F26D4B13446A4A5F
:101EDC001360694B1B68190A6A4BA3FB01235A094F
:101EEC0013469B001344DB00CA1A13463B753B7D1B
:101EFC00DB08FB723B7D03F00703FB74624B1B7822
:101F0C00012B1BD1FB7A614A32F81330DB099BB2EF
:101F1C00BB74BB7C002B45D0BB7C082B01D90823A0
:101F2C00BB74FA7CBB7C9A4202D3BB7C013BFB7436
:101F3C00FB7ADB00DAB2FB7C13443B75FFF7D4FB76
:101F4C000346BB72524B1B780133DAB2504B1A70FA
:101F5C004F4B1A783C1DB97AF87ABB1C0193FB1CC9
:101F6C0000932346FFF7E6FB3A7D38793F49134649
:101F7C005B0013440B4402461A703A7DF8783B49D7
:101F8C0013465B0013440B44013302461A703A7D2E
:101F9C00B878364913465B0013440B4402330246AF
:101FAC001A7000E000BF3B4B1B78032B50D106236B
:101FBC007B72314B1B68314A03FB02F2304B1344EA
:101FCC002D4A13602C4B1B681B0A7A7AB3FBF2F177
:101FDC0001FB02F29B1A3B723B7A2833FB713B7A72
:101FEC002D4AA2FB03235B08BB71FFF77DFB034665
:101FFC007B71274B1B780133DAB2254B1A70244BBB
:10200C001A783C1D7979B879BB1C0193FB1C0093A1
:10201C002346FFF737FCFA793879144913465B00ED
:10202C0013440B4402461A70FA79F8780F49134698
:10203C005B0013440B44013302461A70FA79B878EA
:10204C000A4913465B0013440B44023302461A70D0
:10205C007B7D01337B757B7D022B7FF626AF00BF2A
:10206C001C37BD4690BD00BF7C0A0020F009002043
:10207C00EC090020100000209C0900200D661900BE
:10208C005FF36E3CCDCCCCCC16000020840A002033
:10209C007A0A0020810A0020ABAAAAAA80B500AF58
:1020AC001F4B1B78042B19D801A252F823F000BF48
:1020BC00D1200008EF200008D7200008DD20000800
:1020CC00E3200008FFF71EFD0CE0FFF7FFFD09E021
:1020DC00FFF756FE06E0FFF78DFE03E0FFF712FD5B
:1020EC0000E000BF0F4B1A780D4B1B789A4214D0AE
:1020FC000C4B1B78032B0CD0032B0DDC002B02D0CC
:10210C00022B03D008E0FFF7FDFC06E0FFF7DEFD35
:10211C0003E0FFF76FFE00E000BF00BF80BD00BF13
:10212C00800A0020810A002090B484B000AF0446DD
:10213C00084611461A462346FB710346BB710B46F3
:10214C007B7113463B710023FB734A4B1B78012BAD
:10215C0002D10123FB7351E0464B1B78022B4DD16E
:10216C003B7F454A32F81330DB099BB2BB733B7F94
:10217C00414A32F8133003F07F03BB81BB7B082B41
:10218C0001D90823BB733A7EBB7B9A4202D201234E
:10219C00FB7333E03A7EBB7B9A422FD1BB7B072B80
:1021AC002CD8BB79BA8902FB03F3DB09FA79D8B2D4
:1021BC00324913465B0013440B4402461A707B7978
:1021CC00BA8902FB03F3DB09FA79D8B22B4913461F
:1021DC005B0013440B44013302461A703B79BA89F5
:1021EC0002FB03F3DB09FA79D8B2244913465B00EE
:1021FC0013440B44023302461A7037E0FB7B002B6E
:10220C001AD0FA791D4913465B0013440B44BA7972
:10221C001A70FA79194913465B0013440B440133C5
:10222C007A791A70FA79154913465B0013440B44FA
:10223C0002333A791A7019E0FA79104913465B00A7
:10224C0013440B4400221A70FA790C4913465B00B4
:10225C0013440B44013300221A70FA7907491346D0
:10226C005B0013440B44023300221A701037BD4636
:10227C0090BC704716000020840A0020C00A002081
:10228C0090B484B000AF0446084611461A46234663
:10229C00FB710346BB710B467B7113463B71264B9E
:1022AC001B781A463B7E42FA03F3DBB203F00103C0
:1022BC00BB730023FB73214B1B78002B02D1002333
:1022CC00FB7308E01D4B1B78022B02D10123FB731F
:1022DC0001E0BB7BFB73FB7B002B01D0B97900E0E9
:1022EC000021FA79164813465B00134403440A464E
:1022FC001A70FB7B002B01D0797900E00021FA7970
:10230C000F4813465B001344034401330A461A700A
:10231C00FB7B002B01D0397900E00021FA790848C9
:10232C0013465B001344034402330A461A7000BF81
:10233C001037BD4690BC70478E0A00201700002055
:10234C00C00A002090B58BB002AFAB4B1B78002BB2
:10235C0023D10023FB771CE0FA7FA84913465B00CE
:10236C0013440B4400221A70FA7FA44913465B00F5
:10237C0013440B44013300221A70FA7F9F49134611
:10238C005B0013440B44023300221A70FB7F0133B1
:10239C00FB77FB7F272BDFD9CFE10023BB77C7E18E
:1023AC00BB7FDB00FB74964B1B78042B00F2BC81CB
:1023BC0001A252F823F000BFD923000855240008CD
:1023CC00C524000887250008FF250008BA7F8D4921
:1023DC0013465B0013440B441B78184600F05CFB5F
:1023EC000346FB72BA7F874913465B0013440B44C8
:1023FC0001331B78184600F04FFB0346BB72BA7FC3
:10240C00804913465B0013440B4402331B78184677
:10241C0000F042FB03467B7200237B7710E0FA7CD2
:10242C007B7F1344D8B2F97ABA7A7C7ABB7F01935A
:10243C007B7F00932346FFF777FE7B7F01337B770F
:10244C007B7F072BEBD970E107F10B02B87F07F10B
:10245C000903019307F10A0300931346002200219C
:10246C00FFF768F9FB7A184600F016FB0346FB727F
:10247C00BB7A184600F010FB0346BB727B7A1846F9
:10248C0000F00AFB03467B7200233B7710E0FA7CDA
:10249C003B7F1344D8B2F97ABA7A7C7ABB7F01932A
:1024AC003B7F00932346FFF73FFE3B7F01333B7797
:1024BC003B7F072BEBD938E1534B1978534B1A78E8
:1024CC0007F10B04B87F07F10903019307F10A0325
:1024DC0000932346FFF72EF9FB7A1A464C4B1B78D8
:1024EC0002FB03F31A464B4BA3FB02235B09DBB243
:1024FC00FB72BB7A1A46464B1B7802FB03F31A4657
:10250C00444BA3FB02235B09DBB2BB727B7A1A46FA
:10251C003F4B1B7802FB03F31A463E4BA3FB0223F3
:10252C005B09DBB27B72FB7A184600F0B5FA034606
:10253C00FB72BB7A184600F0AFFA0346BB727B7A8B
:10254C00184600F0A9FA03467B720023FB7610E0D4
:10255C00FA7CFB7E1344D8B2F97ABA7A7C7ABB7FC8
:10256C000193FB7E00932346FFF7DEFDFB7E0133D8
:10257C00FB76FB7E072BEBD9D7E0BB7F264AD15CE1
:10258C00BB7F264AD25C07F10B04B87F07F1090325
:10259C00019307F10A0300932346FFF7CBF8FB7A6C
:1025AC00184600F079FA0346FB72BB7A184600F025
:1025BC0073FA0346BB727B7A184600F06DFA034639
:1025CC007B720023BB7610E0FA7CBB7E1344D8B23E
:1025DC00F97ABA7A7C7ABB7F0193BB7E009323464F
:1025EC00FFF7A2FDBB7E0133BB76BB7E072BEBD97D
:1025FC009BE000237B7692E016000020C00A0020AE
:10260C00800A0020A8090020CD090020CE09002056
:10261C00CC0900201F85EB51DC090020E4090020C7
:10262C00FA7C7B7E1344BB7401233B769D4B1B7859
:10263C00022B13D1BB7F9C4A32F81330DB099BB2BF
:10264C00FB75FB7D082B01D90823FB757A7EFB7D7E
:10265C009A4201D2012300E000233B763B7E002B03
:10266C0040D0BA7C914913465B0013440B441B7851
:10267C00BC7C184600F010FA034619468C4A2346D7
:10268C005B00234413440A461A70BA7C87491346EC
:10269C005B0013440B4401331B78BC7C184600F0E0
:1026AC00FBF903461946824A23465B002344134434
:1026BC0001330A461A70BA7C7C4913465B001344FA
:1026CC000B4402331B78BC7C184600F0E5F903463A
:1026DC001946774A23465B002344134402330A46C7
:1026EC001A7019E0BA7C724913465B0013440B4410
:1026FC0000221A70BA7C6E4913465B0013440B44DB
:10270C00013300221A70BA7C694913465B001344EA
:10271C000B44023300221A707B7E01337B767B7E66
:10272C00072B7FF67DAF00E000BFBB7F0133BB778B
:10273C00BB7F042B7FF634AE00BF5E4B1B78002BA7
:10274C002BD128233B730023BB7522E03A7BBB7D46
:10275C001A44574913465B0013440B4400221A7069
:10276C003A7BBB7D1A44524913465B0013440B441D
:10277C00013300221A703A7BBB7D1A444C49134634
:10278C005B0013440B44023300221A70BB7D0133EF
:10279C00BB75BB7D052BD9D964E100237B755DE14D
:1027AC007B7D1A4652001344DBB228337B74002322
:1027BC003B754CE17B7D1A4652001344DAB23B7DEB
:1027CC0013443B747A7C3B7D1344FB733A4B1B786C
:1027DC00032B00F2368101A252F823F0F9270008EE
:1027EC005F280008CD2800086F2900087B7D5A1D42
:1027FC00324913465B0013440B441B78184600F017
:10280C004BF903463B727B7D5A1D2C4913465B00EA
:10281C0013440B4401331B78184600F03DF9034672
:10282C00FB717B7D5A1D254913465B0013440B44F9
:10283C0002331B78184600F02FF90346BB71397A26
:10284C00FA79BC79F87B3B7C00932346FFF718FDA3
:10285C00FAE007F10802387CBB1D0193FB1D0093C5
:10286C00134600220021FFF70DF83B7A184600F0C2
:10287C0013F903463B72FB79184600F00DF9034639
:10288C00FB71BB79184600F007F90346BB71397A26
:10289C00FA79BC79F87B3B7C00932346FFF7F0FC7C
:1028AC00D2E000BF16000020840A0020F0090020AE
:1028BC00C00A002017000020810A0020A80900206F
:1028CC006A4B19786A4B1A7807F10804387CBB1DDF
:1028DC000193FB1D00932346FEF7D4FF3B7A1A4667
:1028EC00644B1B7802FB03F31A46634BA3FB0223D6
:1028FC005B09DBB23B72FB791A465E4B1B7802FB21
:10290C0003F31A465C4BA3FB02235B09DBB2FB719E
:10291C00BB791A46574B1B7802FB03F31A46564BEE
:10292C00A3FB02235B09DBB2BB713B7A184600F0B8
:10293C00B3F803463B72FB79184600F0ADF803463A
:10294C00FB71BB79184600F0A7F80346BB71397AC6
:10295C00FA79BC79F87B3B7C00932346FFF790FC1B
:10296C0072E0FA7B454913465B0013440B441B7819
:10297C00FC7B184600F090F803461946404A234663
:10298C005B00234413440A461A70FA7B3B491346F6
:10299C005B0013440B4401331B78FC7B184600F09E
:1029AC007BF803461946364A23465B0023441344FE
:1029BC0001330A461A70FA7B304913465B00134404
:1029CC000B4402331B78FC7B184600F065F8034679
:1029DC0019462B4A23465B002344134402330A4610
:1029EC001A70284B1B781A463B7C42FA03F3DBB275
:1029FC0003F00103BB73244B1B78022B01D0BB7B70
:102A0C0000E001237B737B7B002B1CD1FA7B1C49E0
:102A1C0013465B0013440B4400221A70FA7B1849CE
:102A2C0013465B0013440B44013300221A70FA7BEB
:102A3C00134913465B0013440B44023300221A70F3
:102A4C0001E000BF00E000BF3B7D01333B753B7DE7
:102A5C00022B7FF6AFAE7B7D01337B757B7D012B2B
:102A6C007FF69EAE2437BD4690BD00BFCD09002039
:102A7C00CE090020CC0900201F85EB51F009002065
:102A8C00C00A00208E0A00201700002080B500AF7D
:102A9C00FEF7A0FF00BF80BD80B483B000AF03463B
:102AAC00FB71FB79074A127802FB03F31A46064BBB
:102ABC00A3FB02235B09DBB218460C37BD4680BC76
:102ACC00704700BF180000201F85EB5180B483B005
:102ADC0000AF0346FB71FB79642B01D96423FB71B6
:102AEC00034AFB79137000BF0C37BD4680BC70479E
:102AFC001800002080B483B000AF0346FB71FB7953
:102B0C00002B01D10123FB71FB790A2B01D90A237C
:102B1C00FB71FB7940F6B832B2FBF3F3194A136040
:102B2C00FB79FA22B2FBF3F3DBB21A46164B1A60AE
:102B3C00154B1B68092B02D8134B0A221A60FB7920
:102B4C003222B2FBF3F3DBB21A46104B1A600F4B76
:102B5C001B68042B02D80D4B05221A60FB794FF42D
:102B6C009672B2FBF3F30A4A1360094B1B681D2BD8
:102B7C0002D8074B1E221A6000BF0C37BD4680BC22
:102B8C00704700BF04000020080000200C0000204B
:102B9C001000002080B483B000AF0346FB71044AE0
:102BAC00FB79137000BF0C37BD4680BC704700BF6B
:102BBC001600002080B483B000AF0346FB71044ABA
:102BCC00FB79137000BF0C37BD4680BC704700BF4B
:102BDC001700002080B483B000AF0346FB71044A99
:102BEC00FB79137000BF0C37BD4680BC704700BF2B
:102BFC00800A002080B483B000AF0346FB71044A06
:102C0C00FB79137000BF0C37BD4680BC704700BF0A
:102C1C00810A002080B483B000AF0346FB71044AE4
:102C2C00FB79137000BF0C37BD4680BC704700BFEA
:102C3C00820A002080B483B000AF0346FB71044AC3
:102C4C00FB79137000BF0C37BD4680BC704700BFCA
:102C5C00830A002080B483B000AF0346FB71044AA2
:102C6C00FB79137000BF0C37BD4680BC704700BFAA
:102C7C008E0A002080B485B000AF03460A46FB7173
:102C8C001346BB80FB79042B21D8BB88B3F5806F2E
:102C9C0002D94FF48063BB80FB79104A32F81330B1
:102CAC00BB81BA88BB89D31A9BB2FB81B7F90E30B2
:102CBC00002B03DAFB895B429BB2FB81FB89032B64
:102CCC0007D9FB790549BA8821F8132002E000BF27
:102CDC0000E000BF1437BD4680BC7047840A00205A
:102CEC0090B482B000AF0446084611461A462346FB
:102CFC00FB710346BB710B467B7113463B71FB7931
:102D0C00042B0CD8FB790849BA79CA54FB790749CA
:102D1C007A79CA54FB7906493A79CA5400E000BF63
:102D2C000837BD4690BC7047900A0020980A0020D6
:102D3C00A00A002090B482B000AF044608461146A9
:102D4C001A462346FB710346BB710B467B71134637
:102D5C003B71FB79052B0CD8FB790849BA79CA541D
:102D6C00FB7907497A79CA54FB7906493A79CA54EE
:102D7C0000E000BF0837BD4690BC7047A80A002091
:102D8C00B00A0020B80A002080B485B000AF002340
:102D9C00FB6037E00023BB602EE0BB685B00C3F137
:102DAC000703FA6842FA03F3DBB203F00103FB7189
:102DBC00BB68C3F103035B00FA6842FA03F3DBB2AE
:102DCC0003F00103BB71FB79002B01D0E02200E082
:102DDC008022BB79002B01D00E2300E00823134383
:102DEC00D9B20D4AFB689B001A44BB6813440A46CF
:102DFC001A70BB680133BB60BB68032BCDDDFB686D
:102E0C000133FB60FB68FF2BC4DD00BF00BF143730
:102E1C00BD4680BC704700BF800D002080B500AF60
:102E2C00FFF7B2FF8A2200211F480AF041FF40F24F
:102E3C00322200211D480AF03BFF0A2200211C48C7
:102E4C000AF036FF052200211A480AF031FF05224C
:102E5C00002119480AF02CFF0522002117480AF01E
:102E6C0027FF0622002116480AF022FF0622002125
:102E7C0014480AF01DFF0622002113480AF018FF1F
:102E8C00124B00221A700520FFF734FEFFF7FEFDEF
:102E9C00FFF704F9FFF756FA00F01AF8012001F0D9
:102EAC00B7FA00BF80BD00BFC00A00204C0B002049
:102EBC00840A0020900A0020980A0020A00A002012
:102ECC00A80A0020B00A0020B80A00208E0A0020B0
:102EDC0080B582B000AF284806F047F90346012BB5
:102EEC0046D1264B7B600023FB7037E0FA782449EF
:102EFC0013465B0013440B4401331B789B00214A9F
:102F0C0013441B681A467B681A607B6804337B6029
:102F1C00FA781B4913465B0013440B441B789B0047
:102F2C00184A13441B681A467B681A607B68043382
:102F3C007B60FA78124913465B0013440B4402334E
:102F4C001B789B000F4A13441B681A467B681A6057
:102F5C007B6804337B60FB780133FB70FB782D2B93
:102F6C00C4D940F232220549034806F031F800E09A
:102F7C0000BF0837BD4680BD5C1200204C0B002002
:102F8C00C00A0020800D002080B500AF01F0DEF9F2
:102F9C0000F013F800F066F900F046F900F0AAF81A
:102FAC0000F0D6F800F068F800F008F90AF07EF9A5
:102FBC00FDF73CFEFDF75AFEFCE780B594B000AF80
:102FCC0007F128032822002118460AF071FE07F1A8
:102FDC00140300221A605A609A60DA601A613B1D71
:102FEC0000221A605A609A60DA600123BB624FF4C7
:102FFC008033FB624FF400333B630123BB6302233A
:10300C007B644FF48033BB644FF48013FB6407F193
:10301C002803184604F0D4FD0346002B01D000F021
:10302C0077F90F237B610223BB610023FB614FF413
:10303C0080633B6200237B6207F114030121184675
:10304C0005F040F80346002B01D000F061F9122383
:10305C007B604FF48043FB604FF480033B613B1D6E
:10306C00184605F0BFF90346002B01D000F050F9CB
:10307C0000BF5037BD4680BD80B584B000AF3B1D4E
:10308C0000221A605A609A60184B194A1A60174B42
:10309C0000229A60154B00221A73144B00221A75E9
:1030AC00124B4FF46022DA61104B00225A600F4B26
:1030BC0001221A610D4801F0CFF90346002B01D013
:1030CC0000F026F900237B600123BB600023FB602A
:1030DC003B1D1946054801F083FC0346002B01D02B
:1030EC0000F016F900BF1037BD4680BD80110020DE
:1030FC000024014080B500AF124B134A1A60114BEB
:10310C00124A5A600F4B00229A600E4B0022DA6072
:10311C000C4B4FF480421A610A4B00225A61094B46
:10312C0000229A61074B0022DA61064B00221A62D8
:10313C00044802F047FB0346002B01D000F0E8F8EE
:10314C0000BF80BDB011002000540040A0860100DB
:10315C0080B500AF174B184A1A60164B4FF48272A9
:10316C005A60144B00229A60124B0022DA60114B09
:10317C0000221A610F4B00225A610E4B4FF4007261
:10318C009A610C4B0822DA610A4B00221A62094B35
:10319C0000225A62074B00229A62064B0A22DA621C
:1031AC00044805F08BFA0346002B01D000F0B0F870
:1031BC0000BF80BD041200200030014080B500AF7C
:1031CC00174B184A1A60164B4FF482725A60144B04
:1031DC0000229A60124B0022DA60114B00221A6115
:1031EC000F4B00225A610E4B4FF400729A610C4B3C
:1031FC001022DA610A4B00221A62094B00225A6231
:10320C00074B00229A62064B0A22DA62044805F048
:10321C0055FA0346002B01D000F07AF800BF80BDB0
:10322C005C1200200038004080B582B000AF0C4B1F
:10323C005B690B4A43F001035361094B5B6903F073
:10324C0001037B607B68002200210F2001F0E1FE6E
:10325C000F2001F0FAFE00BF0837BD4680BD00BF4D
:10326C000010024080B588B000AF07F110030022B7
:10327C001A605A609A60DA60234B9B69224A43F0C9
:10328C0020039361204B9B6903F02003FB60FB68D8
:10329C001D4B9B691C4A43F0040393611A4B9B69B9
:1032AC0003F00403BB60BB68174B9B69164A43F0E1
:1032BC0008039361144B9B6903F008037B607B68E4
:1032CC0001220121114802F064FA01233B61012320
:1032DC007B610023BB610223FB6107F110031946DC
:1032EC000A4802F0BBF840F61E433B6100237B61A9
:1032FC000123BB6107F110031946044802F0AEF834
:10330C0000BF2037BD4680BD00100240000C0140BC
:10331C0080B400AF72B600BFFEE7000080B582B08B
:10332C0000AFDC22002155480AF0C2FC534B544A32
:10333C0007CA03C31A70534B534A07CA03C31A7004
:10334C00524B534A07CA03C31A70524B524A07CA0C
:10335C0003C31A70514B524A07CA03C31A70514B1C
:10336C00514A07CA03C31A70504B514A07CA03C3C8
:10337C001A70504B504A07CA03C31A704F4B504A2D
:10338C0007CA03C31A704F4B4F4A07CA03C31A70BC
:10339C004E4B4F4A07CA03C31A70384B502283F85E
:1033AC00B020364B002283F8B120344B002283F836
:1033BC00B220324B002283F8B320304B002283F82A
:1033CC00B4202E4B012283F8B5202C4B012283F81C
:1033DC00B6202A4B052283F8B7200023FB711DE091
:1033EC00FA79264913465B0013440B44B833002288
:1033FC001A70FA79214913465B0013440B44B93314
:10340C003D221A70FA791D4913465B0013440B4494
:10341C00BA333D221A70FB790133FB71FB79042B13
:10342C00DED90023BB711DE0BA79144913465B0049
:10343C0013440B44C7333D221A70BA790F49134613
:10344C005B0013440B44C83314221A70BA790B492D
:10345C0013465B0013440B44C93300221A70BB792A
:10346C000133BB71BB79052BDED9044B4AF25C529C
:10347C00A3F8DA2000BF0837BD4680BDF812002043
:10348C00B0F0000808130020BCF00008181300204E
:10349C00C8F0000828130020D4F0000838130020CE
:1034AC00E0F0000848130020ECF00008581300204E
:1034BC00F8F000086813002004F1000878130020CD
:1034CC0010F10008881300201CF10008981300204C
:1034DC0028F1000880B500AF00F002F800BF80BDF5
:1034EC0080B500AFDC2208490020FEF75BF8064BE4
:1034FC00B3F8DA304AF25C52934203D0FFF70EFF76
:10350C0000F004F800BF80BDF812002080B500AFB9
:10351C000020FEF7A5F8DC2202490020FEF76EF829
:10352C0000BF80BDF812002080B500AF054B1B78A2
:10353C00002B04D0034B00221A70FFF7E7FF00BFEB
:10354C0080BD00BFD413002080B588B000AF786078
:10355C0039600023FB7707F10C030F2239681846FA
:10356C000AF0CDFB0023FB765C497868FCF7E8FD9C
:10357C000346002B08D107F10C03194658480AF0F2
:10358C00FDFB0123FB779EE056497868FCF7D8FDDC
:10359C000346002B08D107F10C03194652480AF0D8
:1035AC00EDFB0123FB778EE050497868FCF7C8FDF2
:1035BC000346002B08D107F10C0319464C480AF0BE
:1035CC00DDFB0123FB777EE04A497868FCF7B8FD08
:1035DC000346002B08D107F10C03194646480AF0A4
:1035EC00CDFB0123FB776EE044497868FCF7A8FD1E
:1035FC000346002B08D107F10C03194640480AF08A
:10360C00BDFB0123FB775EE03E497868FCF798FD33
:10361C000346002B08D107F10C0319463A480AF06F
:10362C00ADFB0123FB774EE038497868FCF788FD49
:10363C000346002B08D107F10C03194634480AF055
:10364C009DFB0123FB773EE032497868FCF778FD5F
:10365C000346002B08D107F10C0319462E480AF03B
:10366C008DFB0123FB772EE02C497868FCF768FD75
:10367C000346002B08D107F10C03194628480AF021
:10368C007DFB0123FB771EE026497868FCF758FD8B
:10369C000346002B08D107F10C03194622480AF007
:1036AC006DFB0123FB770EE020497868FCF748FDA1
:1036BC000346002B07D107F10C0319461C480AF0EE
:1036CC005DFB0123FB77FB7F002B02D0194B012202
:1036DC001A7000BF2037BD4680BD00BFB0F0000897
:1036EC00F8120020BCF0000808130020C8F00008F5
:1036FC0018130020D4F0000828130020E0F0000874
:10370C0038130020ECF0000848130020F8F00008F3
:10371C005813002004F100086813002010F1000871
:10372C00781300201CF100088813002028F10008F1
:10373C0098130020D4130020F0B5ADF2644D34AFD3
:10374C008E4B93F8B030C7F88C308C4B93F8B53067
:10375C00C7F88830894B93F8B130C7F88430874B61
:10376C0093F8B230C7F88030844B93F8B630FB67CF
:10377C00824B93F8B330BB67804B93F8B4307B67C4
:10378C007E4B93F8B7303B677C4B93F8B830FB66B5
:10379C007A4B93F8B930BB66784B93F8BA307B66AA
:1037AC00764B93F8BB303B66744B93F8BC30FB659F
:1037BC00724B93F8BD30BB65704B93F8BE307B6594
:1037CC006E4B93F8BF303B656C4B93F8C030FB6489
:1037DC006A4B93F8C130BB64684B93F8C2307B647E
:1037EC00664B93F8C3303B64644B93F8C430FB6373
:1037FC00624B93F8C530BB63604B93F8C6307B6368
:10380C005E4B93F8C7303B635C4B93F8C830FB625C
:10381C005A4B93F8C930BB62584B93F8CA307B6251
:10382C00564B93F8CB303B62544B93F8CC30FB6146
:10383C00524B93F8CD30BB61504B93F8CE307B613B
:10384C004E4B93F8CF303B614C4B93F8D030FB6030
:10385C004A4B93F8D130BB60484B93F8D2307B6025
:10386C00464B93F8D3301E46444B93F8D4301D4648
:10387C00424B93F8D5301846404B93F8D630194646
:10388C003E4B93F8D7301A463C4B93F8D83007F19F
:10389C0090043293319230912F902E952D967A6818
:1038AC002C92BA682B92FA682A923A6929927A6910
:1038BC002892BA692792FA6926923A6A25927A6A0C
:1038CC002492BA6A2392FA6A22923A6B21927A6B08
:1038DC002092BA6B1F92FA6B1E923A6C1D927A6C04
:1038EC001C92BA6C1B92FA6C1A923A6D19927A6D00
:1038FC001892BA6D1792FA6D16923A6E15927A6EFC
:10390C001492BA6E1392FA6E12923A6F11927A6FF7
:10391C001092BA6F0F92FA6F0E92D7F880200D9218
:10392C00D7F884200C92D7F888200B92D7F88C30DB
:10393C000A93134B0993134B0893134B0793134B95
:10394C000693134B0593134B0493134B0393134B95
:10395C000293134B0193134B0093084B124A4FF4F1
:10396C00407120460AF044F907F190031846FDF720
:10397C0013F900BF07F56577BD46F0BDF8120020BE
:10398C00981300208813002078130020681300205F
:10399C00581300204813002038130020281300204F
:1039AC00181300200813002034F1000880B483B0F1
:1039BC0000AF0346FB71FB79042B17D801A252F818
:1039CC0023F000BFE5390008E9390008ED3900089B
:1039DC00F1390008F5390008074B08E0074B06E001
:1039EC00074B04E0074B02E0074B00E0074B18467F
:1039FC000C37BD4680BC7047F8120020081300201D
:103A0C0018130020281300203813002040F200085F
:103A1C0080B483B000AF0346FB71FB79052B1BD838
:103A2C0001A252F823F000BF4D3A0008513A0008A9
:103A3C00553A0008593A00085D3A0008613A000806
:103A4C00084B0AE0084B08E0084B06E0084B04E082
:103A5C00084B02E0084B00E0084B18460C37BD46FB
:103A6C0080BC7047481300205813002068130020B6
:103A7C0078130020881300209813002040F20008CF
:103A8C0080B483B000AF0346FB71FB79642B01D982
:103A9C006423FB71094B93F8B030FA799A4207D042
:103AAC00064AFB7982F8B030054B01221A7000E00F
:103ABC0000BF0C37BD4680BC704700BFF812002019
:103ACC00D413002080B483B000AF0346FB71094BC4
:103ADC0093F8B130FA799A4207D0064AFB7982F80A
:103AEC00B130054B01221A7000E000BF0C37BD4607
:103AFC0080BC7047F8120020D413002080B483B02F
:103B0C0000AF0346FB71094B93F8B230FA799A4235
:103B1C0007D0064AFB7982F8B230054B01221A70A5
:103B2C0000E000BF0C37BD4680BC7047F812002087
:103B3C00D413002080B483B000AF0346FB71094B53
:103B4C0093F8B330FA799A4207D0064AFB7982F897
:103B5C00B330054B01221A7000E000BF0C37BD4694
:103B6C0080BC7047F8120020D413002080B483B0BE
:103B7C0000AF0346FB71094B93F8B430FA799A42C3
:103B8C0007D0064AFB7982F8B430054B01221A7033
:103B9C0000E000BF0C37BD4680BC7047F812002017
:103BAC00D413002080B483B000AF0346FB71094BE3
:103BBC0093F8B530FA799A4207D0064AFB7982F825
:103BCC00B530054B01221A7000E000BF0C37BD4622
:103BDC0080BC7047F8120020D413002080B483B04E
:103BEC0000AF0346FB71094B93F8B630FA799A4251
:103BFC0007D0064AFB7982F8B630054B01221A70C1
:103C0C0000E000BF0C37BD4680BC7047F8120020A6
:103C1C00D413002080B483B000AF0346FB71FB7952
:103C2C00002B01D10123FB71FB790A2B01D90A234B
:103C3C00FB71094B93F8B730FA799A4207D0064AD0
:103C4C00FB7982F8B730054B01221A7000E000BFF7
:103C5C000C37BD4680BC7047F8120020D4130020EE
:103C6C0090B482B000AF0446084611461A4623466B
:103C7C00FB710346BB710B467B7113463B71FB79A1
:103C8C00042B1ED8FA79114913465B0013440B44DC
:103C9C00B833BA791A70FA790C4913465B0013449D
:103CAC000B44B9337A791A70FA79084913465B00D8
:103CBC0013440B44BA333A791A70054B01221A702B
:103CCC0000E000BF0837BD4690BC7047F8120020DA
:103CDC00D413002090B482B000AF044608461146BD
:103CEC001A462346FB710346BB710B467B71134688
:103CFC003B71FB79052B1ED8FA79114913465B00F1
:103D0C0013440B44C733BA791A70FA790C49134629
:103D1C005B0013440B44C8337A791A70FA7908495A
:103D2C0013465B0013440B44C9333A791A70054BA4
:103D3C0001221A7000E000BF0837BD4690BC7047E6
:103D4C00F8120020D413002090B583B000AF3F4B85
:103D5C0093F8B0301846FEF7B9FE3C4B93F8B730E9
:103D6C001846FEF7C7FE394B93F8B5301846FEF7E8
:103D7C0011FF364B93F8B6301846FEF71BFF334B4A
:103D8C0093F8B1301846FEF725FF304B93F8B2305C
:103D9C001846FEF73FFF2D4B93F8B3301846FEF74D
:103DAC0029FF2A4B93F8B4301846FEF743FF002343
:103DBC00FB711EE0FA79254913465B0013440B4452
:103DCC00B8331978FA79214813465B00134403443D
:103DDC00B9331C78FA791D4813465B00134403442D
:103DEC00BA331B78F8792246FEF77AFFFB79013358
:103DFC00FB71FB79042BDDD90023BB711EE0BA7972
:103E0C00124913465B0013440B44C7331978BA7933
:103E1C000E4813465B0013440344C8331C78BA792C
:103E2C000A4813465B0013440344C9331B78B87922
:103E3C002246FEF77FFFBB790133BB71BB79052BA3
:103E4C00DDD900BF00BF0C37BD4690BDF812002075
:103E5C0080B500AF024800F057FF00BF80BD00BF27
:103E6C008011002080B586B000AF3B1D00221A6087
:103E7C005A609A600123BB600623FB600023FB752C
:103E8C0057E0FB7D304A52F823307B603B1D1946CE
:103E9C002E4800F0A5FD2D4800F0B6FB0A212B485A
:103EAC0000F08CFC0346002B3DD1284800F08CFD23
:103EBC003861274B1B78002B06D0FB7D3A6991B2F9
:103ECC00244A22F8131010E0FB7D224A32F81330FA
:103EDC001A4613465B0013441A463B6913449A086E
:103EEC00FB7D91B21B4A22F81310FB7D194A32F864
:103EFC0013309B08BB82FB7D164A32F81330322BF1
:103F0C0001D80023BB82FB7D124A32F8133040F6F5
:103F1C003B72934202D94FF48063BB82FB7D0E4906
:103F2C00BA8A21F81320094800F01CFCFB7D0133F0
:103F3C00FB75FB7D042BA4D9054B00221A7000BF26
:103F4C001837BD4680BD00BFECF40008801100207E
:103F5C0019000020E4130020D813002080B400AF17
:103F6C00024B1846BD4680BC704700BFD8130020DA
:103F7C0080B485B000AF154B9B69144A43F0010324
:103F8C009361124B9B6903F00103BB60BB680F4B41
:103F9C00DB690E4A43F08053D3610C4BDB6903F0B1
:103FAC0080537B607B680A4B5B68FB60FB6823F08B
:103FBC00E063FB60FB6843F00073FB60044AFB6842
:103FCC00536000BF1437BD4680BC704700100240E0
:103FDC000000014080B588B000AF786007F1100395
:103FEC0000221A605A609A60DA607B681B68144A77
:103FFC00934221D1134B9B69124A43F40073936192
:10400C00104B9B6903F40073FB60FB680D4B9B69C1
:10401C000C4A43F0040393610A4B9B6903F00403BD
:10402C00BB60BB681F233B6103237B6107F110035B
:10403C001946054801F012FA00BF2037BD4680BD75
:10404C0000240140001002400008014080B588B0F7
:10405C0000AF786007F1100300221A605A609A6072
:10406C00DA607B681B68154A934223D1144B9B6919
:10407C00134A43F008039361114B9B6903F0080347
:10408C00FB60FB68C0233B6112237B610323FB6154
:10409C0007F1100319460B4801F0E0F9084BDB69F6
:1040AC00074A43F40013D361054BDB6903F4001397
:1040BC00BB60BB6800BF2037BD4680BD00540040CC
:1040CC0000100240000C014080B58AB000AF78604F
:1040DC0007F1180300221A605A609A60DA607B6854
:1040EC001B68444A934230D1434B9B69424A43F488
:1040FC0080539361404B9B6903F480537B617B69D4
:10410C003D4B9B693C4A43F0040393613A4B9B69DA
:10411C0003F004033B613B69A023BB610223FB61F9
:10412C0003237B6207F118031946344801F096F912
:10413C004023BB610023FB6100233B6207F11803A2
:10414C0019462E4801F08AF94FE07B681B682C4A0F
:10415C0093424AD1284BDB69274A43F48043D3610D
:10416C00254BDB6903F48043FB60FB68224B9B69A6
:10417C00214A43F0080393611F4B9B6903F008032A
:10418C00BB60BB684FF42043BB610223FB6103237C
:10419C007B6207F1180319461A4801F05FF91A4BB4
:1041AC001A4A1A60184B10225A60174B00229A6058
:1041BC00154B8022DA60144B00221A61124B00223C
:1041CC005A61114B00229A610F4B0022DA610E48A2
:1041DC0000F056FF0346002B01D0FFF799F87B68DF
:1041EC00094A9A64084A7B68536200BF2837BD4667
:1041FC0080BD00BF003001400010024000080140AB
:10420C0000380040000C0140B4120020580002405D
:10421C0080B400AFFEE780B400AFFEE780B400AF1F
:10422C00FEE780B400AFFEE780B400AFFEE780B4D9
:10423C0000AF00BFBD4680BC704780B400AF00BF6C
:10424C00BD4680BC704780B400AF00BFBD4680BC8B
:10425C00704780B500AF00F0BFF800BF80BD000014
:10426C0080B500AF024800F0C5FF00BF80BD00BFA5
:10427C00B412002080B500AF024802F05BF800BF1A
:10428C0080BD00BFC020002080B586B000AF786034
:10429C00144A154BD31A7B617B693B61134B1B682A
:1042AC00002B02D1114B124A1A60104B1A687B6812
:1042BC0013443A699A4207D209F034FD03460C22A2
:1042CC001A604FF0FF3309E0084B1B68FB60074B8B
:1042DC001A687B681344054A1360FB681846183744
:1042EC00BD4680BD0050002000040000F0130020EB
:1042FC000027002080B400AF00BFBD4680BC7047D3
:10430C00FFF7F8FF0B480C490C4A002302E0D45885
:10431C00C4500433C4188C42F9D3094A094C002305
:10432C0001E013600432A242FBD309F001FDFEF759
:10433C002BFE704700000020E801002098F60008D2
:10434C00E801002000270020FEE7000080B500AF48
:10435C00084B1B68074A43F010031360032000F05E
:10436C004DFE0F2000F008F8FFF702FE0023184660
:10437C0080BD00BF0020024080B582B000AF7860E5
:10438C00124B1A68124B1B7819464FF47A73B3FB15
:10439C00F1F3B2FBF3F3184600F065FE0346002B75
:1043AC0001D001230EE07B680F2B0AD8002279681C
:1043BC004FF0FF3000F02DFE064A7B68136000239F
:1043CC0000E0012318460837BD4680BD1C000020C4
:1043DC00240000202000002080B400AF054B1B7887
:1043EC001A46054B1B681344034A136000BFBD46B5
:1043FC0080BC704724000020F413002080B400AF70
:10440C00024B1B681846BD4680BC7047F413002055
:10441C0080B584B000AF7860FFF7F0FFB8607B68C0
:10442C00FB60FB68B3F1FF3F05D00A4B1B781A46C3
:10443C00FB681344FB6000BFFFF7E0FF0246BB685C
:10444C00D31AFA689A42F7D800BF00BF1037BD469E
:10445C0080BD00BF2400002080B586B000AF78601E
:10446C000023FB7500233B610023BB600023FB6032
:10447C007B68002B01D10123BEE07B689B68002B7D
:10448C007B689B6A002B09D17B680022DA627B680F
:10449C00002283F824207868FFF79CFD786800F0F0
:1044AC00F1FB0346FB757B689B6A03F01003002B42
:1044BC0040F09980FB7D002B40F095807B689B6AD7
:1044CC0023F4885323F0020343F002027B689A62C0
:1044DC007B685A687B68DB691A437B681B7B5B00D3
:1044EC001343BA681343BB607B689B68B3F5807F4A
:1044FC0003D07B689B68012B02D14FF4807300E0E2
:10450C0000233A6913433B617B681B7D012B19D156
:10451C007B681B7B002B09D17B689B69013B5A0391
:10452C003B69134343F400633B610BE07B689B6A7C
:10453C0043F020027B689A627B68DB6A43F00102DD
:10454C007B68DA627B681B685B6823F469417B6873
:10455C001B683A690A435A607B681B689A68284B47
:10456C0013407A681268B9680B4393607B689B6848
:10457C00B3F5807F03D07B689B68012B04D17B68EB
:10458C001B69013B1B05FB607B681B68DB6A23F422
:10459C0070017B681B68FA680A43DA627B681B68E7
:1045AC009A68184B1340BA689A420BD17B68002268
:1045BC00DA627B689B6A23F0030343F001027B6899
:1045CC009A6218E07B689B6A23F0120343F0100296
:1045DC007B689A627B68DB6A43F001027B68DA6273
:1045EC000123FB7507E07B689B6A43F010027B6834
:1045FC009A620123FB75FB7D18461837BD4680BDBA
:10460C00FDF7E1FFFE0E1FFF80B584B000AF7860B0
:10461C000023FB737B6893F82430012B01D1022318
:10462C0098E07B68012283F82420786800F0D0FAA7
:10463C000346FB73FB7B002B40F087807B689B6AF7
:10464C0023F4407323F0010343F480727B689A6275
:10465C007B681B68414A934205D1414B5B6803F46C
:10466C007023002B15D17B689B6A23F480127B6826
:10467C009A627B681B685B6803F48063002B26D00E
:10468C007B689B6A23F4405343F480527B689A62A4
:10469C001DE07B689B6A43F480127B689A627B689E
:1046AC001B682F4A934204D07B681B682B4A9342A9
:1046BC000DD12B4B5B6803F48063002B07D07B6818
:1046CC009B6A23F4405343F480527B689A627B6864
:1046DC009B6A03F48053002B06D07B68DB6A23F0C3
:1046EC0006027B68DA6202E07B680022DA627B6891
:1046FC00002283F824207B681B686FF002021A608A
:10470C007B681B689B6803F46023B3F5602F13D19F
:10471C007B681B68114A934205D1114B5B6803F40B
:10472C007023002B08D17B681B689A687B681B6818
:10473C0042F4A0029A600CE07B681B689A687B6864
:10474C001B6842F480129A6003E07B68002283F8B5
:10475C002420FB7B18461037BD4680BD0028014045
:10476C000024014080B584B000AF78600023FB7357
:10477C007B6893F82430012B01D102231AE07B686B
:10478C00012283F82420786800F07CFA0346FB733E
:10479C00FB7B002B09D17B689B6A23F4885323F0A5
:1047AC00010343F001027B689A627B68002283F864
:1047BC002420FB7B18461037BD4680BD90B587B0D2
:1047CC0000AF7860396000237B610023FB6000231D
:1047DC003B61FFF713FE78617B681B689B6803F4F1
:1047EC008073002B0BD07B689B6A43F020027B68A4
:1047FC009A627B68002283F824200123D3E07B6833
:10480C001B685B6803F48073002B31D17B681B68D9
:10481C00DB6A03F47003002B2AD121E03B68B3F16F
:10482C00FF3F1DD03B68002B07D0FFF7E7FD02468A
:10483C007B69D31A3A689A4212D27B681B681B6850
:10484C0003F00203002B0BD17B689B6A43F004023C
:10485C007B689A627B68002283F824200323A2E001
:10486C007B681B681B6803F00203002BD6D070E03A
:10487C004F4B1C68022003F06BFE0346B4FBF3F2B3
:10488C007B681B6819694B4B0B40002B18D17B685C
:10489C001B68D968484B0B40002B11D17B681B68F7
:1048AC001969464B0B40002B08D17B681B68D968F3
:1048BC00434B0B40002B01D1142320E029231EE095
:1048CC007B681B6819693D4B0B40002B06D17B683C
:1048DC001B68D9683A4B0B40002B0DD07B681B68CA
:1048EC001969384B0B40002B08D17B681B68D968C1
:1048FC00344B0B40002B01D1542300E0FC2302FB72
:10490C0003F33B6121E03B68B3F1FF3F1AD03B68F6
:10491C00002B07D0FFF772FD02467B69D31A3A6869
:10492C009A420FD2FB683A699A420BD97B689B6A10
:10493C0043F004027B689A627B68002283F824208F
:10494C00032330E0FB680133FB60FB683A699A4251
:10495C00D9D87B681B686FF012021A607B689B6A5F
:10496C0043F400727B689A627B681B689B6803F453
:10497C006023B3F5602F15D17B681B7B002B11D105
:10498C007B689B6A23F480727B689A627B689B6A63
:10499C0003F48053002B05D17B689B6A43F0010222
:1049AC007B689A62002318461C37BD4690BD00BF39
:1049BC001C0000202449922424499200922449127C
:1049CC00922449004992240080B483B000AF7860EF
:1049DC007B681B68DB6C18460C37BD4680BC704787
:1049EC0080B485B000AF786039600023FB7300237E
:1049FC00BB607B6893F82430012B01D10223DCE0EF
:104A0C007B68012283F824203B685B68062B1CD84A
:104A1C007B681B68596B3B685A6813469B001344B0
:104A2C00053B1F2202FA03F3DB4319403B6818686D
:104A3C003B685A6813469B001344053B00FA03F28B
:104A4C007B681B680A435A633CE03B685B680C2B31
:104A5C001CD87B681B68196B3B685A6813469B0013
:104A6C001344233B1F2202FA03F3DB4319403B6838
:104A7C0018683B685A6813469B001344233B00FAA2
:104A8C0003F27B681B680A431A631BE07B681B6894
:104A9C00D96A3B685A6813469B001344413B1F225A
:104AAC0002FA03F3DB4319403B6818683B685A6809
:104ABC0013469B001344413B00FA03F27B681B68CE
:104ACC000A43DA623B681B68092B1CD97B681B689C
:104ADC00D9683B681A6813465B0013441E3B0722D7
:104AEC0002FA03F3DB4319403B6898683B681A6889
:104AFC0013465B0013441E3B00FA03F27B681B68F1
:104B0C000A43DA6019E07B681B6819693B681A680C
:104B1C0013465B001344072202FA03F3DB431940EC
:104B2C003B6898683B681A6813465B00134400FAAC
:104B3C0003F27B681B680A431A613B681B68102BE5
:104B4C0003D03B681B68112B32D17B681B681D4A54
:104B5C00934225D17B681B689B6803F40003002BF0
:104B6C0026D17B681B689A687B681B6842F400023C
:104B7C009A603B681B68102B1AD1134B1B68134AA5
:104B8C00A2FB03239A0C13469B0013445B00BB60EF
:104B9C0002E0BB68013BBB60BB68002BF9D107E0AE
:104BAC007B689B6A43F020027B689A620123FB734B
:104BBC007B68002283F82420FB7B18461437BD4603
:104BCC0080BC7047002401401C00002083DE1B4386
:104BDC0080B584B000AF78600023FB600023BB601D
:104BEC007B681B689B6803F00103012B40D07B683A
:104BFC001B689A687B681B6842F001029A601F4B25
:104C0C001B681F4AA2FB03239B0CBB6002E0BB6822
:104C1C00013BBB60BB68002BF9D1FFF7EFFBF860E1
:104C2C001FE0FFF7EBFB0246FB68D31A022B18D9E7
:104C3C007B681B689B6803F00103012B11D07B6818
:104C4C009B6A43F010027B689A627B68DB6A43F0D4
:104C5C0001027B68DA627B68002283F8242001233E
:104C6C0007E07B681B689B6803F00103012BD8D11C
:104C7C00002318461037BD4680BD00BF1C00002025
:104C8C0083DE1B4380B584B000AF78600023FB60EB
:104C9C007B681B689B6803F00103012B2ED17B689A
:104CAC001B689A687B681B6822F001029A60FFF708
:104CBC00A5FBF8601BE0FFF7A1FB0246FB68D31ACB
:104CCC00022B14D97B681B689B6803F00103012B32
:104CDC000DD17B689B6A43F010027B689A627B68FB
:104CEC00DB6A43F001027B68DA62012307E07B6830
:104CFC001B689B6803F00103012BDCD000231846D2
:104D0C001037BD4680BD000090B587B000AF78600D
:104D1C000023FB750023FB607B6893F82430012B88
:104D2C0001D1022397E07B68012283F82420786864
:104D3C00FFF7A8FF0346FB757868FFF749FF0346AA
:104D4C00FB75FB7D002B40F081807B689B6A23F414
:104D5C00885323F0020343F002027B689A62404BB3
:104D6C001C68022003F0F4FB0346B4FBF3F35B0076
:104D7C00FB6002E0FB68013BFB60FB68002BF9D198
:104D8C007B681B689A687B681B6842F008029A6013
:104D9C00FFF734FB38611BE0FFF730FB02463B6941
:104DAC00D31A0A2B14D97B681B689B6803F0080381
:104DBC00002B0DD07B689B6A23F0120343F010028A
:104DCC007B689A627B68002283F82420012342E0EE
:104DDC007B681B689B6803F00803002BDCD17B68A5
:104DEC001B689A687B681B6842F004029A60FFF7A4
:104DFC0005FB38611BE0FFF701FB02463B69D31A48
:104E0C000A2B14D97B681B689B6803F00403002BE6
:104E1C000DD07B689B6A23F0120343F010027B6871
:104E2C009A627B68002283F82420012313E07B68BC
:104E3C001B689B6803F00403002BDCD17B689B6A26
:104E4C0023F0030343F001027B689A627B68002223
:104E5C0083F82420FB7D18461C37BD4690BD00BF4F
:104E6C001C00002080B485B000AF78607B6803F034
:104E7C000703FB600C4BDB68BB60BA684FF6FF03A3
:104E8C001340BB60FB681A02BB68134343F0BF635B
:104E9C0043F40033BB60044ABB68D36000BF1437D3
:104EAC00BD4680BC704700BF00ED00E080B400AF91
:104EBC00044BDB681B0A03F007031846BD4680BC95
:104ECC00704700BF00ED00E080B483B000AF034634
:104EDC00FB7197F90730002B0BDBFB7903F01F02FA
:104EEC00064997F907305B09012000FA02F241F8F4
:104EFC00232000BF0C37BD4680BC704700E100E0AA
:104F0C0080B483B000AF03463960FB7197F907306A
:104F1C00002B0ADB3B68DAB20C4997F90730120117
:104F2C00D2B20B4483F800230AE03B68DAB208499A
:104F3C00FB7903F00F03043B1201D2B20B441A7637
:104F4C0000BF0C37BD4680BC704700BF00E100E0DD
:104F5C0000ED00E080B489B000AFF860B9607A6011
:104F6C00FB6803F00703FB61FB69C3F10703042B28
:104F7C0028BF0423BB61FB690433062B02D9FB69F0
:104F8C00033B00E000237B614FF0FF32BB6902FA68
:104F9C0003F3DA43BB681A407B699A404FF0FF3148
:104FAC007B6901FA03F3D9437B680B401343184622
:104FBC002437BD4680BC704780B582B000AF7860A6
:104FCC007B68013BB3F1807F01D301230FE00A4AD8
:104FDC007B68013B53600F214FF0FF30FFF790FFD0
:104FEC00054B00229A60044B07221A6000231846D6
:104FFC000837BD4680BD00BF10E000E080B582B030
:10500C0000AF78607868FFF72DFF00BF0837BD460A
:10501C0080BD80B586B000AF0346B9607A60FB7383
:10502C0000237B61FFF742FF78617A68B968786981
:10503C00FFF790FF024697F90F3011461846FFF71D
:10504C005FFF00BF1837BD4680BD80B582B000AF92
:10505C000346FB7197F907301846FFF735FF00BF81
:10506C000837BD4680BD80B582B000AF78607868E7
:10507C00FFF7A2FF034618460837BD4680BD000067
:10508C0080B485B000AF78600023FB607B68002B98
:10509C0001D1012343E07B681B681A46224B134461
:1050AC00224AA2FB03231B099A007B681A647B68C3
:1050BC001F4ADA637B68022283F821207B681B6815
:1050CC001B68FB60FB6823F47F5323F03003FB6009
:1050DC007B685A687B689B681A437B68DB681A4359
:1050EC007B681B691A437B685B691A437B689B6905
:1050FC001A437B68DB691343FA681343FB607B68D4
:10510C001B68FA681A607B6800229A637B6801222C
:10511C0083F821207B68002283F820200023184686
:10512C001437BD4680BC7047F8FFFDBFCDCCCCCC4E
:10513C000000024080B586B000AFF860B9607A60BC
:10514C003B600023FB75FB6893F82030012B01D1E9
:10515C0002234BE0FB68012283F82020FB6893F8C4
:10516C002130DBB2012B3AD1FB68022283F82120DB
:10517C00FB6800229A63FB681B681A68FB681B6853
:10518C0022F001021A603B687A68B968F86800F08E
:10519C0037F9FB68DB6A002B08D0FB681B681A68C0
:1051AC00FB681B6842F00E021A600FE0FB681B687C
:1051BC001A68FB681B6822F004021A60FB681B6803
:1051CC001A68FB681B6842F00A021A60FB681B68CD
:1051DC001A68FB681B6842F001021A6005E0FB6864
:1051EC00002283F820200223FB75FB7D184618371C
:1051FC00BD4680BD80B584B000AF78607B68DB6B4A
:10520C001B68FB607B681B681B68BB607B681B6C46
:10521C0004229A40FB681340002B4FD0BB6803F06C
:10522C000403002B4AD07B681B681B6803F0200327
:10523C00002B07D17B681B681A687B681B6822F0FF
:10524C0004021A607B681B68664A934229D07B680B
:10525C001B68654A934222D07B681B68634A934261
:10526C001AD07B681B68624A934212D07B681B6819
:10527C00604A93420AD07B681B685F4A934202D112
:10528C004FF480030EE04FF080630BE04FF480236B
:10529C0008E04FF4804305E04FF4806302E04023C4
:1052AC0000E00423554A53607B68DB6A002B00F056
:1052BC0094807B68DB6A786898478EE07B681B6C0F
:1052CC0002229A40FB681340002B56D0BB6803F0B7
:1052DC000203002B51D07B681B681B6803F0200372
:1052EC00002B0BD17B681B681A687B681B6822F04B
:1052FC000A021A607B68012283F821207B681B68F4
:10530C00384A934229D07B681B68374A934222D093
:10531C007B681B68354A93421AD07B681B68344AF9
:10532C00934212D07B681B68324A93420AD07B6846
:10533C001B68314A934202D14FF400130EE04FF038
:10534C0000730BE04FF4003308E04FF4005305E01A
:10535C004FF4007302E0202300E00223274A53603D
:10536C007B68002283F820207B689B6A002B34D05A
:10537C007B689B6A786898472FE07B681B6C0822D7
:10538C009A40FB681340002B28D0BB6803F008033D
:10539C00002B23D07B681B681A687B681B6822F083
:1053AC000E021A607B681A6C7B68DB6B012101FAB8
:1053BC0002F25A607B6801229A637B68012283F8AF
:1053CC0021207B68002283F820207B681B6B002B3C
:1053DC0004D07B681B6B7868984700BF00BF103700
:1053EC00BD4680BD080002401C0002403000024057
:1053FC0044000240580002406C0002400000024091
:10540C0080B485B000AFF860B9607A603B60FB682F
:10541C001A6CFB68DB6B012101FA02F25A60FB6823
:10542C001B683A685A60FB685B68102B08D1FB68F4
:10543C001B687A689A60FB681B68BA68DA6007E0D8
:10544C00FB681B68BA689A60FB681B687A68DA604C
:10545C0000BF1437BD4680BC7047000080B48BB0D1
:10546C0000AF7860396000237B6200233B6269E106
:10547C0001227B6A02FA03F3FB613B681B68FA6941
:10548C001340BB61BA69FB699A4240F058813B6892
:10549C005B689A4A93425ED0984A934275D8984A70
:1054AC00934258D0964A93426FD8964A934252D020
:1054BC00944A934269D8944A93424CD0924A93426C
:1054CC0063D8924A934246D0904A93425DD8122BAD
:1054DC002AD8122B59D801A252F823F06355000890
:1054EC003D5500084F550008915500089755000888
:1054FC0097550008975500089755000897550008D0
:10550C0097550008975500089755000897550008BF
:10551C0097550008975500089755000897550008AF
:10552C004555000859550008794A934213D02CE090
:10553C003B68DB683B6229E03B68DB6804333B6219
:10554C0024E03B68DB6808333B621FE03B68DB68A8
:10555C000C333B621AE03B689B68002B02D104239E
:10556C003B6213E03B689B68012B05D108233B622F
:10557C007B68FA691A6109E008233B627B68FA6967
:10558C005A6103E000233B6200E000BFBB69FF2BC4
:10559C0001D87B6801E07B6804337B61BB69FF2B1E
:1055AC0002D87B6A9B0002E07B6A083B9B003B6154
:1055BC007B691A680F213B6901FA03F3DB431A403C
:1055CC00396A3B6901FA03F31A437B691A603B6839
:1055DC005B6803F08053002B00F0B1804D4B9B694E
:1055EC004C4A43F0010393614A4B9B6903F001035E
:1055FC00BB60BB68484A7B6A9B08023352F8233075
:10560C00FB607B6A03F003039B000F2202FA03F397
:10561C00DB43FA681340FB607B68404A934213D02B
:10562C007B683F4A93420DD07B683E4A934207D039
:10563C007B683D4A934201D1032306E0042304E036
:10564C00022302E0012300E000237A6A02F0030245
:10565C0092009340FA681343FB602F497B6A9B08C6
:10566C000233FA6841F823203B685B6803F480132B
:10567C00002B06D02D4B9A682C49BB6913438B60C9
:10568C0006E02A4B9A68BB69DB43284913408B60C0
:10569C003B685B6803F40013002B06D0234BDA68DD
:1056AC002249BB691343CB6006E0204BDA68BB6927
:1056BC00DB431E491340CB603B685B6803F400334B
:1056CC00002B06D0194B5A681849BB6913434B6021
:1056DC0006E0164B5A68BB69DB43144913404B6018
:1056EC003B685B6803F48033002B21D00F4B1A68A6
:1056FC000E49BB6913430B6021E000BF0000321060
:10570C0000003110000022100000211000001210C7
:10571C000000111000100240000001400008014080
:10572C00000C014000100140001401400004014035
:10573C000B4B1A68BB69DB43094913400B607B6A4E
:10574C0001337B623B681A687B6A22FA03F3002BF5
:10575C007FF48EAE00BF00BF2C37BD4680BC7047B7
:10576C000004014080B485B000AF78600B467B80AC
:10577C007B689A687B881340002B02D00123FB7353
:10578C0001E00023FB73FB7B18461437BD4680BC3D
:10579C00704780B483B000AF78600B467B801346B3
:1057AC007B707B78002B03D07A887B681A6103E0CE
:1057BC007B881A047B681A6100BF0C37BD4680BC1D
:1057CC007047000080B584B000AF78607B68002B18
:1057DC0001D101232BE17B6893F83D30DBB2002B28
:1057EC0006D17B68002283F83C207868FEF72EFCFB
:1057FC007B68242283F83D207B681B681A687B68D1
:10580C001B6822F001021A607B681B681A687B68AF
:10581C001B6842F400421A607B681B681A687B683C
:10582C001B6822F400421A6002F096FDF8607B6857
:10583C005B68814A934207D8FB68804A934294BFC5
:10584C0001230023DBB206E0FB687D4A934294BF40
:10585C0001230023DBB2002B01D00123E7E0FB681E
:10586C00784AA2FB03239B0CBB607B681B685B68BC
:10587C0023F03F017B681B68BA680A435A607B6857
:10588C001B681B6A23F03F017B685B686A4A934282
:10589C0002D8BB68013309E0BB684FF4967202FB77
:1058AC0003F3694AA2FB03239B0901337A6812684C
:1058BC000B4313627B681B68DB6923F44F4222F0B5
:1058CC00FF027B685B685C498B4219D8FB68591EE8
:1058DC007B685B685B00B1FBF3F3591C40F6FC730F
:1058EC000B40002B0AD0FB68591E7B685B685B0081
:1058FC00B1FBF3F30133C3F30B0351E004234FE08B
:10590C007B689B68002B11D1FB68581E7B6859681B
:10591C000B465B000B44B0FBF3F30133C3F30B03F7
:10592C00002B0CBF01230023DBB212E0FB68581ED6
:10593C007B6859680B469B000B4499000B44B0FBE9
:10594C00F3F30133C3F30B03002B0CBF0123002330
:10595C00DBB2002B01D0012322E07B689B68002B7B
:10596C000ED1FB68581E7B6859680B465B000B44D4
:10597C00B0FBF3F30133C3F30B0343F400430FE029
:10598C00FB68581E7B6859680B469B000B449900BA
:10599C000B44B0FBF3F30133C3F30B0343F4404369
:1059AC00796809681343CB617B681B681B6823F01B
:1059BC00C0017B68DA697B681B6A1A437B681B68C9
:1059CC000A431A607B681B689B6823F4034323F02B
:1059DC00FF037A6811697A68D26811437A68126891
:1059EC000B4393607B681B68DB6823F0FF017B68CB
:1059FC005A697B689B691A437B681B680A43DA60A7
:105A0C007B681B681A687B681B6842F001021A608D
:105A1C007B6800221A647B68202283F83D207B6817
:105A2C0000221A637B68002283F83E20002318466C
:105A3C001037BD4680BD00BFA08601007F841E00CC
:105A4C00FF083D0083DE1B43D34D621080B588B048
:105A5C0002AFF8607A601A460B467B8113463B8195
:105A6C00FEF7CCFC7861FB6893F83D30DBB2202B61
:105A7C0040F0E0807B690093192301227049F8689B
:105A8C0000F064F90346002B01D00223D3E0FB683D
:105A9C0093F83C30012B01D10223CCE0FB680122AE
:105AAC0083F83C20FB681B681B6803F00103012B87
:105ABC0007D0FB681B681A68FB681B6842F0010280
:105ACC001A60FB681B681A68FB681B6822F400628A
