:020000040800F2
:1000000000500020DD310008ED300008F33000081A
:10001000F9300008FF30000805310008000000003A
:100020000000000000000000000000000B3100088C
:100030001731000800000000233100082F310008AC
:100040002532000825320008253200082532000834
:100050002532000825320008253200082532000824
:100060002532000825320008253200082532000814
:100070002532000825320008253200083D310008ED
:1000800025320008253200082532000825320008F4
:1000900051310008253200082532000825320008B9
:1000A00025320008253200082532000825320008D4
:1000B00025320008253200082532000825320008C4
:1000C00025320008253200082532000825320008B4
:1000D00025320008253200082532000825320008A4
:1000E00025320008253200082532000800000000F3
:1000F0000000000000000000000000000000000000
:0C01000000000000000000005FF808F1A3
:10010C0010B5054C237833B9044B13B10448AFF345
:10011C0000800123237010BDDC01002000000000D2
:10012C002CDE000808B5034B1BB103490348AFF3A1
:10013C00008008BD00000000E00100202CDE00085B
:10014C0010F8012B11F8013B012A28BF9A42F7D075
:10015C00D01A7047034613F8012B002AFBD1181A4A
:10016C000138704780B582B000AF03F0AFF838604B
:10017C000023FB7122E0FB79144A32F81330194644
:10018C00134804F057FA0346002B01D1012100E07B
:10019C000021FB790F4AD154FA79FB790D49895C1E
:1001AC000D4AD154FB790D493A6841F82320FB796B
:1001BC000B4A0021D154FB790133FB71FB79052BE0
:1001CC00D9D900BF00BF0837BD4680BD14E1000877
:1001DC00000C014000020020F80100200802002061
:1001EC002002002080B584B000AF03F06FF8B86037
:1001FC000023FB733CE0FB7B214A32F81330194699
:10020C00204804F017FA0346002B01D1012300E02B
:10021C000023FB71FB7B1C4AD35CFA799A4208D011
:10022C00FB7B1949FA79CA54FB7B1849BA6841F827
:10023C002320FB7B154A52F82330BA68D31A042BBF
:10024C0013D9FB7B124AD35CBB71FB7B1049FA7947
:10025C00CA54BB79002B08D1FB7B0D4AD35C012B14
:10026C0003D1FB7B0B4A0121D154FB7B0133FB7384
:10027C00FB7B052BBFD900BF00BF1037BD4680BD2F
:10028C0014E10008000C01400002002008020020CC
:10029C00F80100202002002080B483B000AF034698
:1002AC00FB71FB79052B01D9002302E0FB79034A92
:1002BC00D35C18460C37BD4680BC7047F801002053
:1002CC0080B485B000AF0346FB71FB79052B01D9D7
:1002DC00002308E0FB79064AD35CFB73FB79044AE4
:1002EC000021D154FB7B18461437BD4680BC7047A7
:1002FC002002002080B584B000AF78600B467B8074
:10030C000023FB6015E07B88194678680BF0FAFF38
:10031C000346002B11D00023BB6002E0BB68013305
:10032C00BB60BB6842F20F729342F7DDFB6801338E
:10033C00FB60FB68632BE6DD00E000BF1037BD46B9
:10034C0080BD80B582B000AF78600B467B807B8827
:10035C00194678680BF0D6FF00BF0837BD4680BD44
:10036C0080B582B000AF4FF48072002114480CF0BD
:10037C0007FC0A22002113480CF002FC124B00224D
:10038C001A80124B00221A70114B00221A7002F0C4
:10039C009DFF786000E000BF02F098FF02467B688A
:1003AC00D31AB3F5167FF6D31C210A48FFF7A2FF28
:1003BC00074B00221A7000BF0837BD4680BD00BF36
:1003CC00280200202C0300202803002036030020E4
:1003DC003703002044DE000880B59CB002AF786083
:1003EC00396000237B6636E27A687B6E13441B7897
:1003FC0087F84B3097F84B300D2B00F0288297F88C
:10040C004B300A2B40F00F82934B1B881A46934BB0
:10041C000021995492499148FFF792FE0346002B14
:10042C0012D1904B01221A708F4B14221A7002F0C9
:10043C004DFF03468D4A13601C218D48FFF75AFF70
:10044C008C4B01221A70EAE112228B4983480CF082
:10045C00ACFB0346002B47D1884B3B6602E03B6E5E
:10046C0001333B663B6E1B78202BF8D03B6E1B7820
:10047C00222B34D13B6E01333B662221386E0CF0BB
:10048C0087FBF862FB6A002B29D0FB6A00221A70EA
:10049C003B6EBB62FB6A01333B6602E03B6E013391
:1004AC003B663B6E1B782C2BF8D03B6E1B78202BBD
:1004BC00F4D03B6E1B78222B11D13B6E01333B6683
:1004CC002221386E0CF064FB78627B6A002B06D01C
:1004DC007B6A00221A70396EB86A02F0D9F80521CD
:1004EC006748FFF707FF9AE10B2266495B480CF05F
:1004FC005CFB0346002B40F06181634B7B647B6C9F
:10050C00FB65002387F85B3045E17C21F86D0CF02E
:10051C003FFB38643B6C002B02D03B6C00221A7002
:10052C003A21F86D0CF034FBF863FB6B002B00F0F8
:10053C002A81FB6B00221A70FB6DBB63FB6B0133D2
:10054C007B6300237B657B6B3B650123FB643B6D0D
:10055C001B782D2B13D14FF0FF33FB643B6D013314
:10056C003B650CE07A6D13469B0013445B00194607
:10057C003B6D5A1C3A651B78303B0B447B653B6DDD
:10058C001B782F2B03D93B6D1B78392BEAD97B6D4C
:10059C00FA6C02FB03F37B653C49B86BFFF7D0FDAB
:1005AC000346002B08D17B6DDBB2184602F012FA21
:1005BC00012387F85B30E6E03549B86BFFF7C0FDE7
:1005CC000346002B08D17B6DDBB2184602F05CFAB7
:1005DC00012387F85B30D6E02E49B86BFFF7B0FDEE
:1005EC000346002B08D17B6DDBB2184602F014FADF
:1005FC00012387F85B30C6E02749B86BFFF7A0FDF5
:10060C000346002B08D17B6DDBB2184602F058FA7A
:10061C00012387F85B30B6E02049B86BFFF790FDFB
:10062C000346002B08D17B6DDBB2184602F010FAA2
:10063C00012387F85B30A6E01949B86BFFF780FD02
:10064C000346002B2ED17B6DDBB2184602F054FA18
:10065C00012387F85B3096E0280300202802002055
:10066C0064DE0008370300203D030020380300201F
:10067C0044DE00083C03002084DE00083A0200201F
:10068C0098DE0008A0DE000833020020ACDE000873
:10069C00B0DE0008B4DE0008B8DE0008BCDE0008DE
:1006AC00C0DE0008BB6B1B78532B34D1BB6B013302
:1006BC001B78432B2FD1BB6B02331B78302B2AD9E1
:1006CC00BB6B02331B78352B25D8BB6B02331B78E5
:1006DC00313B87F8333000233B620023FB6100235E
:1006EC00BB6107F11C0107F1200207F1180300930D
:1006FC000B465E49786B0CF017FA3B6AD9B2FB6972
:10070C00DAB2BB69DBB297F8330002F01BFA0123B3
:10071C0087F85B3037E0BB6B1B78422B33D1BB6B5C
:10072C0001331B78432B2ED1BB6B02331B78302B40
:10073C0029D9BB6B02331B78362B24D8BB6B023305
:10074C001B78313B87F8323000237B6100233B61FF
:10075C000023FB6007F1100107F1140207F10C03F1
:10076C0000930B464149786B0CF0DEF97B69D9B2EA
:10077C003B69DAB2FB68DBB297F8320002F01CFA84
:10078C00012387F85B303B6C002B02D03B6C0133B0
:10079C0000E00023FB65FB6D002B04D0FB6D1B7888
:1007AC00002B7FF4B2AE97F85B30002B01D002F037
:1007BC003DFA05212E48FFF79DFD30E02D492E48CE
:1007CC00FFF7BEFC0346002B07D12C4B00221A70FE
:1007DC0005212748FFF78EFD21E029492648FFF720
:1007EC00AFFC0346002B03D1264B01221A7016E0F6
:1007FC0025492148FFF7A4FC0346002B04D12521F1
:10080C002248FFF777FD0AE021491B48FFF798FCC7
:10081C000346002B03D105211548FFF76BFD1D4B3B
:10082C0000221A8014E01B4B1B88FE2B0BD8194B93
:10083C001B885A1C91B2174A118019460E4A97F818
:10084C004B30535404E0134B00221A8000E000BFDD
:10085C007B6E01337B667A6E3B689A42FFF4C4ADC3
:10086C0000BF00BF6837BD4680BD00BFC4DE0008B6
:10087C0098DE0008D0DE0008280200203703002094
:10088C00E0DE00083C030020ECDE000820E100085C
:10089C00F8DE00082803002090B58FB002AF786016
:1008AC000B46FB708A4B1B78002B00F00B81894B9D
:1008BC001B78002B1BD1002387F82F300FE097F803
:1008CC002F305B007A681A4497F82F301188824ACF
:1008DC0022F8131097F82F30013387F82F3097F840
:1008EC002F20FB789A42EAD37A4B01221A707B4B69
:1008FC001B78002B7CD0002387F82E30002387F840
:10090C002D3061E097F82D30754A32F81330BB84E6
:10091C0097F82D305B007A6813441B887B847A8CA3
:10092C00BB8C9A4204D37A8CBB8CD31A9BB203E057
:10093C00BA8C7B8CD31A9BB23B843B8C022B02D996
:10094C00012387F82E3097F82D30634A32F8133094
:10095C007A8C9A4208D397F82D305F4A32F81330CC
:10096C007A8CD31A9BB207E097F82D305A4A32F89A
:10097C0013207B8CD31A9BB2FB83FB8B0E2B1ED9C3
:10098C0097F82D3054497A8C21F813207B8C6422F3
:10099C0002FB03F39B0ABB6107F10800BB69514AD8
:1009AC0010210CF08DF897F82D30184601F0A8FFA7
:1009BC00024607F108031946104600F019FC97F897
:1009CC002D30013387F82D3097F82D20FB789A4283
:1009DC0098D3454B1B78002B06D0434B1B78013B1F
:1009EC00DAB2414B1A7003E097F82E30002B6BD023
:1009FC000023BB62002387F8273026E097F82730C6
:100A0C00002B05D0BB6A5A1CBA62384A7C21D154DF
:100A1C00BB6A364A9818BB6AC3F5007197F8273041
:100A2C005C1C97F827305B007A6813441B88009392
:100A3C0023462F4A0CF044F80246BB6A1344BB62AF
:100A4C0097F82730013387F8273097F82720FB7861
:100A5C009A4203D2BB6AB3F5F87FCFDBBB6A5A1C50
:100A6C00BA62224A0D21D154BB6A5A1CBA621F4A7F
:100A7C000A21D1541D4ABB6A134400221A70002368
:100A8C0087F826300FE097F826305B007A681A4416
:100A9C0097F826301188124A22F8131097F826304E
:100AAC00013387F8263097F82620FB789A42EAD350
:100ABC000A4B01221A70BB6A9BB219460B48FFF70E
:100ACC0040FC02E000BF00E000BF3437BD4690BDE3
:100ADC00370300203E030020400300203603002093
:100AEC002C03002004DF00083D0300204C030020F1
:100AFC000CDF000880B58AB000AF0346FB71114BC8
:100B0C001B78002B1AD0FB79184601F02BFF0346FB
:100B1C000D49184600F06CFBFB79013307F10C0012
:100B2C000A4A18210BF0CCFF78627B6A9AB207F163
:100B3C000C0311461846FFF7DDFB00E000BF283719
:100B4C00BD4680BD370300201CDF000820DF0008F5
:100B5C0080B584B000AF78607868FFF7FBFA034685
:100B6C00FB81FB89002B05D0FB8919467868FFF7C0
:100B7C00C1FB00E000BF1037BD4680BD80B582B020
:100B8C0000AF02F0A3FB7860124B1B78002B0DD04A
:100B9C00114B1B687A68D31A47F22F52934205D92E
:100BAC000D4A7B6813600D48FFF7D2FF0C4B1B7886
:100BBC00002B04D00A4B00221A7001F061FE01F0E8
:100BCC0057FD044B1B78184600F0E6FA00BF0837B7
:100BDC00BD4680BD370300203803002030DF0008FD
:100BEC003C03002080B500AF00F030FC01F016FD96
:100BFC0000F0BEF80346002B01D100F093FA01F08F
:100C0C0009F802F013F802F089F8FFF7ABFAFFF7D6
:100C1C00A7FB02F05BFB0346014A136000BF80BDDB
:100C2C004C05002080B584B000AFFFF7A7FF00F0A3
:100C3C0019FBFFF7D7FA0023FB730023BB7311E0FA
:100C4C00BB7B1846FFF728FB0346002B07D0BB7B6A
:100C5C00012202FA03F3DAB2FB7B1343FB73BB7B77
:100C6C000133BB73BB7B052BEAD9FB7B184601F028
:100C7C0083F800237B730DE07B7B1846FFF720FB8A
:100C8C000346002B03D07B7B1846FFF733FF7B7B9F
:100C9C0001337B737B7B052BEED901F07DF802F0E1
:100CAC0015FBB860154B1B68BA68D31A092B21D9F0
:100CBC00124ABB68136002F03BF802F0B7F8786098
:100CCC0000233B730CE03B7B5B007A6813441A886F
:100CDC003B7B1146184601F019F83B7B01333B7303
:100CEC003B7B042BEFD902F097F8034605211846FD
:100CFC00FFF7D2FD00BF1037BD4680BD4C0500206C
:100D0C0080B586B002AF0346FB7100233B73FB79C1
:100D1C007B7307F10C0232230093022378210448E1
:100D2C0003F0FCFD034618461037BD4680BD00BFDE
:100D3C00C810002080B586B002AF03460A46FB718E
:100D4C001346BB7100233B73FB797B73BB79BB737D
:100D5C0007F10C023223009303237821034803F09C
:100D6C00DDFD034618461037BD4680BDC810002077
:100D7C0080B586B002AF0A2002F0B2FA134BFB60CA
:100D8C00134BBB6014E000233B71FB685A1CFA60E8
:100D9C001B787B713A1D32230093022378210D4876
:100DAC0003F0BCFD0346002B02D04FF0FF3308E0EC
:100DBC00FA68BB689A42E6D300F00EF800F018F817
:100DCC00002318461037BD4680BD00BF24E3000841
:100DDC003DE30008C810002080B500AF4FF48062DE
:100DEC00002102480BF0CCFE00BF80BD5005002056
:100DFC0080B5A4B002AF00212120FFF79BFF7F201C
:100E0C00FFF77EFF00212220FFF794FF0720FFF75A
:100E1C0077FF002387F8873019E040233B7197F860
:100E2C008730DB010E4A99183B1D0133802218468E
:100E3C000BF014FF3A1D6423009381237821094899
:100E4C0003F06CFD97F88730013387F8873097F8FB
:100E5C008730072BE1D900BF00BF8837BD4680BD66
:100E6C0050050020C810002080B485B000AF0346A8
:100E7C00FB710B46BB7113467B717B791F2B02D91F
:100E8C007B797E2B01D93F237B71BB79072B32D821
:100E9C007B79203BDBB21A4613469B001344184A5D
:100EAC001344BB600023FB7315E0FA79FB7B1344FE
:100EBC007F2B0DDCFB7BBA68D118BA79F879FB7BF8
:100ECC00034408780F49D2010A44134402461A70AD
:100EDC00FB7B0133FB73FB7B042BE6D9FB797A2B71
:100EEC000AD8BA79FB7905330649D2010A4413446E
:100EFC0000221A7000E000BF1437BD4680BC70475A
:100F0C0048E100085005002080B582B000AF0346D0
:100F1C003A60FB710B46BB710BE03B685A1C3A60A4
:100F2C001A78B979FB791846FFF79EFFFB790633DF
:100F3C00FB713B681B78002B03D097F90730002B13
:100F4C00EBDA00BF0837BD4680BD000080B487B027
:100F5C0000AF0346FB710B46BB7113467B717B796B
:100F6C001F2B02D97B797E2B01D93F237B71BB7957
:100F7C00062B00F2AB807B79203BDBB21A46134682
:100F8C009B001344544A1344FB600023FB756DE033
:100F9C00FB7DFA6813441B78FB720023BB82002391
:100FAC00FB7415E0FA7AFB7C42FA03F303F00103BD
:100FBC00002B0AD0FB7C5B00032202FA03F31AB26B
:100FCC00B7F9143013431BB2BB82FB7C0133FB74A7
:100FDC00FB7C072BE6D9FA79FB7D5B0013447F2B56
:100FEC001CDCBA79F979FB7D5B000B44B98AC8B279
:100FFC003A49D2010A44134402461A70BB8A1B0AAE
:10100C0098B2BB795A1CF979FB7D5B000B44C0B2DA
:10101C003249D2010A44134402461A70FA79FB7D14
:10102C005B0013447E2B1EDCBA79F979FB7D5B00E7
:10103C000B440133B98AC8B22849D2010A4413447B
:10104C0002461A70BB8A1B0A98B2BB795A1CF979F2
:10105C00FB7D5B000B440133C0B22049D2010A4432
:10106C00134402461A70FB7D0133FB75FB7D042B88
:10107C008ED9FB79752B12D8BA79FB790A331749BB
:10108C00D2010A44134400221A70BB795A1CFB7912
:10109C000A331249D2010A44134400221A70FB7914
:1010AC00742B14D8BA79FB790B330C49D2010A444E
:1010BC00134400221A70BB795A1CFB790B33074975
:1010CC00D2010A44134400221A7000E000BF1C37FE
:1010DC00BD4680BC704700BF48E1000850050020A9
:1010EC0080B582B000AF03463A60FB710B46BB7112
:1010FC000BE03B685A1C3A601A78B979FB791846B0
:10110C00FFF724FFFB790C33FB713B681B78002B3A
:10111C0003D097F90730002BEBDA00BF0837BD4638
:10112C0080BD000080B584B000AFFFF755FE184BB2
:10113C00FB600923FB72FB7A1A46520013445B00D6
:10114C00BB72BB7AC3F180035B087B727B7AFA6853
:10115C0003211846FFF7D8FE0E4B7B600F23FB7064
:10116C00FB781A46520013445B00BB70BB78C3F18A
:10117C0080035B087B707B787A6805211846FFF743
:10118C00C3FEFFF735FE00BF1037BD4680BD00BF64
:10119C0038DF000844DF000880B582B000AF03469A
:1011AC00FB71FB79002B0AD10E4B1B78002B15D051
:1011BC000C4B00221A700C4B01221A700EE0094BDA
:1011CC001B78002B0AD1074B01221A7002F07EF813
:1011DC000346064A1360044B01221A7000BF0837FD
:1011EC00BD4680BD5009002000000020540900209D
:1011FC0080B582B000AF786039607B68002B05D079
:10120C001F22796812480BF0E2FC02E0104B00221E
:10121C001A703B68002B05D00F2239680D480BF073
:10122C00D6FC02E00B4B00221A7002F04FF803467A
:10123C00094A1360094B1B78032B02D0074B03227E
:10124C001A70074B01221A7000BF0837BD4680BDCB
:10125C005C0900207C09002058090020500900205E
:10126C000000002080B588B000AF02F02FF8786144
:10127C00514B1B78012B0ED1504B1B687A69D31A3A
:10128C0041F28732934217D94B4B02221A704C4BC6
:10129C0001221A7010E0484B1B78032B0CD1494BE0
:1012AC001B687A69D31AB3F5FA6F05D3424B022245
:1012BC001A70434B01221A70414B1B78002B76D0CD
:1012CC003F4B00221A703C4B1B78002B09D1FFF7C7
:1012DC0083FD3D4A03211C20FFF716FEFFF788FD16
:1012EC0065E0354B1B78012B09D1FFF775FD374AAB
:1012FC0003212520FFF708FEFFF77AFD57E02E4B60
:10130C001B78022B02D1FFF70DFF50E02A4B1B7804
:10131C00032B4CD1FFF760FD2D48FEF71BFF034656
:10132C003B613B69002B18DD3A6913465B001344A3
:10133C009B00FB60FB68C3F18003DA0F13445B1066
:10134C00FB61FB69002B01DA0023FB61FB69DBB25B
:10135C001F4A02211846FFF7C3FE1E48FEF7FAFE8D
:10136C000346BB60BB68002B1FDDBA6813465B00ED
:10137C0013445B007B607B68C3F18003DA0F13447A
:10138C005B10BB61BB69002B01DA0023BB613B69BD
:10139C00002B01DD052300E00323FB70BB69DBB2EE
:1013AC00F9780C4A1846FFF7AFFDFFF721FD00BF97
:1013BC002037BD4680BD00BF5009002054090020D5
:1013CC00000000205809002058DF000868DF0008E2
:1013DC007C0900205C09002080B582B000AF034678
:1013EC00FB7100220121094803F03BF9F91D64232C
:1013FC000122074806F04EF901220121034803F0AF
:10140C0030F900BF0837BD4680BD00BF000C01405D
:10141C001C11002080B584B000AF78607B681B0C79
:10142C00DBB23B737B681B0ADBB27B737B68DBB282
:10143C00BB7307F10C0164230322034806F02AF95D
:10144C0000BF1037BD4680BD1C11002080B582B096
:10145C0000AF01220121104803F003F9012001F033
:10146C003FFF0E4B1B88BB800023BB713B1D1846F6
:10147C0000F016F83B79FF2B08D17B79FF2B05D1B7
:10148C00BB79FF2B02D14FF0FF3300E0002318464D
:10149C000837BD4680BD00BF000C014074DF00085A
:1014AC0080B584B000AF78609F23FB7300220121CC
:1014BC000C4803F0D6F807F10F01642301220A4807
:1014CC0006F0E8F8642303227968074806F026FA48
:1014DC0001220121034803F0C4F800BF1037BD46B8
:1014EC0080BD00BF000C01401C11002080B582B0F3
:1014FC0000AF0523FB710023BB71002201210E48B4
:10150C0003F0AFF8F91D642301220C4806F0C2F871
:10151C00B91D64230122094806F000FA01220121B9
:10152C00054803F09EF8BB7903F00103DBB21846C3
:10153C000837BD4680BD00BF000C01401C110020C7
:10154C0080B500AF02E0012001F0CAFEFFF7CEFF2C
:10155C000346002BF7D100BF00BF80BD80B586B01D
:10156C0000AFF860B9601346FB800323FB750022C3
:10157C0001210E4803F075F807F1170164230122CD
:10158C000B4806F087F8F868FFF744FFFA884FF429
:10159C00FA73B968064806F0C1F901220121034823
:1015AC0003F05FF800BF1837BD4680BD000C01404A
:1015BC001C11002080B586B000AFF860B9601346EE
:1015CC00FB800620FFF708FF00220121104803F0E2
:1015DC0048F80223FB7507F11701642301220D481B
:1015EC0006F058F8F868FFF715FFFA884FF4FA730D
:1015FC00B968084806F04EF801220121044803F0AE
:10160C0030F8FFF79DFF00BF1837BD4680BD00BF07
:10161C00000C01401C11002080B584B000AF786034
:10162C000620FFF7D9FE002201210D4803F019F81E
:10163C002023FB7307F10F0164230122094806F0F4
:10164C0029F87868FFF7E6FE01220121044803F02F
:10165C0008F8FFF775FF00BF1037BD4680BD00BF0F
:10166C00000C01401C11002080B485B000AF002399
:10167C00FB6037E00023BB602EE0BB685B00C3F16E
:10168C000703FA6842FA03F3DBB203F00103FB71C0
:10169C00BB68C3F103035B00FA6842FA03F3DBB2E5
:1016AC0003F00103BB71FB79002B01D0E02200E0B9
:1016BC008022BB79002B01D00E2300E008231343BA
:1016CC00D9B20D4AFB689B001A44BB6813440A4606
:1016DC001A70BB680133BB60BB68032BCDDDFB68A4
:1016EC000133FB60FB68FF2BC4DD00BF00BF143768
:1016FC00BD4680BC704700BF4C0C002080B483B04A
:10170C0000AF0346FB71FB79074A127802FB03F327
:10171C001A46064BA3FB02235B09DBB218460C37B7
:10172C00BD4680BC704700BF0C0000201F85EB51EC
:10173C0080B588B000AF0023FB7740E1FB7FDB0076
:10174C00BB72A74B1B78002B29D10023BB7722E05F
:10175C00BA7ABB7F1A44A34913465B0013440B446B
:10176C0000221A70BA7ABB7F1A449E4913465B005A
:10177C0013440B44013300221A70BA7ABB7F1A440B
:10178C00984913465B0013440B44023300221A7031
:10179C00BB7F0133BB77BB7F072BD9D90CE1FB7F18
:1017AC00914AD35C002B09D1FB7F904AD35C002B70
:1017BC0004D1FB7F8E4AD35C002B0CD0FB7F8A4A72
:1017CC00D35C7B77FB7F894AD35C3B77FB7F884A72
:1017DC00D35CFB7614E0FB7F864AD35C1A46134637
:1017EC005B001344844A13447B607B681B787B77D3
:1017FC007B6801331B783B777B6802331B78FB7665
:10180C007B7F1846FFF77AFF03467B773B7F1846B2
:10181C00FFF774FF03463B77FB7E1846FFF76EFF1E
:10182C000346FB766E4B1B78022B29D10023BB762B
:10183C0022E0BA7ABB7E1A446A4913465B00134411
:10184C000B447A7F1A70BA7ABB7E1A4465491346E8
:10185C005B0013440B4401333A7F1A70BA7ABB7E97
:10186C001A44604913465B0013440B440233FA7E5E
:10187C001A70BB7E0133BB76BB7E072BD9D99BE09C
:10188C00FB7F5E4A32F813305B0A9BB27B76FB7FA0
:10189C005A4A32F81330C3F308037B807B7E082B43
:1018AC0001D908237B7600233B7681E03A7E7B7E50
:1018BC009A4220D2BA7A3B7E1A444A4913465B00BC
:1018CC0013440B447A7F1A70BA7A3B7E1A4445490A
:1018DC0013465B0013440B4401333A7F1A70BA7AF7
:1018EC003B7E1A443F4913465B0013440B440233BE
:1018FC00FA7E1A7059E03A7E7B7E9A4235D17B7E15
:10190C00072B32D87B7F7A8802FB03F3590ABA7A09
:10191C003B7E1A44C8B2334913465B0013440B4454
:10192C0002461A703B7F7A8802FB03F3590ABA7A93
:10193C003B7E1A44C8B22B4913465B0013440B443C
:10194C00013302461A70FB7E7A8802FB03F3590AB4
:10195C00BA7A3B7E1A44C8B2224913465B00134440
:10196C000B44023302461A701FE0BA7A3B7E1A44CB
:10197C001C4913465B0013440B4400221A70BA7ABC
:10198C003B7E1A44174913465B0013440B44013346
:10199C0000221A70BA7A3B7E1A44124913465B0035
:1019AC0013440B44023300221A703B7E01333B7606
:1019BC003B7E072B7FF67AAFFB7F0133FB77FB7FF8
:1019CC00042B7FF6BBAE0023FB750AE1FB7D1A46A8
:1019DC0052001344DBB22833BB740023BB75F9E00F
:1019EC000D0000208C0900205C10002064100020E9
:1019FC006C1000205410002040E300088C100020D4
:101A0C00FB7D1A4652001344DAB2BB7D13447B743F
:101A1C007B7C052B1BD87B7C764AD35C002B09D1B5
:101A2C007B7C754AD35C002B04D17B7C734AD35CE2
:101A3C00002B0CD07B7C6F4AD35C7B757B7C6E4A15
:101A4C00D35C3B757B7C6D4AD35CFB7415E0FB7DF2
:101A5C0005336B4AD35C1A4613465B001344694A40
:101A6C001344FB60FB681B787B75FB6801331B78A8
:101A7C003B75FB6802331B78FB747B7D1846FFF7C4
:101A8C003DFE03467B753B7D1846FFF737FE03464C
:101A9C003B75FB7C1846FFF731FE0346FB745A4B33
:101AAC001B781A467B7C42FA03F3DBB203F001038A
:101ABC00FB72564B1B78002B20D1BA7CBB7D1A4491
:101ACC00534913465B0013440B4400221A70BA7C32
:101ADC00BB7D1A444E4913465B0013440B4401333F
:101AEC0000221A70BA7CBB7D1A44494913465B002C
:101AFC0013440B44023300221A7068E0434B1B78EA
:101B0C00022B20D1BA7CBB7D1A44414913465B00A1
:101B1C0013440B447A7D1A70BA7CBB7D1A443C4941
:101B2C0013465B0013440B4401333A7D1A70BA7CA4
:101B3C00BB7D1A44364913465B0013440B440233F5
:101B4C00FA7C1A7043E0FB7A002B20D0BA7CBB7D68
:101B5C001A442F4913465B0013440B447A7D1A70C8
:101B6C00BA7CBB7D1A442A4913465B0013440B44D0
:101B7C0001333A7D1A70BA7CBB7D1A442449134652
:101B8C005B0013440B440233FA7C1A701FE0BA7CDE
:101B9C00BB7D1A441E4913465B0013440B440022C0
:101BAC001A70BA7CBB7D1A44194913465B00134466
:101BBC000B44013300221A70BA7CBB7D1A441449C1
:101BCC0013465B0013440B44023300221A70BB7D96
:101BDC000133BB75BB7D022B7FF612AFFB7D01334E
:101BEC00FB75FB7D012B7FF6F1AE00BF00BF2037EC
:101BFC00BD4680BD741000207C1000208410002095
:101C0C005410002040E30008961000200E00002025
:101C1C008C09002080B582B000AFFFF725FD8A2229
:101C2C0000212A480AF0ACFF40F232220021284859
:101C3C000AF0A6FF0A22002126480AF0A1FF05227D
:101C4C00002125480AF09CFF0522002123480AF0B8
:101C5C0097FF0522002122480AF092FF062200215C
:101C6C0020480AF08DFF062200211F480AF088FF49
:101C7C00062200211D480AF083FF1D4B00221A701A
:101C8C001C4B00221A701C4B01221A700023FB7192
:101C9C0007E0FB79174A1178184AD154FB790133C4
:101CAC00FB71FB79062BF4D9154B00221A70154BDE
:101CBC0000221A60144B00221A7000F0DFF8012089
:101CCC0001F00EFB00BF0837BD4680BD8C0900201B
:101CDC00180A00208C1000205C10002064100020DA
:101CEC006C100020741000207C1000208410002048
:101CFC00961000204D1000204E1000205410002093
:101D0C004C100020501000204F10002080B485B0E3
:101D1C0000AF03460A46FB711346BB80FB79042BCC
:101D2C0021D8BB88B3F5805F02D340F6FF73BB802C
:101D3C00FB79104A32F81330BB81BA88BB89D31AAD
:101D4C009BB2FB81B7F90E30002B03DAFB895B42A7
:101D5C009BB2FB81FB890C2B07D9FB790549BA880F
:101D6C0021F8132002E000BF00E000BF1437BD468D
:101D7C0080BC70478C10002080B483B000AF034649
:101D8C00FB71044AFB79137000BF0C37BD4680BC55
:101D9C00704700BF9610002080B582B000AF01F0F4
:101DAC0095FA78602D4B1B78002B02D0012B12D0AA
:101DBC0045E02B4B1B687A68D21A2A4B1B689A4257
:101DCC0041D3264B01221A70274B00221A70244A49
:101DDC007B68136037E0224B1B687A68D21A234B5E
:101DEC001B689A4231D31E4B1A68204B1B68134454
:101DFC001B4A13601C4B1B781A461D4B19781D4B44
:101E0C009954194B1B780133DAB2174B1A70164BD5
:101E1C001B78062B19D9164B1A78174B1A70144BC2
:101E2C001B780133DBB203F00703DAB2104B1A70E4
:101E3C000A4B00221A700A4A7B68136005E0074BB4
:101E4C0000221A7002E000BF00E000BFFFF770FC38
:101E5C0000F014F800BF0837BD4680BD4C100020C0
:101E6C0050100020040000204F100020080000201B
:101E7C004E100020541000204D10002080B582B070
:101E8C0000AF00BF274806F0D8F80346012BF9D164
:101E9C00254B7B600023FB7037E0FA78234913460F
:101EAC005B0013440B4401331B789B00204A134402
:101EBC001B681A467B681A607B6804337B60FA786F
:101ECC001A4913465B0013440B441B789B00184AB9
:101EDC0013441B681A467B681A607B6804337B606A
:101EEC00FA78124913465B0013440B4402331B78F7
:101EFC009B000F4A13441B681A467B681A607B6868
:101F0C0004337B60FB780133FB70FB782D2BC4D939
:101F1C0040F232220449034805F0C2FF00BF0837E3
:101F2C00BD4680BD74110020180A00208C090020C9
:101F3C004C0C002080B483B000AF0346FB71FB79DE
:101F4C00642B01D96423FB71034AFB79137000BF26
:101F5C000C37BD4680BC70470C00002080B483B0A9
:101F6C0000AF0346FB71FB79002B01D10123FB7100
:101F7C00FB790A2B01D90A23FB71FB7940F6B832A5
:101F8C00B2FBF3F30A4A1360FB79FA22B2FBF3F3C8
:101F9C00DBB21A46074B1A60064B1B68092B02D89A
:101FAC00044B0A221A6000BF0C37BD4680BC704738
:101FBC00040000200800002080B483B000AF03466A
:101FCC00FB71044AFB79137000BF0C37BD4680BC13
:101FDC00704700BF0D00002080B483B000AF0346F3
:101FEC00FB71044AFB79137000BF0C37BD4680BCF3
:101FFC00704700BF0E00002080B483B000AF0346D2
:10200C00FB71044AFB79137000BF0C37BD4680BCD2
:10201C00704700BF8A10002080B483B000AF034625
:10202C00FB71044AFB79137000BF0C37BD4680BCB2
:10203C00704700BF8B10002090B482B000AF0446F4
:10204C00084611461A462346FB710346BB710B46E4
:10205C007B7113463B71FB79042B0CD8FB79084937
:10206C00BA79CA54FB7907497A79CA54FB7906497B
:10207C003A79CA5400E000BF0837BD4690BC70479F
:10208C005C100020641000206C10002090B482B012
:10209C0000AF0446084611461A462346FB71034618
:1020AC00BB710B467B7113463B71FB79052B0CD82E
:1020BC00FB790849BA79CA54FB7907497A79CA5429
:1020CC00FB7906493A79CA5400E000BF0837BD468F
:1020DC0090BC7047741000207C10002084100020ED
:1020EC0080B500AF01F09AF800F013F800F066F933
:1020FC0000F046F900F0AAF800F0D6F800F068F805
:10210C0000F008F90AF03AF8FEF76CFDFEF78AFDCC
:10211C00FCE780B594B000AF07F12803282200211A
:10212C0018460AF02DFD07F1140300221A605A60BC
:10213C009A60DA601A613B1D00221A605A609A603C
:10214C00DA600123BB624FF48033FB624FF400333F
:10215C003B630123BB6302237B644FF48033BB647A
:10216C004FF48013FB6407F12803184604F090FC2D
:10217C000346002B01D000F077F90F237B6102237B
:10218C00BB610023FB614FF480633B6200237B62E5
:10219C0007F114030121184604F0FCFE0346002B42
:1021AC0001D000F061F912237B604FF48043FB6097
:1021BC004FF480033B613B1D184605F07BF803464A
:1021CC00002B01D000F050F900BF5037BD4680BD48
:1021DC0080B584B000AF3B1D00221A605A609A6033
:1021EC00184B194A1A60174B00229A60154B0022A3
:1021FC001A73144B00221A75124B4FF46022DA61D9
:10220C00104B00225A600F4B01221A610D4801F04D
:10221C008BF80346002B01D000F026F900237B60DD
:10222C000123BB600023FB603B1D1946054801F0F0
:10223C003FFB0346002B01D000F016F900BF10370E
:10224C00BD4680BD981000200024014080B500AF31
:10225C00124B134A1A60114B124A5A600F4B002250
:10226C009A600E4B0022DA600C4B4FF480421A61DC
:10227C000A4B00225A61094B00229A61074B00223B
:10228C00DA61064B00221A62044802F003FA034694
:10229C00002B01D000F0E8F800BF80BDC810002072
:1022AC0000540040A086010080B500AF174B184ABF
:1022BC001A60164B4FF482725A60144B00229A60CB
:1022CC00124B0022DA60114B00221A610F4B0022D4
:1022DC005A610E4B4FF400729A610C4B0822DA6172
:1022EC000A4B00221A62094B00225A62074B002249
:1022FC009A62064B0A22DA62044805F047F9034653
:10230C00002B01D000F0B0F800BF80BD1C110020E4
:10231C000030014080B500AF174B184A1A60164BBD
:10232C004FF482725A60144B00229A60124B0022B6
:10233C00DA60114B00221A610F4B00225A610E4BCE
:10234C004FF400729A610C4B1022DA610A4B002296
:10235C001A62094B00225A62074B00229A62064B02
:10236C000A22DA62044805F011F90346002B01D069
:10237C0000F07AF800BF80BD7411002000380040D6
:10238C0080B582B000AF0C4B5B690B4A43F0010384
:10239C005361094B5B6903F001037B607B6800228E
:1023AC0000210F2001F09DFD0F2001F0B6FD00BFB4
:1023BC000837BD4680BD00BF0010024080B588B014
:1023CC0000AF07F1100300221A605A609A60DA60BD
:1023DC00234B9B69224A43F020039361204B9B695A
:1023EC0003F02003FB60FB681D4B9B691C4A43F008
:1023FC00040393611A4B9B6903F00403BB60BB6835
:10240C00174B9B69164A43F008039361144B9B6965
:10241C0003F008037B607B6801220121114802F064
:10242C0020F901233B6101237B610023BB61022363
:10243C00FB6107F1100319460A4801F077FF40F6DB
:10244C001E433B6100237B610123BB6107F1100339
:10245C001946044801F06AFF00BF2037BD4680BD15
:10246C0000100240000C014080B400AF72B600BFF7
:10247C00FEE7000080B582B000AFDA22002151489F
:10248C000AF07EFB4F4B504A07CA03C31A704F4BDE
:10249C004F4A07CA03C31A704E4B4F4A07CA03C3AD
:1024AC001A704E4B4E4A07CA03C31A704D4B4E4A14
:1024BC0007CA03C31A704D4B4D4A07CA03C31A709F
:1024CC004C4B4D4A07CA03C31A704C4B4C4A07CAB3
:1024DC0003C31A704B4B4C4A07CA03C31A704B4BBD
:1024EC004B4A07CA03C31A704A4B4B4A07CA03C369
:1024FC001A70344B502283F8B020324B002283F8F0
:10250C00B120304B002283F8B2202E4B012283F8ED
:10251C00B3202C4B012283F8B4202A4B052283F8DC
:10252C00B5200023FB711DE0FA79264913465B00A8
:10253C0013440B44B63300221A70FA79214913461E
:10254C005B0013440B44B7333D221A70FA791D49D2
:10255C0013465B0013440B44B8333D221A70FB79CD
:10256C000133FB71FB79042BDED90023BB711DE019
:10257C00BA79144913465B0013440B44C5333D220E
:10258C001A70BA790F4913465B0013440B44C633D7
:10259C0014221A70BA790B4913465B0013440B448E
:1025AC00C73300221A70BB790133BB71BB79052B81
:1025BC00DED9044B4AF25B52A3F8D82000BF08378F
:1025CC00BD4680BD1012002078DF000820120020CC
:1025DC0084DF00083012002090DF00084012002039
:1025EC009CDF000850120020A8DF000860120020B9
:1025FC00B4DF000870120020C0DF00088012002039
:10260C00CCDF000890120020D8DF0008A0120020B8
:10261C00E4DF0008B0120020F0DF000880B500AF46
:10262C0000F002F800BF80BD80B500AFDA22084987
:10263C000020FEF793FF064BB3F8D8304AF25B52FA
:10264C00934203D0FFF716FF00F004F800BF80BDE3
:10265C001012002080B500AF0020FEF7DDFFDA225B
:10266C0002490020FEF7A6FF00BF80BD101200201B
:10267C0080B500AF054B1B78002B04D0034B002218
:10268C001A70FFF7E7FF00BF80BD00BFEA12002001
:10269C0080B588B000AF786039600023FB7707F114
:1026AC000C030F22396818460AF091FA0023FB76C6
:1026BC005C497868FDF744FD0346002B08D107F10F
:1026CC000C03194658480AF0C1FA0123FB779EE027
:1026DC0056497868FDF734FD0346002B08D107F105
:1026EC000C03194652480AF0B1FA0123FB778EE02D
:1026FC0050497868FDF724FD0346002B08D107F1FB
:10270C000C0319464C480AF0A1FA0123FB777EE032
:10271C004A497868FDF714FD0346002B08D107F1F0
:10272C000C03194646480AF091FA0123FB776EE038
:10273C0044497868FDF704FD0346002B08D107F1E6
:10274C000C03194640480AF081FA0123FB775EE03E
:10275C003E497868FDF7F4FC0346002B08D107F1DD
:10276C000C0319463A480AF071FA0123FB774EE044
:10277C0038497868FDF7E4FC0346002B08D107F1D3
:10278C000C03194634480AF061FA0123FB773EE04A
:10279C0032497868FDF7D4FC0346002B08D107F1C9
:1027AC000C0319462E480AF051FA0123FB772EE050
:1027BC002C497868FDF7C4FC0346002B08D107F1BF
:1027CC000C03194628480AF041FA0123FB771EE056
:1027DC0026497868FDF7B4FC0346002B08D107F1B5
:1027EC000C03194622480AF031FA0123FB770EE05C
:1027FC0020497868FDF7A4FC0346002B07D107F1AC
:10280C000C0319461C480AF021FA0123FB77FB7FC5
:10281C00002B02D0194B01221A7000BF2037BD4685
:10282C0080BD00BF78DF00081012002084DF000894
:10283C002012002090DF0008301200209CDF0008DE
:10284C0040120020A8DF000850120020B4DF00085E
:10285C0060120020C0DF000870120020CCDF0008DE
:10286C0080120020D8DF000890120020E4DF00085E
:10287C00A0120020F0DF0008B0120020EA120020A5
:10288C0080B5ADF50A7D0AAF3846114B0993114B53
:10289C000893114B0793114B0693114B0593114B56
:1028AC000493114B0393114B0293114B0193114B56
:1028BC000093114B114A4FF400710AF001F93B4699
:1028CC001846FEF745F900BF07F50077BD4680BDF9
:1028DC00B0120020A01200209012002080120020C4
:1028EC0070120020601200205012002040120020B4
:1028FC00301200202012002010120020FCDF0008F3
:10290C0080B483B000AF0346FB71FB79042B17D85E
:10291C0001A252F823F000BF392900083D29000814
:10292C00412900084529000849290008074B08E0FF
:10293C00074B06E0074B04E0074B02E0074B00E0B7
:10294C00074B18460C37BD4680BC70471012002050
:10295C0020120020301200204012002050120020C3
:10296C00BCE0000880B483B000AF0346FB71FB7978
:10297C00052B1BD801A252F823F000BFA129000897
:10298C00A5290008A9290008AD290008B1290008CB
:10299C00B5290008084B0AE0084B08E0084B06E094
:1029AC00084B04E0084B02E0084B00E0084B1846CB
:1029BC000C37BD4680BC704760120020701200209E
:1029CC008012002090120020A0120020B0120020D3
:1029DC00BCE0000880B483B000AF0346FB71FB7908
:1029EC00642B01D96423FB71094B93F8B030FA794D
:1029FC009A4207D0064AFB7982F8B030054B012287
:102A0C001A7000E000BF0C37BD4680BC704700BF99
:102A1C0010120020EA12002080B483B000AF0346ED
:102A2C00FB71094B93F8B130FA799A4207D0064AF8
:102A3C00FB7982F8B130054B01221A7000E000BF1F
:102A4C000C37BD4680BC704710120020EA120020E3
:102A5C0080B483B000AF0346FB71094B93F8B230DE
:102A6C00FA799A4207D0064AFB7982F8B230054BC4
:102A7C0001221A7000E000BF0C37BD4680BC7047C5
:102A8C0010120020EA12002080B483B000AF03467D
:102A9C00FB71094B93F8B330FA799A4207D0064A86
:102AAC00FB7982F8B330054B01221A7000E000BFAD
:102ABC000C37BD4680BC704710120020EA12002073
:102ACC0080B483B000AF0346FB71094B93F8B4306C
:102ADC00FA799A4207D0064AFB7982F8B430054B52
:102AEC0001221A7000E000BF0C37BD4680BC704755
:102AFC0010120020EA12002080B483B000AF03460D
:102B0C00FB71FB79002B01D10123FB71FB790A2BA3
:102B1C0001D90A23FB71094B93F8B530FA799A4223
:102B2C0007D0064AFB7982F8B530054B01221A70A2
:102B3C0000E000BF0C37BD4680BC7047101200206F
:102B4C00EA12002090B482B000AF04460846114649
:102B5C001A462346FB710346BB710B467B71134629
:102B6C003B71FB79042B1ED8FA79114913465B0093
:102B7C0013440B44B633BA791A70FA790C491346DC
:102B8C005B0013440B44B7337A791A70FA7908490D
:102B9C0013465B0013440B44B8333A791A70054B57
:102BAC0001221A7000E000BF0837BD4690BC704788
:102BBC0010120020EA12002090B482B000AF04463C
:102BCC00084611461A462346FB710346BB710B4659
:102BDC007B7113463B71FB79052B1ED8FA79114991
:102BEC0013465B0013440B44C533BA791A70FA7957
:102BFC000C4913465B0013440B44C6337A791A70A4
:102C0C00FA79084913465B0013440B44C7333A79ED
:102C1C001A70054B01221A7000E000BF0837BD4640
:102C2C0090BC704710120020EA12002090B583B0BF
:102C3C0000AF394B93F8B0301846FFF77BF9364BA1
:102C4C0093F8B5301846FFF789F9334B93F8B33046
:102C5C001846FFF7B1F9304B93F8B4301846FFF72C
:102C6C00BBF92D4B93F8B1301846FFF7C5F92A4B39
:102C7C0093F8B2301846FFF7CFF90023FB711EE032
:102C8C00FA79254913465B0013440B44B633197883
:102C9C00FA79214813465B0013440344B7331C787C
:102CAC00FA791D4813465B0013440344B8331B7870
:102CBC00F8792246FFF7C0F9FB790133FB71FB79F8
:102CCC00042BDDD90023BB711EE0BA7912491346DF
:102CDC005B0013440B44C5331978BA790E4813467C
:102CEC005B0013440344C6331C78BA790A48134674
:102CFC005B0013440344C7331B78B8792246FFF7B3
:102D0C00C5F9BB790133BB71BB79052BDDD900BF8C
:102D1C0000BF0C37BD4690BD1012002080B500AF2F
:102D2C00024800F059FF00BF80BD00BF9810002082
:102D3C0080B586B000AF3B1D00221A605A609A60C5
:102D4C000123BB600723FB600023FB754FE0FB7D79
:102D5C002C4A52F823307B603B1D19462A4800F060
:102D6C00A7FD294800F0B8FB0A21274800F08EFC8B
:102D7C000346002B35D1244800F08EFD3861234BDF
:102D8C001B78002B06D0FB7D3A6991B2204A22F8C1
:102D9C00131010E0FB7D1E4A32F813301A4613460E
:102DAC005B0013441A463B6913449A08FB7D91B2AD
:102DBC00174A22F81310FB7D154A32F813309B0882
:102DCC00BB82FB7D124A32F8133040F6FB72934201
:102DDC0002D94FF48063BB82FB7D0E49BA8A21F87D
:102DEC001320094800F026FCFB7D0133FB75FB7DAD
:102DFC00042BACD9054B00221A7000BF1837BD4606
:102E0C0080BD00BF58E30008981000200F00002080
:102E1C00F8120020EC12002080B400AF024B1846D0
:102E2C00BD4680BC704700BFEC12002080B400AFE0
:102E3C00024B1846BD4680BC704700BFF8120020FC
:102E4C0080B485B000AF154B9B69144A43F0010365
:102E5C009361124B9B6903F00103BB60BB680F4B82
:102E6C00DB690E4A43F08053D3610C4BDB6903F0F2
:102E7C0080537B607B680A4B5B68FB60FB6823F0CC
:102E8C00E063FB60FB6843F00073FB60044AFB6883
:102E9C00536000BF1437BD4680BC70470010024021
:102EAC000000014080B588B000AF786007F11003D6
:102EBC0000221A605A609A60DA607B681B68144AB8
:102ECC00934221D1134B9B69124A43F400739361D3
:102EDC00104B9B6903F40073FB60FB680D4B9B6903
:102EEC000C4A43F0040393610A4B9B6903F00403FF
:102EFC00BB60BB681F233B6103237B6107F110039D
:102F0C001946054801F012FA00BF2037BD4680BDB6
:102F1C0000240140001002400008014080B588B038
:102F2C0000AF786007F1100300221A605A609A60B3
:102F3C00DA607B681B68154A934223D1144B9B695A
:102F4C00134A43F008039361114B9B6903F0080388
:102F5C00FB60FB68C0233B6112237B610323FB6195
:102F6C0007F1100319460B4801F0E0F9084BDB6937
:102F7C00074A43F40013D361054BDB6903F40013D8
:102F8C00BB60BB6800BF2037BD4680BD005400400D
:102F9C0000100240000C014080B58AB000AF786090
:102FAC0007F1180300221A605A609A60DA607B6895
:102FBC001B68444A934230D1434B9B69424A43F4C9
:102FCC0080539361404B9B6903F480537B617B6915
:102FDC003D4B9B693C4A43F0040393613A4B9B691C
:102FEC0003F004033B613B69A023BB610223FB613B
:102FFC0003237B6207F118031946344801F096F954
:10300C004023BB610023FB6100233B6207F11803E3
:10301C0019462E4801F08AF94FE07B681B682C4A50
:10302C0093424AD1284BDB69274A43F48043D3614E
:10303C00254BDB6903F48043FB60FB68224B9B69E7
:10304C00214A43F0080393611F4B9B6903F008036B
:10305C00BB60BB684FF42043BB610223FB610323BD
:10306C007B6207F1180319461A4801F05FF91A4BF5
:10307C001A4A1A60184B10225A60174B00229A6099
:10308C00154B8022DA60144B00221A61124B00227D
:10309C005A61114B00229A610F4B0022DA610E48E3
:1030AC0000F056FF0346002B01D0FFF7DDF97B68DB
:1030BC00094A9A64084A7B68536200BF2837BD46A8
:1030CC0080BD00BF003001400010024000080140EC
:1030DC0000380040000C0140CC1100205800024088
:1030EC0080B400AFFEE780B400AFFEE780B400AF61
:1030FC00FEE780B400AFFEE780B400AFFEE780B41B
:10310C0000AF00BFBD4680BC704780B400AF00BFAD
:10311C00BD4680BC704780B400AF00BFBD4680BCCC
:10312C00704780B500AF00F0BFF800BF80BD000055
:10313C0080B500AF024800F0C5FF00BF80BD00BFE6
:10314C00CC11002080B500AF024802F05BF800BF44
:10315C0080BD00BFD41F002080B586B000AF786062
:10316C00144A154BD31A7B617B693B61134B1B686B
:10317C00002B02D1114B124A1A60104B1A687B6853
:10318C0013443A699A4207D209F034FD03460C22E3
:10319C001A604FF0FF3309E0084B1B68FB60074BCC
:1031AC001A687B681344054A1360FB681846183785
:1031BC00BD4680BD00500020000400000413002018
:1031CC001826002080B400AF00BFBD4680BC7047FD
:1031DC00FFF7F8FF0B480C490C4A002302E0D458C7
:1031EC00C4500433C4188C42F9D3094A094C002347
:1031FC0001E013600432A242FBD309F001FDFEF79B
:10320C006FFF704700000020DC01002004E500087F
:10321C00DC01002014260020FEE7000080B500AF82
:10322C00084B1B68074A43F010031360032000F09F
:10323C004DFE0F2000F008F8FFF702FE00231846A1
:10324C0080BD00BF0020024080B582B000AF786026
:10325C00124B1A68124B1B7819464FF47A73B3FB56
:10326C00F1F3B2FBF3F3184600F065FE0346002BB6
:10327C0001D001230EE07B680F2B0AD8002279685D
:10328C004FF0FF3000F02DFE064A7B6813600023E0
:10329C0000E0012318460837BD4680BD1000002011
:1032AC00180000201400002080B400AF054B1B78E0
:1032BC001A46054B1B681344034A136000BFBD46F6
:1032CC0080BC7047180000200813002080B400AFA9
:1032DC00024B1B681846BD4680BC70470813002083
:1032EC0080B584B000AF7860FFF7F0FFB8607B6802
:1032FC00FB60FB68B3F1FF3F05D00A4B1B781A4605
:10330C00FB681344FB6000BFFFF7E0FF0246BB689D
:10331C00D31AFA689A42F7D800BF00BF1037BD46DF
:10332C0080BD00BF1800002080B586B000AF78606B
:10333C000023FB7500233B610023BB600023FB6073
:10334C007B68002B01D10123BEE07B689B68002BBE
:10335C007B689B6A002B09D17B680022DA627B6850
:10336C00002283F824207868FFF79CFD786800F031
:10337C00F1FB0346FB757B689B6A03F01003002B83
:10338C0040F09980FB7D002B40F095807B689B6A18
:10339C0023F4885323F0020343F002027B689A6201
:1033AC007B685A687B68DB691A437B681B7B5B0014
:1033BC001343BA681343BB607B689B68B3F5807F8B
:1033CC0003D07B689B68012B02D14FF4807300E023
:1033DC0000233A6913433B617B681B7D012B19D198
:1033EC007B681B7B002B09D17B689B69013B5A03D3
:1033FC003B69134343F400633B610BE07B689B6ABE
:10340C0043F020027B689A627B68DB6A43F001021E
:10341C007B68DA627B681B685B6823F469417B68B4
:10342C001B683A690A435A607B681B689A68284B88
:10343C0013407A681268B9680B4393607B689B6889
:10344C00B3F5807F03D07B689B68012B04D17B682C
:10345C001B69013B1B05FB607B681B68DB6A23F463
:10346C0070017B681B68FA680A43DA627B681B6828
:10347C009A68184B1340BA689A420BD17B680022A9
:10348C00DA627B689B6A23F0030343F001027B68DA
:10349C009A6218E07B689B6A23F0120343F01002D7
:1034AC007B689A627B68DB6A43F001027B68DA62B4
:1034BC000123FB7507E07B689B6A43F010027B6875
:1034CC009A620123FB75FB7D18461837BD4680BDFB
:1034DC00FDF7E1FFFE0E1FFF80B584B000AF7860F2
:1034EC000023FB737B6893F82430012B01D102235A
:1034FC0098E07B68012283F82420786800F0D0FAE9
:10350C000346FB73FB7B002B40F087807B689B6A38
:10351C0023F4407323F0010343F480727B689A62B6
:10352C007B681B68414A934205D1414B5B6803F4AD
:10353C007023002B15D17B689B6A23F480127B6867
:10354C009A627B681B685B6803F48063002B26D04F
:10355C007B689B6A23F4405343F480527B689A62E5
:10356C001DE07B689B6A43F480127B689A627B68DF
:10357C001B682F4A934204D07B681B682B4A9342EA
:10358C000DD12B4B5B6803F48063002B07D07B6859
:10359C009B6A23F4405343F480527B689A627B68A5
:1035AC009B6A03F48053002B06D07B68DB6A23F004
:1035BC0006027B68DA6202E07B680022DA627B68D2
:1035CC00002283F824207B681B686FF002021A60CB
:1035DC007B681B689B6803F46023B3F5602F13D1E1
:1035EC007B681B68114A934205D1114B5B6803F44D
:1035FC007023002B08D17B681B689A687B681B685A
:10360C0042F4A0029A600CE07B681B689A687B68A5
:10361C001B6842F480129A6003E07B68002283F8F6
:10362C002420FB7B18461037BD4680BD0028014086
:10363C000024014080B584B000AF78600023FB7398
:10364C007B6893F82430012B01D102231AE07B68AC
:10365C00012283F82420786800F07CFA0346FB737F
:10366C00FB7B002B09D17B689B6A23F4885323F0E6
:10367C00010343F001027B689A627B68002283F8A5
:10368C002420FB7B18461037BD4680BD90B587B013
:10369C0000AF7860396000237B610023FB6000235E
:1036AC003B61FFF713FE78617B681B689B6803F432
:1036BC008073002B0BD07B689B6A43F020027B68E5
:1036CC009A627B68002283F824200123D3E07B6874
:1036DC001B685B6803F48073002B31D17B681B681B
:1036EC00DB6A03F47003002B2AD121E03B68B3F1B1
:1036FC00FF3F1DD03B68002B07D0FFF7E7FD0246CC
:10370C007B69D31A3A689A4212D27B681B681B6891
:10371C0003F00203002B0BD17B689B6A43F004027D
:10372C007B689A627B68002283F824200323A2E042
:10373C007B681B681B6803F00203002BD6D070E07B
:10374C004F4B1C68022003F06BFE0346B4FBF3F2F4
:10375C007B681B6819694B4B0B40002B18D17B689D
:10376C001B68D968484B0B40002B11D17B681B6838
:10377C001969464B0B40002B08D17B681B68D96834
:10378C00434B0B40002B01D1142320E029231EE0D6
:10379C007B681B6819693D4B0B40002B06D17B687D
:1037AC001B68D9683A4B0B40002B0DD07B681B680B
:1037BC001969384B0B40002B08D17B681B68D96802
:1037CC00344B0B40002B01D1542300E0FC2302FBB3
:1037DC0003F33B6121E03B68B3F1FF3F1AD03B6838
:1037EC00002B07D0FFF772FD02467B69D31A3A68AB
:1037FC009A420FD2FB683A699A420BD97B689B6A52
:10380C0043F004027B689A627B68002283F82420D0
:10381C00032330E0FB680133FB60FB683A699A4292
:10382C00D9D87B681B686FF012021A607B689B6AA0
:10383C0043F400727B689A627B681B689B6803F494
:10384C006023B3F5602F15D17B681B7B002B11D146
:10385C007B689B6A23F480727B689A627B689B6AA4
:10386C0003F48053002B05D17B689B6A43F0010263
:10387C007B689A62002318461C37BD4690BD00BF7A
:10388C0010000020244992242449920092244912C9
:10389C00922449004992240080B483B000AF786030
:1038AC007B681B68DB6C18460C37BD4680BC7047C8
:1038BC0080B485B000AF786039600023FB730023BF
:1038CC00BB607B6893F82430012B01D10223DCE030
:1038DC007B68012283F824203B685B68062B1CD88C
:1038EC007B681B68596B3B685A6813469B001344F2
:1038FC00053B1F2202FA03F3DB4319403B681868AF
:10390C003B685A6813469B001344053B00FA03F2CC
:10391C007B681B680A435A633CE03B685B680C2B72
:10392C001CD87B681B68196B3B685A6813469B0054
:10393C001344233B1F2202FA03F3DB4319403B6879
:10394C0018683B685A6813469B001344233B00FAE3
:10395C0003F27B681B680A431A631BE07B681B68D5
:10396C00D96A3B685A6813469B001344413B1F229B
:10397C0002FA03F3DB4319403B6818683B685A684A
:10398C0013469B001344413B00FA03F27B681B680F
:10399C000A43DA623B681B68092B1CD97B681B68DD
:1039AC00D9683B681A6813465B0013441E3B072218
:1039BC0002FA03F3DB4319403B6898683B681A68CA
:1039CC0013465B0013441E3B00FA03F27B681B6832
:1039DC000A43DA6019E07B681B6819693B681A684E
:1039EC0013465B001344072202FA03F3DB4319402E
:1039FC003B6898683B681A6813465B00134400FAEE
:103A0C0003F27B681B680A431A613B681B68102B26
:103A1C0003D03B681B68112B32D17B681B681D4A95
:103A2C00934225D17B681B689B6803F40003002B31
:103A3C0026D17B681B689A687B681B6842F400027D
:103A4C009A603B681B68102B1AD1134B1B68134AE6
:103A5C00A2FB03239A0C13469B0013445B00BB6030
:103A6C0002E0BB68013BBB60BB68002BF9D107E0EF
:103A7C007B689B6A43F020027B689A620123FB738C
:103A8C007B68002283F82420FB7B18461437BD4644
:103A9C0080BC7047002401401000002083DE1B43D3
:103AAC0080B584B000AF78600023FB600023BB605E
:103ABC007B681B689B6803F00103012B40D07B687B
:103ACC001B689A687B681B6842F001029A601F4B66
:103ADC001B681F4AA2FB03239B0CBB6002E0BB6864
:103AEC00013BBB60BB68002BF9D1FFF7EFFBF86023
:103AFC001FE0FFF7EBFB0246FB68D31A022B18D929
:103B0C007B681B689B6803F00103012B11D07B6859
:103B1C009B6A43F010027B689A627B68DB6A43F015
:103B2C0001027B68DA627B68002283F8242001237F
:103B3C0007E07B681B689B6803F00103012BD8D15D
:103B4C00002318461037BD4680BD00BF1000002072
:103B5C0083DE1B4380B584B000AF78600023FB602C
:103B6C007B681B689B6803F00103012B2ED17B68DB
:103B7C001B689A687B681B6822F001029A60FFF749
:103B8C00A5FBF8601BE0FFF7A1FB0246FB68D31A0C
:103B9C00022B14D97B681B689B6803F00103012B73
:103BAC000DD17B689B6A43F010027B689A627B683C
:103BBC00DB6A43F001027B68DA62012307E07B6871
:103BCC001B689B6803F00103012BDCD00023184613
:103BDC001037BD4680BD000090B587B000AF78604F
:103BEC000023FB750023FB607B6893F82430012BCA
:103BFC0001D1022397E07B68012283F824207868A6
:103C0C00FFF7A8FF0346FB757868FFF749FF0346EB
:103C1C00FB75FB7D002B40F081807B689B6A23F455
:103C2C00885323F0020343F002027B689A62404BF4
:103C3C001C68022003F0F4FB0346B4FBF3F35B00B7
:103C4C00FB6002E0FB68013BFB60FB68002BF9D1D9
:103C5C007B681B689A687B681B6842F008029A6054
:103C6C00FFF734FB38611BE0FFF730FB02463B6982
:103C7C00D31A0A2B14D97B681B689B6803F00803C2
:103C8C00002B0DD07B689B6A23F0120343F01002CB
:103C9C007B689A627B68002283F82420012342E02F
:103CAC007B681B689B6803F00803002BDCD17B68E6
:103CBC001B689A687B681B6842F004029A60FFF7E5
:103CCC0005FB38611BE0FFF701FB02463B69D31A89
:103CDC000A2B14D97B681B689B6803F00403002B28
:103CEC000DD07B689B6A23F0120343F010027B68B3
:103CFC009A627B68002283F82420012313E07B68FE
:103D0C001B689B6803F00403002BDCD17B689B6A67
:103D1C0023F0030343F001027B689A627B68002264
:103D2C0083F82420FB7D18461C37BD4690BD00BF90
:103D3C001000002080B485B000AF78607B6803F081
:103D4C000703FB600C4BDB68BB60BA684FF6FF03E4
:103D5C001340BB60FB681A02BB68134343F0BF639C
:103D6C0043F40033BB60044ABB68D36000BF143714
:103D7C00BD4680BC704700BF00ED00E080B400AFD2
:103D8C00044BDB681B0A03F007031846BD4680BCD6
:103D9C00704700BF00ED00E080B483B000AF034675
:103DAC00FB7197F90730002B0BDBFB7903F01F023B
:103DBC00064997F907305B09012000FA02F241F835
:103DCC00232000BF0C37BD4680BC704700E100E0EB
:103DDC0080B483B000AF03463960FB7197F90730AC
:103DEC00002B0ADB3B68DAB20C4997F90730120159
:103DFC00D2B20B4483F800230AE03B68DAB20849DC
:103E0C00FB7903F00F03043B1201D2B20B441A7678
:103E1C0000BF0C37BD4680BC704700BF00E100E01E
:103E2C0000ED00E080B489B000AFF860B9607A6052
:103E3C00FB6803F00703FB61FB69C3F10703042B69
:103E4C0028BF0423BB61FB690433062B02D9FB6931
:103E5C00033B00E000237B614FF0FF32BB6902FAA9
:103E6C0003F3DA43BB681A407B699A404FF0FF3189
:103E7C007B6901FA03F3D9437B680B401343184663
:103E8C002437BD4680BC704780B582B000AF7860E7
:103E9C007B68013BB3F1807F01D301230FE00A4A19
:103EAC007B68013B53600F214FF0FF30FFF790FF11
:103EBC00054B00229A60044B07221A600023184617
:103ECC000837BD4680BD00BF10E000E080B582B071
:103EDC0000AF78607868FFF72DFF00BF0837BD464C
:103EEC0080BD80B586B000AF0346B9607A60FB73C5
:103EFC0000237B61FFF742FF78617A68B9687869C3
:103F0C00FFF790FF024697F90F3011461846FFF75E
:103F1C005FFF00BF1837BD4680BD80B582B000AFD3
:103F2C000346FB7197F907301846FFF735FF00BFC2
:103F3C000837BD4680BD80B582B000AF7860786828
:103F4C00FFF7A2FF034618460837BD4680BD0000A8
:103F5C0080B485B000AF78600023FB607B68002BD9
:103F6C0001D1012343E07B681B681A46224B1344A2
:103F7C00224AA2FB03231B099A007B681A647B6804
:103F8C001F4ADA637B68022283F821207B681B6856
:103F9C001B68FB60FB6823F47F5323F03003FB604A
:103FAC007B685A687B689B681A437B68DB681A439A
:103FBC007B681B691A437B685B691A437B689B6946
:103FCC001A437B68DB691343FA681343FB607B6815
:103FDC001B68FA681A607B6800229A637B6801226E
:103FEC0083F821207B68002283F8202000231846C8
:103FFC001437BD4680BC7047F8FFFDBFCDCCCCCC90
:10400C000000024080B586B000AFF860B9607A60FD
:10401C003B600023FB75FB6893F82030012B01D12A
:10402C0002234BE0FB68012283F82020FB6893F805
:10403C002130DBB2012B3AD1FB68022283F821201C
:10404C00FB6800229A63FB681B681A68FB681B6894
:10405C0022F001021A603B687A68B968F86800F0CF
:10406C0037F9FB68DB6A002B08D0FB681B681A6801
:10407C00FB681B6842F00E021A600FE0FB681B68BD
:10408C001A68FB681B6822F004021A60FB681B6844
:10409C001A68FB681B6842F00A021A60FB681B680E
:1040AC001A68FB681B6842F001021A6005E0FB68A5
:1040BC00002283F820200223FB75FB7D184618375D
:1040CC00BD4680BD80B584B000AF78607B68DB6B8B
:1040DC001B68FB607B681B681B68BB607B681B6C88
:1040EC0004229A40FB681340002B4FD0BB6803F0AE
:1040FC000403002B4AD07B681B681B6803F0200369
:10410C00002B07D17B681B681A687B681B6822F040
:10411C0004021A607B681B68664A934229D07B684C
:10412C001B68654A934222D07B681B68634A9342A2
:10413C001AD07B681B68624A934212D07B681B685A
:10414C00604A93420AD07B681B685F4A934202D153
:10415C004FF480030EE04FF080630BE04FF48023AC
:10416C0008E04FF4804305E04FF4806302E0402305
:10417C0000E00423554A53607B68DB6A002B00F097
:10418C0094807B68DB6A786898478EE07B681B6C50
:10419C0002229A40FB681340002B56D0BB6803F0F8
:1041AC000203002B51D07B681B681B6803F02003B3
:1041BC00002B0BD17B681B681A687B681B6822F08C
:1041CC000A021A607B68012283F821207B681B6835
:1041DC00384A934229D07B681B68374A934222D0D5
:1041EC007B681B68354A93421AD07B681B68344A3B
:1041FC00934212D07B681B68324A93420AD07B6888
:10420C001B68314A934202D14FF400130EE04FF079
:10421C0000730BE04FF4003308E04FF4005305E05B
:10422C004FF4007302E0202300E00223274A53607E
:10423C007B68002283F820207B689B6A002B34D09B
:10424C007B689B6A786898472FE07B681B6C082218
:10425C009A40FB681340002B28D0BB6803F008037E
:10426C00002B23D07B681B681A687B681B6822F0C4
:10427C000E021A607B681A6C7B68DB6B012101FAF9
:10428C0002F25A607B6801229A637B68012283F8F0
:10429C0021207B68002283F820207B681B6B002B7D
:1042AC0004D07B681B6B7868984700BF00BF103741
:1042BC00BD4680BD080002401C0002403000024098
:1042CC0044000240580002406C00024000000240D2
:1042DC0080B485B000AFF860B9607A603B60FB6871
:1042EC001A6CFB68DB6B012101FA02F25A60FB6865
:1042FC001B683A685A60FB685B68102B08D1FB6836
:10430C001B687A689A60FB681B68BA68DA6007E019
:10431C00FB681B68BA689A60FB681B687A68DA608D
:10432C0000BF1437BD4680BC7047000080B48BB012
:10433C0000AF7860396000237B6200233B6269E147
:10434C0001227B6A02FA03F3FB613B681B68FA6982
:10435C001340BB61BA69FB699A4240F058813B68D3
:10436C005B689A4A93425ED0984A934275D8984AB1
:10437C00934258D0964A93426FD8964A934252D061
:10438C00944A934269D8944A93424CD0924A9342AD
:10439C0063D8924A934246D0904A93425DD8122BEE
:1043AC002AD8122B59D801A252F823F03344000812
:1043BC000D4400081F4400086144000867440008CD
:1043CC006744000867440008674400086744000815
:1043DC006744000867440008674400086744000805
:1043EC0067440008674400086744000867440008F5
:1043FC001544000829440008794A934213D02CE054
:10440C003B68DB683B6229E03B68DB6804333B625A
:10441C0024E03B68DB6808333B621FE03B68DB68E9
:10442C000C333B621AE03B689B68002B02D10423DF
:10443C003B6213E03B689B68012B05D108233B6270
:10444C007B68FA691A6109E008233B627B68FA69A8
:10445C005A6103E000233B6200E000BFBB69FF2B05
:10446C0001D87B6801E07B6804337B61BB69FF2B5F
:10447C0002D87B6A9B0002E07B6A083B9B003B6195
:10448C007B691A680F213B6901FA03F3DB431A407D
:10449C00396A3B6901FA03F31A437B691A603B687A
:1044AC005B6803F08053002B00F0B1804D4B9B698F
:1044BC004C4A43F0010393614A4B9B6903F001039F
:1044CC00BB60BB68484A7B6A9B08023352F82330B6
:1044DC00FB607B6A03F003039B000F2202FA03F3D9
:1044EC00DB43FA681340FB607B68404A934213D06D
:1044FC007B683F4A93420DD07B683E4A934207D07B
:10450C007B683D4A934201D1032306E0042304E077
:10451C00022302E0012300E000237A6A02F0030286
:10452C0092009340FA681343FB602F497B6A9B0807
:10453C000233FA6841F823203B685B6803F480136C
:10454C00002B06D02D4B9A682C49BB6913438B600A
:10455C0006E02A4B9A68BB69DB43284913408B6001
:10456C003B685B6803F40013002B06D0234BDA681E
:10457C002249BB691343CB6006E0204BDA68BB6968
:10458C00DB431E491340CB603B685B6803F400338C
:10459C00002B06D0194B5A681849BB6913434B6062
:1045AC0006E0164B5A68BB69DB43144913404B6059
:1045BC003B685B6803F48033002B21D00F4B1A68E7
:1045CC000E49BB6913430B6021E000BF00003210A1
:1045DC000000311000002210000021100000121009
:1045EC0000001110001002400000014000080140C2
:1045FC00000C014000100140001401400004014077
:10460C000B4B1A68BB69DB43094913400B607B6A8F
:10461C0001337B623B681A687B6A22FA03F3002B36
:10462C007FF48EAE00BF00BF2C37BD4680BC7047F8
:10463C000004014080B485B000AF78600B467B80ED
:10464C007B689A687B881340002B02D00123FB7394
:10465C0001E00023FB73FB7B18461437BD4680BC7E
:10466C00704780B483B000AF78600B467B801346F4
:10467C007B707B78002B03D07A887B681A6103E00F
:10468C007B881A047B681A6100BF0C37BD4680BC5E
:10469C007047000080B584B000AF78607B68002B59
:1046AC0001D101232BE17B6893F83D30DBB2002B69
:1046BC0006D17B68002283F83C207868FEF72EFC3C
:1046CC007B68242283F83D207B681B681A687B6812
:1046DC001B6822F001021A607B681B681A687B68F1
:1046EC001B6842F400421A607B681B681A687B687E
:1046FC001B6822F400421A6002F096FDF8607B6899
:10470C005B68814A934207D8FB68804A934294BF06
:10471C0001230023DBB206E0FB687D4A934294BF81
:10472C0001230023DBB2002B01D00123E7E0FB685F
:10473C00784AA2FB03239B0CBB607B681B685B68FD
:10474C0023F03F017B681B68BA680A435A607B6898
:10475C001B681B6A23F03F017B685B686A4A9342C3
:10476C0002D8BB68013309E0BB684FF4967202FBB8
:10477C0003F3694AA2FB03239B0901337A6812688D
:10478C000B4313627B681B68DB6923F44F4222F0F6
:10479C00FF027B685B685C498B4219D8FB68591E29
:1047AC007B685B685B00B1FBF3F3591C40F6FC7350
:1047BC000B40002B0AD0FB68591E7B685B685B00C2
:1047CC00B1FBF3F30133C3F30B0351E004234FE0CC
:1047DC007B689B68002B11D1FB68581E7B6859685D
:1047EC000B465B000B44B0FBF3F30133C3F30B0339
:1047FC00002B0CBF01230023DBB212E0FB68581E18
:10480C007B6859680B469B000B4499000B44B0FB2A
:10481C00F3F30133C3F30B03002B0CBF0123002371
:10482C00DBB2002B01D0012322E07B689B68002BBC
:10483C000ED1FB68581E7B6859680B465B000B4415
:10484C00B0FBF3F30133C3F30B0343F400430FE06A
:10485C00FB68581E7B6859680B469B000B449900FB
:10486C000B44B0FBF3F30133C3F30B0343F44043AA
:10487C00796809681343CB617B681B681B6823F05C
:10488C00C0017B68DA697B681B6A1A437B681B680A
:10489C000A431A607B681B689B6823F4034323F06C
:1048AC00FF037A6811697A68D26811437A681268D2
:1048BC000B4393607B681B68DB6823F0FF017B680C
:1048CC005A697B689B691A437B681B680A43DA60E8
:1048DC007B681B681A687B681B6842F001021A60CF
:1048EC007B6800221A647B68202283F83D207B6859
:1048FC0000221A637B68002283F83E2000231846AE
:10490C001037BD4680BD00BFA08601007F841E000D
:10491C00FF083D0083DE1B43D34D621080B588B089
:10492C0002AFF8607A601A460B467B8113463B81D6
:10493C00FEF7CCFC7861FB6893F83D30DBB2202BA2
:10494C0040F0E0807B690093192301227049F868DC
:10495C0000F064F90346002B01D00223D3E0FB687E
:10496C0093F83C30012B01D10223CCE0FB680122EF
:10497C0083F83C20FB681B681B6803F00103012BC8
:10498C0007D0FB681B681A68FB681B6842F00102C1
:10499C001A60FB681B681A68FB681B6822F40062CB
:1049AC001A60FB68212283F83D20FB68102283F8F3
:1049BC003E20FB6800221A64FB687A685A62FB6826
:1049CC003A895A85FB685B8D9AB2FB681A85FB683D
:1049DC00504ADA6279897B693A6AF86800F09CF887
:1049EC000346002B01D001238DE000233B61FB68C3
:1049FC001B685B693B61FB681B689B693B613B699E
:104A0C0066E07A69396AF86800F022FA0346002BEE
:104A1C000DD0FB681B6C042B07D1FB681B681A6854
:104A2C00FB681B6842F400721A6001236BE0FB68A0
:104A3C005B6A1A78FB681B681A61FB685B6A5A1C14
:104A4C00FB685A62FB685B8D9BB2013B9AB2FB68B8
:104A5C005A85FB681B8D013B9AB2FB681A85FB6873
:104A6C001B685B6903F00403042B1BD1FB681B8DD3
:104A7C00002B17D0FB685B6A1A78FB681B681A61FD
:104A8C00FB685B6A5A1CFB685A62FB685B8D9BB2C5
:104A9C00013B9AB2FB685A85FB681B8D013B9AB2AD
:104AAC00FB681A857A69396AF86800F019FA0346C6
:104ABC00002B0DD0FB681B6C042B07D1FB681B680B
:104ACC001A68FB681B6842F400721A6001231AE032
:104ADC00FB681B8D002B94D1FB681B681A68FB6864
:104AEC001B6842F400721A60FB68202283F83D2098
:104AFC00FB68002283F83E20FB68002283F83C20F0
:104B0C00002300E0022318461837BD4680BD00BFC5
:104B1C00020010000000FFFF80B588B002AFF86003
:104B2C007A603B600B467B81FB68DB6A7B617B694F
:104B3C00082B06D07B69012B03D07B6913F5803FD2
:104B4C0008D1FB681B681A68FB681B6842F480720A
:104B5C001A600BE0FB681B6B122B07D1FB681B6800
:104B6C001A68FB681B6842F480721A603B680093F9
:104B7C007B6800224FF00111F86800F04FF80346F3
:104B8C00002B0DD0FB681B681B6803F48073B3F516
:104B9C00807F03D1FB684FF400721A64032335E065
:104BAC00FB681B69B3F5804F08D17B89DBB21A46D1
:104BBC00FB681B6802F0FE021A611BE07B89DB11AB
:104BCC00DBB203F00603DBB263F00F03DAB2FB686F
:104BDC001B681A613B687A680E49F86800F098F80F
:104BEC000346002B01D0012310E07B89DAB2FB686D
:104BFC001B681A613B687A680749F86800F088F806
:104C0C000346002B01D0012300E00023184618377F
:104C1C00BD4680BD080001000200010080B584B0D3
:104C2C0000AFF860B9603B601346FB7148E03B682D
:104C3C00B3F1FF3F44D0FEF749FB0246BB69D31AE0
:104C4C003A689A4202D33B68002B39D1BB681B0CE3
:104C5C00DBB2012B0DD1FB681B685B69DA43BB68C7
:104C6C0013409BB2002B0CBF01230023DBB21A466E
:104C7C000CE0FB681B689B69DA43BB6813409BB272
:104C8C00002B0CBF01230023DBB21A46FB799A429E
:104C9C0016D1FB6800221A63FB68202283F83D20A2
:104CAC00FB68002283F83E20FB681B6C43F020025B
:104CBC00FB681A64FB68002283F83C20012323E084
:104CCC00BB681B0CDBB2012B0DD1FB681B685B694D
:104CDC00DA43BB6813409BB2002B0CBF01230023AB
:104CEC00DBB21A460CE0FB681B689B69DA43BB68B5
:104CFC0013409BB2002B0CBF01230023DBB21A46DE
:104D0C00FB799A4293D0002318461037BD4680BDDC
:104D1C0080B584B000AFF860B9607A603B6071E038
:104D2C00FB681B685B6903F48063B3F5806F23D168
:104D3C00FB681B681A68FB681B6842F400721A60F7
:104D4C00FB681B686FF480625A61FB6800221A636F
:104D5C00FB68202283F83D20FB68002283F83E206C
:104D6C00FB681B6C43F00402FB681A64FB680022AE
:104D7C0083F83C20012367E07B68B3F1FF3F41D00F
:104D8C00FEF7A4FA02463B68D31A7A689A4202D319
:104D9C007B68002B36D1BB681B0CDBB2012B0CD112
:104DAC00FB681B685B69DA43BB6813409BB2002B42
:104DBC0014BF01230023DBB20BE0FB681B689B696B
:104DCC00DA43BB6813409BB2002B14BF01230023B2
:104DDC00DBB2002B16D0FB6800221A63FB68202282
:104DEC0083F83D20FB68002283F83E20FB681B6C97
:104DFC0043F02002FB681A64FB68002283F83C2015
:104E0C00012321E0BB681B0CDBB2012B0CD1FB682E
:104E1C001B685B69DA43BB6813409BB2002B14BF61
:104E2C0001230023DBB20BE0FB681B689B69DA43B0
:104E3C00BB6813409BB2002B14BF01230023DBB2D1
:104E4C00002B7FF46DAF002318461037BD4680BD94
:104E5C0080B584B000AFF860B9607A6034E0F8686F
:104E6C0000F086F80346002B01D0012334E0BB6828
:104E7C00B3F1FF3F28D0FEF729FA02467B68D31A1C
:104E8C00BA689A4202D3BB68002B1DD1FB681B6821
:104E9C005B6903F08003802B16D0FB6800221A6339
:104EAC00FB68202283F83D20FB68002283F83E201B
:104EBC00FB681B6C43F02002FB681A64FB68002241
:104ECC0083F83C20012307E0FB681B685B6903F057
:104EDC008003802BC3D1002318461037BD4680BDFC
:104EEC0080B584B000AFF860B9607A6034E0F868DF
:104EFC0000F03EF80346002B01D0012334E0BB68E0
:104F0C00B3F1FF3F28D0FEF7E1F902467B68D31AD4
:104F1C00BA689A4202D3BB68002B1DD1FB681B6890
:104F2C005B6903F00403042B16D0FB6800221A63A0
:104F3C00FB68202283F83D20FB68002283F83E208A
:104F4C00FB681B6C43F02002FB681A64FB680022B0
:104F5C0083F83C20012307E0FB681B685B6903F0C6
:104F6C000403042BC3D1002318461037BD4680BD63
:104F7C0080B483B000AF78607B681B685B6903F416
:104F8C008063B3F5806F1BD17B681B686FF4806204
:104F9C005A617B6800221A637B68202283F83D20CB
:104FAC007B68002283F83E207B681B6C43F0040274
:104FBC007B681A647B68002283F83C20012300E0A4
:104FCC00002318460C37BD4680BC704780B584B0B2
:104FDC0000AF78607B68002B01D10123E8E07B688F
:104FEC0093F89132DBB2002B06D17B68002283F858
:104FFC009022786807F0BAFA7B68032283F8912232
:10500C007B6800225A717B681B68184603F0D2F942
:10501C007B6818687B6804330ECB03F0A8F9034651
:10502C00002B05D07B68022283F891220123BFE07C
:10503C007B681B680021184603F0D6F90346002B49
:10504C0005D07B68022283F891220123B0E0002373
:10505C00FB733EE0FA7B796813469B001344DB003C
:10506C000B44113301221A70FA7B796813469B00AA
:10507C001344DB000B441033FA7B1A70FA7B79680B
:10508C0013469B001344DB000B44133300221A70AD
:10509C00FA7B796813469B001344DB000B442033E6
:1050AC0000221A60FA7B796813469B001344DB00DC
:1050BC000B44243300221A60FB7B79685A1C13467C
:1050CC009B001344DB000B4400221A60FB7B013372
:1050DC00FB737B681B79FA7B9A42BBD30023FB736F
:1050EC0044E0FA7B796813469B001344DB000B44C5
:1050FC0003F2511300221A70FA7B796813469B0055
:10510C001344DB000B4403F5A873FA7B1A70FA7B8B
:10511C00796813469B001344DB000B4403F25313D2
:10512C0000221A70FA7B796813469B001344DB004B
:10513C000B4403F5B07300221A60FA7B79681346AE
:10514C009B001344DB000B4403F5B27300221A607E
:10515C00FA7B796813469B001344DB000B4403F580
:10516C00B47300221A60FB7B0133FB737B681B79E1
:10517C00FA7B9A42B5D37B6818687B6804330ECBF4
:10518C0003F03EF90346002B05D07B68022283F81E
:10519C00912201230CE07B6800225A737B68012268
:1051AC0083F891227B681B68184605F0BEFB002330
:1051BC0018461037BD4680BD80B582B000AF786010
:1051CC007B6893F89032012B01D1022316E07B68A7
:1051DC00012283F890227B681B68184603F0D4F8F0
:1051EC000121786807F035FC7B681B68184605F0D0
:1051FC0092FB7B68002283F8902200231846083724
:10520C00BD4680BD80B588B000AF78607B681B68F8
:10521C00184605F094FBB861BB6903F40043002BFE
:10522C0003D0786800F01AFB19E1BB6903F48063C2
:10523C00002B13D07B681B68B3F844309AB27B68A0
:10524C001B6822F4806292B2A3F84420786807F0BD
:10525C0008FA0021786800F005F900E1BB6903F455
:10526C008043002B0CD07B681B68B3F844309AB297
:10527C007B681B6822F4804292B2A3F84420EEE0D3
:10528C00BB6903F40053002B0CD07B681B68B3F88C
:10529C0044309AB27B681B6822F4005292B2A3F895
:1052AC004420DCE0BB6903F48053002B27D07B68DF
:1052BC001B68B3F840309AB27B681B6822F004027A
:1052CC0092B2A3F840207B681B68B3F840309AB2C6
:1052DC007B681B6822F0080292B2A3F84020786821
:1052EC0007F0F8F97B681B68B3F844309AB27B6816
:1052FC001B6822F4805292B2A3F84420AFE0BB6941
:10530C0003F40063002B00F083800023FB7710E094
:10531C007B681B681A46FB7F9B001A44FB7F128834
:10532C0092B25B0020333B4423F8182CFB7F0133F3
:10533C00FB77FB7F072BEBD97B681B68B3F84030FE
:10534C009AB27B681B6842F0010292B2A3F840202B
:10535C007B681B68B3F840309AB27B681B6822F0FC
:10536C00010292B2A3F8402000BF7B681B68B3F81F
:10537C0044309BB203F48063002BF6D07B681B682F
:10538C00B3F844309AB27B681B6822F4806292B204
:10539C00A3F844200023FB770FE0FB7F7A681268A8
:1053AC001146FA7F92000A445B0020333B4433F8E9
:1053BC00183C1380FB7F0133FB77FB7F072BECD969
:1053CC007B681B68B3F840309AB27B681B6842F06C
:1053DC00080292B2A3F840207B681B68B3F84430F3
:1053EC009AB27B681B6822F4006292B2A3F8442044
:1053FC007B681B68B3F840309AB27B681B6842F03C
:10540C00040292B2A3F84020786807F049F926E02C
:10541C00BB6903F40073002B0FD07B681B68B3F8D7
:10542C0044309AB27B681B6822F4007292B2A3F8E3
:10543C004420786807F007F911E0BB6903F4807326
:10544C00002B0CD07B681B68B3F844309AB27B6895
:10545C001B6822F4807292B2A3F8442000BF20375C
:10546C00BD4680BD80B582B000AF78600B46FB7046
:10547C007B6893F89032012B01D1022312E07B68F8
:10548C00012283F890227B68FA785A737B681B6838
:10549C00FA781146184605F02BFA7B68002283F83F
:1054AC009022002318460837BD4680BD80B584B0D5
:1054BC0000AF7860084611461A460346FB700B464F
:1054CC003B801346BB700023FB7297F90330002B13
:1054DC000EDAFB7803F0070213469B001344DB0043
:1054EC0010337A681344FB60FB6801225A700EE09B
:1054FC00FB7803F0070213469B001344DB0003F513
:10550C00A8737A681344FB60FB6800225A70FB781E
:10551C0003F00703DAB2FB681A703A88FB681A6169
:10552C00FB68BA78DA70BB78022B02D1FB680022D8
:10553C001A717B6893F89032012B01D102230EE093
:10554C007B68012283F890227B681B68F9681846F7
:10555C0002F074FF7B68002283F89022FB7A1846D5
:10556C001037BD4680BD80B584B000AF78600B4667
:10557C00FB7097F90330002B0EDAFB7803F007026F
:10558C0013469B001344DB0010337A681344FB6012
:10559C00FB6801225A700EE0FB7803F007021346F9
:1055AC009B001344DB0003F5A8737A681344FB607B
:1055BC00FB6800225A70FB7803F00703DAB2FB6831
:1055CC001A707B6893F89032012B01D102230EE004
:1055DC007B68012283F890227B681B68F968184667
:1055EC0003F0ECFA7B68002283F890220023184623
:1055FC001037BD4680BD80B586B000AFF8607A60CC
:10560C003B600B46FB72FB7A03F0070213469B00D0
:10561C001344DB0003F5A873FA6813447B617B69C0
:10562C007A685A617B693A689A617B690022DA610F
:10563C007B6900225A70FB7A03F00703DAB27B69AC
:10564C001A70FB681B687969184603F0A3FC0023E9
:10565C0018461837BD4680BD80B483B000AF786063
:10566C000B46FB70FB7803F00702796813469B002E
:10567C001344DB000B4403F5B6731B6818460C3758
:10568C00BD4680BC704780B586B000AFF8607A60CC
:10569C003B600B46FB72FB7A03F0070213469B0040
:1056AC001344DB001033FA6813447B617B697A681E
:1056BC005A617B693A689A617B69012283F82420DC
:1056CC007B693A681A627B690022DA617B69012284
:1056DC005A70FB7A03F00703DAB27B691A70FB6825
:1056EC001B687969184603F055FC002318461837D7
:1056FC00BD4680BD80B584B000AF78600B46FB70B2
:10570C00FB7803F007037A681279934201D90123DD
:10571C004CE097F90330002B0EDAFB7803F007020C
:10572C0013469B001344DB0010337A681344FB6070
:10573C00FB6801225A700CE0FA7813469B00134464
:10574C00DB0003F5A8737A681344FB60FB68002246
:10575C005A70FB6801229A70FB7803F00703DAB2E7
:10576C00FB681A707B6893F89032012B01D10223ED
:10577C001CE07B68012283F890227B681B68F96827
:10578C00184604F0B8FFFB7803F00703002B08D190
:10579C007B681A687B6803F526731946104605F07A
:1057AC00DDF87B68002283F890220023184610371E
:1057BC00BD4680BD80B584B000AF78600B46FB70F1
:1057CC00FB7803F00F037A681279934201D9012315
:1057DC0040E097F90330002B0EDAFB7803F0070258
:1057EC0013469B001344DB0010337A681344FB60B0
:1057FC00FB6801225A700EE0FB7803F00702134697
:10580C009B001344DB0003F5A8737A681344FB6018
:10581C00FB6800225A70FB6800229A70FB7803F038
:10582C000703DAB2FB681A707B6893F89032012B8D
:10583C0001D102230EE07B68012283F890227B6861
:10584C001B68F968184604F0A6FF7B68002283F8F1
:10585C009022002318461037BD4680BD80B596B007
:10586C0000AF7860BCE37B681B68B3F84430A7F8E2
:10587C004E30B7F84E30DBB203F00F0387F84D30E3
:10588C0097F84D30002B40F07681B7F84E3003F08E
:10589C001003002B4FD17B681B681B889BB223F431
:1058AC00E14323F07003FB817B681A68FB896FEA84
:1058BC0043436FEA53439BB213807B6810337B6581
:1058CC007B681B68B3F850309BB21A467B6D1B7813
:1058DC00DB00134402335B007A681268134403F54F
:1058EC0080631B88C3F309027B6DDA617B6D5A6997
:1058FC007B6DDB691A447B6D5A610021786806F078
:10590C0088FE7B685B7BDBB2002B00F069837B6DD0
:10591C009B69002B40F064837B685B7BDBB263F09C
:10592C007F03DAB27B681B6892B2A3F84C207B68C9
:10593C0000225A7354E37B6803F5A8737B657B687C
:10594C001B681B88A7F84A30B7F84A3003F4006389
:10595C00002B34D07B681B68B3F850309BB21A46CE
:10596C007B6D1B78DB00134406335B007A6812688E
:10597C00134403F580631B88C3F309027B6DDA6162
:10598C007B6818687B6803F526717B6DDA887B6D04
:10599C00DB699BB205F032F87B681B681B889AB2F6
:1059AC0040F68F7313403B827B681B683A8A42F047
:1059BC00800292B21A80786806F0FEFD10E3B7F907
:1059CC004A30002B80F20C837B681B681B889AB2D0
:1059DC0040F68F731340FB837B681B68FA8B42F095
:1059EC00800292B21A807B681B68B3F850309BB26D
:1059FC001A467B6D1B78DB00134406335B007A6818
:105A0C001268134403F580631B88C3F309027B6D92
:105A1C00DA617B6DDB69002B19D07B6D5B69002B28
:105A2C0015D07B6818687B6D59697B6DDA887B6D46
:105A3C00DB699BB204F0E2FF7B6D5A697B6DDB691D
:105A4C001A447B6D5A610021786806F0C7FD7B68AB
:105A5C001B681B88A7F84A30B7F84A3003F4006378
:105A6C00002B40F0BD82B7F84A3003F44053B3F535
:105A7C00405F00F0B5827B681B68BB617B681B686C
:105A8C00B3F850309BB21A46BB691344BB61BB6977
:105A9C0003F20C437B617B691B889BB2C3F3090344
:105AAC009AB27B691A807B6D1B693E2B1DD97B6D6D
:105ABC001B695B097B647B6D1B6903F01F03002B67
:105ACC0002D17B6C013B7B647B691B889AB27B6C3B
