:020000040800F2
:100000000050002019180008291700082F170008B1
:10001000351700083B1700084117000800000000D2
:10002000000000000000000000000000471700086A
:1000300053170008000000005F1700086B17000846
:1000400061180008611800086118000861180008AC
:10005000611800086118000861180008611800089C
:10006000611800086118000861180008611800088C
:100070006118000861180008611800087917000865
:10008000611800086118000861180008611800086C
:100090008D17000861180008611800086118000831
:1000A000611800086118000861180008611800084C
:1000B000611800086118000861180008611800083C
:1000C000611800086118000861180008611800082C
:1000D000611800086118000861180008611800081C
:1000E000611800086118000861180008000000008D
:1000F0000000000000000000000000000000000000
:0C01000000000000000000005FF808F1A3
:10010C0010B5054C237833B9044B13B10448AFF345
:10011C0000800123237010BDD001002000000000DE
:10012C0094BA000808B5034B1BB103490348AFF35D
:10013C00008008BD00000000D401002094BA000823
:10014C0010F8012B11F8013B012A28BF9A42F7D075
:10015C00D01A7047034613F8012B002AFBD1181A4A
:10016C000138704780B582B000AF01F0CDFB38602C
:10017C000023FB7122E0FB79144A32F81330194644
:10018C00134802F075FD0346002B01D1012100E05C
:10019C000021FB790F4AD154FA79FB790D49895C1E
:1001AC000D4AD154FB790D493A6841F82320FB796B
:1001BC000B4A0021D154FB790133FB71FB79052BE0
:1001CC00D9D900BF00BF0837BD4680BD84BB00082D
:1001DC00000C0140F4010020EC010020FC01002087
:1001EC001402002080B584B000AF01F08DFBB86024
:1001FC000023FB733CE0FB7B214A32F81330194699
:10020C00204802F035FD0346002B01D1012300E00C
:10021C000023FB71FB7B1C4AD35CFA799A4208D011
:10022C00FB7B1949FA79CA54FB7B1849BA6841F827
:10023C002320FB7B154A52F82330BA68D31A042BBF
:10024C0013D9FB7B124AD35CBB71FB7B1049FA7947
:10025C00CA54BB79002B08D1FB7B0D4AD35C012B14
:10026C0003D1FB7B0B4A0121D154FB7B0133FB7384
:10027C00FB7B052BBFD900BF00BF1037BD4680BD2F
:10028C0084BB0008000C0140F4010020FC0100209C
:10029C00EC0100201402002080B483B000AF0346B0
:1002AC00FB71FB79052B01D9002302E0FB79034A92
:1002BC00D35C18460C37BD4680BC7047EC0100205F
:1002CC0080B485B000AF0346FB71FB79052B01D9D7
:1002DC00002308E0FB79064AD35CFB73FB79044AE4
:1002EC000021D154FB7B18461437BD4680BC7047A7
:1002FC001402002080B584B000AF80220021144885
:10030C000AF030FF134B00221A800023FB6015E02B
:10031C001C2111480AF014FB0346FB72FB7A002BDC
:10032C0010D000237B6002E07B6801337B607B682C
:10033C000A4A9342F8DDFB680133FB60FB68042B2F
:10034C00E6DD00E000BF00BF1037BD4680BD00BF3A
:10035C001C0200209C020020ACBA00089F86010001
:10036C0080B584B000AF786039600023FB6040E05A
:10037C007A68FB6813441B78FB72FB7A0D2B34D024
:10038C00FB7A0A2B1ED11F4B1B881A461E4B0021D1
:10039C0099541E491C48FFF7D3FE0346002B03D18A
:1003AC001B4800F0D9F809E01A491748FFF7C8FEB6
:1003BC000346002B02D1184800F0CEF8114B002256
:1003CC001A8013E00F4B1B887E2B0AD80D4B1B8811
:1003DC005A1C91B20B4A118019460B4AFB7A5354A2
:1003EC0004E0084B00221A8000E000BFFB680133D8
:1003FC00FB60FA683B689A42BAD300BF00BF103763
:10040C00BD4680BD9C0200201C020020CCBA000816
:10041C00ACBA0008ECBA000890BB000890B5C7B0A5
:10042C0002AF07F58873A3F5867318600A4607F5C3
:10043C008873A3F20D131A700023C7F80C31002334
:10044C0087F80B3134E097F80B31002B0AD0D7F832
:10045C000C315A1CC7F80C2107F58872A2F584726E
:10046C007C21D154D7F80C3107F10802D018D7F8F9
:10047C000C31C3F5807197F80B315C1C97F80B317C
:10048C005B0007F58872A2F58672126813441B880C
:10049C0000932346214A0AF031FE0246D7F80C316C
:1004AC001344C7F80C3197F80B31013387F80B3133
:1004BC0007F58873A3F20D1397F80B211B789A425A
:1004CC0003D2D7F80C31EF2BBDDDD7F80C315A1C09
:1004DC00C7F80C2107F58872A2F584720D21D1544E
:1004EC00D7F80C315A1CC7F80C2107F58872A2F505
:1004FC0084720A21D15407F58873A3F58472D7F856
:10050C000C31134400221A7007F10803184600F04E
:10051C0023F800BF07F58A77BD4690BDF8BA0008EE
:10052C0080B58AB000AF0346FB71FB79013307F14C
:10053C000C00084A18210AF0E1FD78627B6A9AB235
:10054C0007F10C03114618460AF0FAF900BF2837D8
:10055C00BD4680BD08BB000880B586B000AF786092
:10056C007868FFF7F7FD03467B827B8A002B1ED051
:10057C0000237B6117E07B8A194678680AF0E0F962
:10058C0003467B747B7C002B13D00023FB6002E0C2
:10059C00FB680133FB60FB6842F20F729342F7DD9C
:1005AC007B6901337B617B69632BE4DD02E000BF77
:1005BC0000E000BF1837BD4680BD000080B500AF1D
:1005CC0000F0E4F900F0BAF80346002B01D100F07A
:1005DC00A3F900F059FB00F0DDFB00F0BDFEFFF7C6
:1005EC00C1FDFFF787FE01F08FF90346014A136046
:1005FC0000BF80BDA002002080B584B000AFFFF723
:10060C00F1FD0023FB730023BB7311E0BB7B184689
:10061C00FFF742FE0346002B07D0BB7B012202FAF8
:10062C0003F3DAB2FB7B1343FB73BB7B0133BB736A
:10063C00BB7B052BEAD9FB7B184600F0EDFB0023B6
:10064C007B730DE07B7B1846FFF73AFE0346002BCD
:10065C0003D07B7B1846FFF763FF7B7B01337B73F7
:10066C007B7B052BEED900F081FE00F0FDFEB8601F
:10067C0000233B730CE03B7B5B00BA6813441A8885
:10068C003B7B1146184600F091FB3B7B01333B73DF
:10069C003B7B042BEFD901F037F978600A4B1B68D0
:1006AC007A68D31A092B09D9074A7B68136000F0C2
:1006BC00D1FE034605211846FFF7B0FE00F0BCFB47
:1006CC0000BF1037BD4680BDA002002080B586B0AB
:1006DC0002AF0346FB7100233B73FB797B7307F17D
:1006EC000C023223009302237821044802F034FCDC
:1006FC00034618461037BD4680BD00BFB00D002024
:10070C0080B586B002AF03460A46FB711346BB7137
:10071C0000233B73FB797B73BB79BB7307F10C0232
:10072C003223009303237821034802F015FC03467F
:10073C0018461037BD4680BDB00D002080B586B080
:10074C0002AF0A2001F0EAF8134BFB60134BBB60BD
:10075C0014E000233B71FB685A1CFA601B787B7118
:10076C003A1D32230093022378210D4802F0F4FB4A
:10077C000346002B02D04FF0FF3308E0FA68BB6849
:10078C009A42E6D300F00EF800F018F80023184651
:10079C001037BD4680BD00BF94BD0008ADBD00083C
:1007AC00B00D002080B500AF4FF4806200210248EC
:1007BC000AF0D8FC00BF80BDA402002080B5A4B014
:1007CC0002AF00212120FFF79BFF7F20FFF77EFF68
:1007DC0000212220FFF794FF0720FFF777FF00236B
:1007EC0087F8873019E040233B7197F88730DB019D
:1007FC000E4A99183B1D0133802218460AF0E6FC7C
:10080C003A1D6423009381237821094802F0A4FB4C
:10081C0097F88730013387F8873097F88730072BA4
:10082C00E1D900BF00BF8837BD4680BDA4020020BF
:10083C00B00D002080B485B000AF0346FB710B46B1
:10084C00BB7113467B717B791F2B02D97B797E2B75
:10085C0001D93F237B71BB79072B32D87B79203BA5
:10086C00DBB21A4613469B001344184A1344BB6070
:10087C000023FB7315E0FA79FB7B13447F2B0DDC13
:10088C00FB7BBA68D118BA79F879FB7B03440878FA
:10089C000F49D2010A44134402461A70FB7B013300
:1008AC00FB73FB7B042BE6D9FB797A2B0AD8BA793C
:1008BC00FB7905330649D2010A44134400221A700D
:1008CC0000E000BF1437BD4680BC7047B8BB0008C1
:1008DC00A402002080B582B000AF03463A60FB71E1
:1008EC000B46BB710BE03B685A1C3A601A78B9791D
:1008FC00FB791846FFF79EFFFB790633FB713B68CB
:10090C001B78002B03D097F90730002BEBDA00BFD4
:10091C000837BD4680BD000080B584B000AFFFF73E
:10092C0041FF184BFB600923FB72FB7A1A465200FD
:10093C0013445B00BB72BB7AC3F180035B087B7210
:10094C007B7AFA6803211846FFF7C4FF0E4B7B60D5
:10095C000F23FB70FB781A46520013445B00BB70EC
:10096C00BB78C3F180035B087B707B787A680521C8
:10097C001846FFF7AFFFFFF721FF00BF1037BD464A
:10098C0080BD00BF18BB000824BB000880B582B036
:10099C0000AF01220121104802F081F9012000F082
:1009AC00BDFF0E4B1B88BB800023BB713B1D184643
:1009BC0000F016F83B79FF2B08D17B79FF2B05D182
:1009CC00BB79FF2B02D14FF0FF3300E00023184618
:1009DC000837BD4680BD00BF000C014038BB000885
:1009EC0080B584B000AF78609F23FB730022012197
:1009FC000C4802F054F907F10F01642301220A4854
:100A0C0005F066F9642303227968074805F0A4FA17
:100A1C0001220121034802F042F900BF1037BD4604
:100A2C0080BD00BF000C0140040E002080B485B0D6
:100A3C0000AF0023FB6037E00023BB602EE0BB68F7
:100A4C005B00C3F10703FA6842FA03F3DBB203F06D
:100A5C000103FB71BB68C3F103035B00FA6842FA44
:100A6C0003F3DBB203F00103BB71FB79002B01D064
:100A7C00E02200E08022BB79002B01D00E2300E0A5
:100A8C0008231343D9B20D4AFB689B001A44BB6878
:100A9C0013440A461A70BB680133BB60BB68032B56
:100AAC00CDDDFB680133FB60FB68FF2BC4DD00BFB1
:100ABC0000BF1437BD4680BC704700BF64090020DE
:100ACC0080B487B000AF0023FB754BE0FB7D694A17
:100ADC00D35C1A4613465B001344674A1344BB604D
:100AEC00FB7DDB00FB71FB7D644A32F813305B0A43
:100AFC009BB2BB71FB7D614A32F81330C3F3080320
:100B0C00BB80BB79082B01D90823BB710023BB75B3
:100B1C0022E0FA79BB7D1A44594913465B00134411
:100B2C000B4400221A70FA79BB7D1A4454491346BF
:100B3C005B0013440B44013300221A70FA79BB7D1D
:100B4C001A444F4913465B0013440B4402330022F2
:100B5C001A70BB7D0133BB75BB7D072BD9D9FB7DCF
:100B6C000133FB75FB7D042BB0D900237B7578E03A
:100B7C007B7D05333F4AD35C1A4613465B00134416
:100B8C003D4A13443B617B7D1A4652001344DBB251
:100B9C002833FB7300233B755DE07B7D1A465200C6
:100BAC001344DAB23B7D1344BB73364B1B781A46A5
:100BBC00BB7B42FA03F303F00103002B28D0FA7B32
:100BCC003B7D1A443B6918782D4913465B0013444E
:100BDC000B4402461A703B690133F97B3A7D0A4497
:100BEC001878274913465B0013440B440133024623
:100BFC001A703B690233F97B3A7D0A441878204914
:100C0C0013465B0013440B44023302461A701FE078
:100C1C00FA7B3B7D1A441A4913465B0013440B4480
:100C2C0000221A70FA7B3B7D1A44154913465B006F
:100C3C0013440B44013300221A70FA7B3B7D1A4497
:100C4C000F4913465B0013440B44023300221A7005
:100C5C003B7D01333B753B7D022B9ED97B7D013364
:100C6C007B757B7D012B83D900BF00BF1C37BD4634
:100C7C0080BC70476C0D0020B0BD0008740D0020C6
:100C8C00A40600207E0D002080B582B000AFFFF7D7
:100C9C00CDFE8A2200211B480AF064FA40F232226F
:100CAC00002119480AF05EFA0A22002117480AF0BE
:100CBC0059FA174B00221A70164B00221A70164B59
:100CCC0001221A700023FB7107E0FB79114A11789D
:100CDC00124AD154FB790133FB71FB79062BF4D901
:100CEC000F4B00221A700F4B00221A600E4B002281
:100CFC001A7000F00BF9012000F010FE00BF08374D
:100D0C00BD4680BDA406002030070020740D0020D5
:100D1C007E0D0020650D0020660D00206C0D00205E
:100D2C00640D0020680D0020670D002080B485B094
:100D3C0000AF0346FB710B46BB7113467B7100235E
:100D4C00FB731CE0FA7B124913465B0013440B4403
:100D5C00FA791A70FA7B0E4913465B0013440B4464
:100D6C000133BA791A70FA7B094913465B001344B4
:100D7C000B4402337A791A70FB7B0133FB73FB7BD8
:100D8C002D2BDFD900BF00BF1437BD4680BC704788
:100D9C00A406002080B500AF002200210020FFF740
:100DAC00C5FF00F0B3F800BF80BD000080B485B073
:100DBC0000AF03460A46FB711346BB80FB79042B3C
:100DCC0021D8BB88B3F5805F02D340F6FF73BB809C
:100DDC00FB79104A32F81330BB81BA88BB89D31A1D
:100DEC009BB2FB81B7F90E30002B03DAFB895B4217
:100DFC009BB2FB81FB890C2B07D9FB790549BA887F
:100E0C0021F8132002E000BF00E000BF1437BD46FC
:100E1C0080BC7047740D002080B483B000AF0346D3
:100E2C00FB71044AFB79137000BF0C37BD4680BCC4
:100E3C00704700BF7E0D002080B582B000AF00F07F
:100E4C0063FD78602B4B1B78002B02D0012B11D04B
:100E5C0040E0294B1B687A68D31AB3F5167F3DD353
:100E6C00244B01221A70254B00221A70224A7B68EF
:100E7C00136033E0204B1B687A68D31A312B2FD9BF
:100E8C001D4B1B6832331C4A13601C4B1B781A46D3
:100E9C001B4B19781B4B9954184B1B780133DAB246
:100EAC00164B1A70154B1B78062B19D9144B1A7844
:100EBC00154B1A70124B1B780133DBB203F007038E
:100ECC00DAB20F4B1A700B4B00221A700A4A7B686D
:100EDC00136005E0074B00221A7002E000BF00E02F
:100EEC0000BFFFF7EDFD00F011F800BF0837BD465D
:100EFC0080BD00BF640D0020680D0020670D002030
:100F0C00660D00206C0D0020650D002080B582B0B0
:100F1C0000AF00BF274805F0AEFB0346012BF9D10B
:100F2C00254B7B600023FB7037E0FA78234913468E
:100F3C005B0013440B4401331B789B00204A134481
:100F4C001B681A467B681A607B6804337B60FA78EE
:100F5C001A4913465B0013440B441B789B00184A38
:100F6C0013441B681A467B681A607B6804337B60E9
:100F7C00FA78124913465B0013440B4402331B7876
:100F8C009B000F4A13441B681A467B681A607B68E7
:100F9C0004337B60FB780133FB70FB782D2BC4D9B9
:100FAC0040F232220449034805F098FA00BF083792
:100FBC00BD4680BD5C0E002030070020A40600203A
:100FCC006409002080B500AF00F046FC00F013F877
:100FDC0000F066F900F046F900F0AAF800F0D6F837
:100FEC0000F068F800F008F909F0E6FBFFF7E6FA04
:100FFC00FFF702FBFCE780B594B000AF07F12803C4
:10100C002822002118460AF0ADF807F1140300223B
:10101C001A605A609A60DA601A613B1D00221A60ED
:10102C005A609A60DA600123BB624FF48033FB6232
:10103C004FF400333B630123BB6302237B644FF407
:10104C008033BB644FF48013FB6407F1280318460C
:10105C0004F03CF80346002B01D000F077F90F2385
:10106C007B610223BB610023FB614FF480633B6215
:10107C0000237B6207F114030121184604F0A8FA3F
:10108C000346002B01D000F061F912237B604FF472
:10109C008043FB604FF480033B613B1D184604F01A
:1010AC0027FC0346002B01D000F050F900BF50374D
:1010BC00BD4680BD80B584B000AF3B1D00221A60D8
:1010CC005A609A60184B194A1A60174B00229A60A2
:1010DC00154B00221A73144B00221A75124B4FF445
:1010EC006022DA61104B00225A600F4B01221A6108
:1010FC000D4800F037FC0346002B01D000F026F918
:10110C0000237B600123BB600023FB603B1D194661
:10111C00054800F0EBFE0346002B01D000F016F959
:10112C0000BF1037BD4680BD800D0020002401405B
:10113C0080B500AF124B134A1A60114B124A5A6019
:10114C000F4B00229A600E4B0022DA600C4B4FF4CE
:10115C0080421A610A4B00225A61094B00229A61A3
:10116C00074B0022DA61064B00221A62044801F098
:10117C00AFFD0346002B01D000F0E8F800BF80BDA6
:10118C00B00D002000540040A086010080B500AFD7
:10119C00174B184A1A60164B4FF482725A60144B54
:1011AC0000229A60124B0022DA60114B00221A6165
:1011BC000F4B00225A610E4B4FF400729A610C4B8C
:1011CC000822DA610A4B00221A62094B00225A6289
:1011DC00074B00229A62064B0A22DA62044804F09A
:1011EC00F3FC0346002B01D000F0B0F800BF80BD2B
:1011FC00040E00200030014080B500AF174B184A98
:10120C001A60164B4FF482725A60144B00229A608B
:10121C00124B0022DA60114B00221A610F4B002294
:10122C005A610E4B4FF400729A610C4B1022DA612A
:10123C000A4B00221A62094B00225A62074B002209
:10124C009A62064B0A22DA62044804F0BDFC03469B
:10125C00002B01D000F07AF800BF80BD5C0E00209E
:10126C000038004080B582B000AF0C4B5B690B4A74
:10127C0043F001035361094B5B6903F001037B608D
:10128C007B68002200210F2001F049F90F2001F0AA
:10129C0062F900BF0837BD4680BD00BF0010024098
:1012AC0080B588B000AF07F1100300221A605A60B5
:1012BC009A60DA60234B9B69224A43F020039361C6
:1012CC00204B9B6903F02003FB60FB681D4B9B6963
:1012DC001C4A43F0040393611A4B9B6903F004030B
:1012EC00BB60BB68174B9B69164A43F008039361BC
:1012FC00144B9B6903F008037B607B68012201217E
:10130C00114801F0CCFC01233B6101237B610023DC
:10131C00BB610223FB6107F1100319460A4801F077
:10132C0023FB40F61E433B6100237B610123BB6121
:10133C0007F110031946044801F016FB00BF2037D3
:10134C00BD4680BD00100240000C014080B400AFCF
:10135C0072B600BFFEE7000080B500AF024800F097
:10136C0059FF00BF80BD00BF800D002080B586B046
:10137C0000AF3B1D00221A605A609A600123BB60CB
:10138C000723FB600023FB754EE0FB7D2B4A52F8D4
:10139C0023307B603B1D1946294800F0A7FD2848E7
:1013AC0000F0B8FB0A21264800F08EFC0346002B07
:1013BC0034D1234800F08EFD3861224B1B78002B72
:1013CC0006D0FB7D3A6991B21F4A22F8131010E047
:1013DC00FB7D1D4A32F813301A4613465B0013444A
:1013EC001A463B6913449A08FB7D91B2164A22F8BF
:1013FC001310FB7D144A32F813301A464FF47A73EB
:10140C0003FB02F2114BA3FB0213D21A5208134432
:10141C00DA0AFB7D91B20E4A22F81310084800F04C
:10142C0027FCFB7D0133FB75FB7D042BADD9054BF4
:10143C0000221A7000BF1837BD4680BDC8BD000819
:10144C00800D002000000020040F0020010110007E
:10145C00F80E002080B400AF024B1846BD4680BC8D
:10146C00704700BFF80E002080B400AF024B184646
:10147C00BD4680BC704700BF040F002080B485B00F
:10148C0000AF154B9B69144A43F001039361124B57
:10149C009B6903F00103BB60BB680F4BDB690E4A11
:1014AC0043F08053D3610C4BDB6903F080537B60BA
:1014BC007B680A4B5B68FB60FB6823F0E063FB60B6
:1014CC00FB6843F00073FB60044AFB68536000BF89
:1014DC001437BD4680BC704700100240000001402C
:1014EC0080B588B000AF786007F1100300221A6055
:1014FC005A609A60DA607B681B68144A934221D167
:10150C00134B9B69124A43F400739361104B9B6914
:10151C0003F40073FB60FB680D4B9B690C4A43F0B2
:10152C00040393610A4B9B6903F00403BB60BB6823
:10153C001F233B6103237B6107F110031946054808
:10154C0001F012FA00BF2037BD4680BD00240140D7
:10155C00001002400008014080B588B000AF7860F0
:10156C0007F1100300221A605A609A60DA607B68F7
:10157C001B68154A934223D1144B9B69134A43F0C1
:10158C0008039361114B9B6903F00803FB60FB6834
:10159C00C0233B6112237B610323FB6107F1100322
:1015AC0019460B4801F0E0F9084BDB69074A43F494
:1015BC000013D361054BDB6903F40013BB60BB68FC
:1015CC0000BF2037BD4680BD0054004000100240D3
:1015DC00000C014080B58AB000AF786007F11803A9
:1015EC0000221A605A609A60DA607B681B68444A71
:1015FC00934230D1434B9B69424A43F480539361ED
:10160C00404B9B6903F480537B617B693D4B9B6929
:10161C003C4A43F0040393613A4B9B6903F0040387
:10162C003B613B69A023BB610223FB6103237B620B
:10163C0007F118031946344801F096F94023BB61B1
:10164C000023FB6100233B6207F1180319462E4867
:10165C0001F08AF94FE07B681B682C4A93424AD10F
:10166C00284BDB69274A43F48043D361254BDB6964
:10167C0003F48043FB60FB68224B9B69214A43F0D7
:10168C00080393611F4B9B6903F00803BB60BB68A5
:10169C004FF42043BB610223FB6103237B6207F100
:1016AC00180319461A4801F05FF91A4B1A4A1A60C6
:1016BC00184B10225A60174B00229A60154B80224F
:1016CC00DA60144B00221A61124B00225A61114B42
:1016DC0000229A610F4B0022DA610E4800F056FF8F
:1016EC000346002B01D0FFF731FE7B68094A9A6450
:1016FC00084A7B68536200BF2837BD4680BD00BFD7
:10170C000030014000100240000801400038004049
:10171C00000C0140B40E00205800024080B400AF11
:10172C00FEE780B400AFFEE780B400AFFEE780B404
:10173C0000AFFEE780B400AFFEE780B400AF00BF9F
:10174C00BD4680BC704780B400AF00BFBD4680BCB6
:10175C00704780B400AF00BFBD4680BC704780B5F9
:10176C0000AF00F0BFF800BF80BD000080B500AF37
:10177C00024800F0C5FF00BF80BD00BFB40E0020C2
:10178C0080B500AF024802F05BF800BF80BD00BF1F
:10179C00E01B002080B586B000AF7860144A154B72
:1017AC00D31A7B617B693B61134B1B68002B02D105
:1017BC00114B124A1A60104B1A687B6813443A6931
:1017CC009A4207D209F0D6FC03460C221A604FF05D
:1017DC00FF3309E0084B1B68FB60074B1A687B68FA
:1017EC001344054A1360FB6818461837BD4680BD84
:1017FC000050002000040000100F002020220020C8
:10180C0080B400AF00BFBD4680BC7047FFF7F8FF47
:10181C000B480C490C4A002302E0D458C450043342
:10182C00C4188C42F9D3094A094C002301E0136017
:10183C000432A242FBD309F0A3FCFFF7C3FB7047B1
:10184C0000000020D001002058BE0008D00100206C
:10185C0020220020FEE7000080B500AF084B1B687B
:10186C00074A43F010031360032000F04DFE0F20D5
:10187C0000F008F8FFF702FE0023184680BD00BFF9
:10188C000020024080B582B000AF7860124B1A681D
:10189C00124B1B7819464FF47A73B3FBF1F3B2FB7E
:1018AC00F3F3184600F065FE0346002B01D001232C
:1018BC000EE07B680F2B0AD8002279684FF0FF30BE
:1018CC0000F02DFE064A7B681360002300E0012324
:1018DC0018460837BD4680BD040000200C000020CF
:1018EC000800002080B400AF054B1B781A46054B4E
:1018FC001B681344034A136000BFBD4680BC70478D
:10190C000C000020140F002080B400AF024B1B68A9
:10191C001846BD4680BC7047140F002080B584B0BB
:10192C0000AF7860FFF7F0FFB8607B68FB60FB6886
:10193C00B3F1FF3F05D00A4B1B781A46FB681344E2
:10194C00FB6000BFFFF7E0FF0246BB68D31AFA68E2
:10195C009A42F7D800BF00BF1037BD4680BD00BF0C
:10196C000C00002080B586B000AF78600023FB75BA
:10197C0000233B610023BB600023FB607B68002BD2
:10198C0001D10123BEE07B689B68002B7B689B6ABE
:10199C00002B09D17B680022DA627B68002283F875
:1019AC0024207868FFF79CFD786800F0F1FB034673
:1019BC00FB757B689B6A03F01003002B40F0998049
:1019CC00FB7D002B40F095807B689B6A23F4885349
:1019DC0023F0020343F002027B689A627B685A6828
:1019EC007B68DB691A437B681B7B5B001343BA681B
:1019FC001343BB607B689B68B3F5807F03D07B6827
:101A0C009B68012B02D14FF4807300E000233A69EC
:101A1C0013433B617B681B7D012B19D17B681B7BBE
:101A2C00002B09D17B689B69013B5A033B6913432B
:101A3C0043F400633B610BE07B689B6A43F020023C
:101A4C007B689A627B68DB6A43F001027B68DA622E
:101A5C007B681B685B6823F469417B681B683A6987
:101A6C000A435A607B681B689A68284B13407A6853
:101A7C001268B9680B4393607B689B68B3F5807FF1
:101A8C0003D07B689B68012B04D17B681B69013BED
:101A9C001B05FB607B681B68DB6A23F470017B68A9
:101AAC001B68FA680A43DA627B681B689A68184BF1
:101ABC001340BA689A420BD17B680022DA627B68C9
:101ACC009B6A23F0030343F001027B689A6218E0DF
:101ADC007B689B6A23F0120343F010027B689A62C6
:101AEC007B68DB6A43F001027B68DA620123FB75D9
:101AFC0007E07B689B6A43F010027B689A620123C3
:101B0C00FB75FB7D18461837BD4680BDFDF7E1FF20
:101B1C00FE0E1FFF80B584B000AF78600023FB730E
:101B2C007B6893F82430012B01D1022398E07B6869
:101B3C00012283F82420786800F0D0FA0346FB7366
:101B4C00FB7B002B40F087807B689B6A23F44073FF
:101B5C0023F0010343F480727B689A627B681B68F4
:101B6C00414A934205D1414B5B6803F47023002B2F
:101B7C0015D17B689B6A23F480127B689A627B6820
:101B8C001B685B6803F48063002B26D07B689B6A20
:101B9C0023F4405343F480527B689A621DE07B68C7
:101BAC009B6A43F480127B689A627B681B682F4A9D
:101BBC00934204D07B681B682B4A93420DD12B4B6C
:101BCC005B6803F48063002B07D07B689B6A23F46B
:101BDC00405343F480527B689A627B689B6A03F49F
:101BEC008053002B06D07B68DB6A23F006027B68EF
:101BFC00DA6202E07B680022DA627B68002283F8FA
:101C0C0024207B681B686FF002021A607B681B68DB
:101C1C009B6803F46023B3F5602F13D17B681B68BA
:101C2C00114A934205D1114B5B6803F47023002BCE
:101C3C0008D17B681B689A687B681B6842F4A00219
:101C4C009A600CE07B681B689A687B681B6842F49E
:101C5C0080129A6003E07B68002283F82420FB7BCF
:101C6C0018461037BD4680BD0028014000240140B5
:101C7C0080B584B000AF78600023FB737B6893F869
:101C8C002430012B01D102231AE07B68012283F856
:101C9C002420786800F07CFA0346FB73FB7B002B56
:101CAC0009D17B689B6A23F4885323F0010343F02A
:101CBC0001027B689A627B68002283F82420FB7BFC
:101CCC0018461037BD4680BD90B587B000AF786020
:101CDC00396000237B610023FB6000233B61FFF72D
:101CEC0013FE78617B681B689B6803F48073002B80
:101CFC000BD07B689B6A43F020027B689A627B68FE
:101D0C00002283F824200123D3E07B681B685B68E6
:101D1C0003F48073002B31D17B681B68DB6A03F4FE
:101D2C007003002B2AD121E03B68B3F1FF3F1DD09B
:101D3C003B68002B07D0FFF7E7FD02467B69D31AFF
:101D4C003A689A4212D27B681B681B6803F0020344
:101D5C00002B0BD17B689B6A43F004027B689A6270
:101D6C007B68002283F824200323A2E07B681B6895
:101D7C001B6803F00203002BD6D070E04F4B1C689D
:101D8C00022003F06BFE0346B4FBF3F27B681B6886
:101D9C0019694B4B0B40002B18D17B681B68D96819
:101DAC00484B0B40002B11D17B681B681969464BC3
:101DBC000B40002B08D17B681B68D968434B0B4048
:101DCC00002B01D1142320E029231EE07B681B6823
:101DDC0019693D4B0B40002B06D17B681B68D968F9
:101DEC003A4B0B40002B0DD07B681B681969384BA4
:101DFC000B40002B08D17B681B68D968344B0B4017
:101E0C00002B01D1542300E0FC2302FB03F33B61C4
:101E1C0021E03B68B3F1FF3F1AD03B68002B07D0A1
:101E2C00FFF772FD02467B69D31A3A689A420FD2C9
:101E3C00FB683A699A420BD97B689B6A43F00402AF
:101E4C007B689A627B68002283F82420032330E0AD
:101E5C00FB680133FB60FB683A699A42D9D87B680E
:101E6C001B686FF012021A607B689B6A43F4007265
:101E7C007B689A627B681B689B6803F46023B3F5EC
:101E8C00602F15D17B681B7B002B11D17B689B6A63
:101E9C0023F480727B689A627B689B6A03F480539C
:101EAC00002B05D17B689B6A43F001027B689A6228
:101EBC00002318461C37BD4690BD00BF040000200F
:101ECC0024499224244992009224491292244900D4
:101EDC004992240080B483B000AF78607B681B68A3
:101EEC00DB6C18460C37BD4680BC704780B485B09F
:101EFC0000AF786039600023FB730023BB607B6804
:101F0C0093F82430012B01D10223DCE07B68012201
:101F1C0083F824203B685B68062B1CD87B681B6805
:101F2C00596B3B685A6813469B001344053B1F22B0
:101F3C0002FA03F3DB4319403B6818683B685A68A4
:101F4C0013469B001344053B00FA03F27B681B68A5
:101F5C000A435A633CE03B685B680C2B1CD87B68DB
:101F6C001B68196B3B685A6813469B001344233B50
:101F7C001F2202FA03F3DB4319403B6818683B68E5
:101F8C005A6813469B001344233B00FA03F27B6808
:101F9C001B680A431A631BE07B681B68D96A3B68A1
:101FAC005A6813469B001344413B1F2202FA03F369
:101FBC00DB4319403B6818683B685A6813469B0022
:101FCC001344413B00FA03F27B681B680A43DA6254
:101FDC003B681B68092B1CD97B681B68D9683B685C
:101FEC001A6813465B0013441E3B072202FA03F3E4
:101FFC00DB4319403B6898683B681A6813465B00E2
:10200C0013441E3B00FA03F27B681B680A43DA6038
:10201C0019E07B681B6819693B681A6813465B00FA
:10202C001344072202FA03F3DB4319403B68986818
:10203C003B681A6813465B00134400FA03F27B6892
:10204C001B680A431A613B681B68102B03D03B6862
:10205C001B68112B32D17B681B681D4A934225D11A
:10206C007B681B689B6803F40003002B26D17B68FC
:10207C001B689A687B681B6842F400029A603B6894
:10208C001B68102B1AD1134B1B68134AA2FB03239A
:10209C009A0C13469B0013445B00BB6002E0BB68C8
:1020AC00013BBB60BB68002BF9D107E07B689B6AE6
:1020BC0043F020027B689A620123FB737B68002249
:1020CC0083F82420FB7B18461437BD4680BC704730
:1020DC00002401400400002083DE1B4380B584B043
:1020EC0000AF78600023FB600023BB607B681B683B
:1020FC009B6803F00103012B40D07B681B689A6836
:10210C007B681B6842F001029A601F4B1B681F4AD8
:10211C00A2FB03239B0CBB6002E0BB68013BBB60D2
:10212C00BB68002BF9D1FFF7EFFBF8601FE0FFF75E
:10213C00EBFB0246FB68D31A022B18D97B681B6891
:10214C009B6803F00103012B11D07B689B6A43F061
:10215C0010027B689A627B68DB6A43F001027B6841
:10216C00DA627B68002283F82420012307E07B6875
:10217C001B689B6803F00103012BD8D10023184680
:10218C001037BD4680BD00BF0400002083DE1B431A
:10219C0080B584B000AF78600023FB607B681B685F
:1021AC009B6803F00103012B2ED17B681B689A6896
:1021BC007B681B6822F001029A60FFF7A5FBF860B0
:1021CC001BE0FFF7A1FB0246FB68D31A022B14D9C4
:1021DC007B681B689B6803F00103012B0DD17B68A6
:1021EC009B6A43F010027B689A627B68DB6A43F05F
:1021FC0001027B68DA62012307E07B681B689B683D
:10220C0003F00103012BDCD0002318461037BD4628
:10221C0080BD000090B587B000AF78600023FB75DF
:10222C000023FB607B6893F82430012B01D102233F
:10223C0097E07B68012283F824207868FFF7A8FFD9
:10224C000346FB757868FFF749FF0346FB75FB7D7A
:10225C00002B40F081807B689B6A23F4885323F029
:10226C00020343F002027B689A62404B1C68022016
:10227C0003F0F4FB0346B4FBF3F35B00FB6002E0FA
:10228C00FB68013BFB60FB68002BF9D17B681B688A
:10229C009A687B681B6842F008029A60FFF734FB6F
:1022AC0038611BE0FFF730FB02463B69D31A0A2B5F
:1022BC0014D97B681B689B6803F00803002B0DD0B6
:1022CC007B689B6A23F0120343F010027B689A62CE
:1022DC007B68002283F82420012342E07B681B6882
:1022EC009B6803F00803002BDCD17B681B689A68A1
:1022FC007B681B6842F004029A60FFF705FB3861AB
:10230C001BE0FFF701FB02463B69D31A0A2B14D9D9
:10231C007B681B689B6803F00403002B0DD07B6863
:10232C009B6A23F0120343F010027B689A627B686D
:10233C00002283F82420012313E07B681B689B6830
:10234C0003F00403002BDCD17B689B6A23F00303AE
:10235C0043F001027B689A627B68002283F8242098
:10236C00FB7D18461C37BD4690BD00BF0400002005
:10237C0080B485B000AF78607B6803F00703FB6026
:10238C000C4BDB68BB60BA684FF6FF031340BB60B5
:10239C00FB681A02BB68134343F0BF6343F400337A
:1023AC00BB60044ABB68D36000BF1437BD4680BC19
:1023BC00704700BF00ED00E080B400AF044BDB6859
:1023CC001B0A03F007031846BD4680BC704700BFCC
:1023DC0000ED00E080B483B000AF0346FB7197F9C9
:1023EC000730002B0BDBFB7903F01F02064997F932
:1023FC0007305B09012000FA02F241F8232000BFEC
:10240C000C37BD4680BC704700E100E080B483B05F
:10241C0000AF03463960FB7197F90730002B0ADBDC
:10242C003B68DAB20C4997F907301201D2B20B446F
:10243C0083F800230AE03B68DAB20849FB7903F021
:10244C000F03043B1201D2B20B441A7600BF0C37B7
:10245C00BD4680BC704700BF00E100E000ED00E02D
:10246C0080B489B000AFF860B9607A60FB6803F0A3
:10247C000703FB61FB69C3F10703042B28BF04238B
:10248C00BB61FB690433062B02D9FB69033B00E0FB
:10249C0000237B614FF0FF32BB6902FA03F3DA438E
:1024AC00BB681A407B699A404FF0FF317B6901FA97
:1024BC0003F3D9437B680B40134318462437BD46BE
:1024CC0080BC704780B582B000AF78607B68013B00
:1024DC00B3F1807F01D301230FE00A4A7B68013BF3
:1024EC0053600F214FF0FF30FFF790FF054B002298
:1024FC009A60044B07221A60002318460837BD4621
:10250C0080BD00BF10E000E080B582B000AF786005
:10251C007868FFF72DFF00BF0837BD4680BD80B53A
:10252C0086B000AF0346B9607A60FB7300237B6111
:10253C00FFF742FF78617A68B9687869FFF790FF16
:10254C00024697F90F3011461846FFF75FFF00BFA0
:10255C001837BD4680BD80B582B000AF0346FB7115
:10256C0097F907301846FFF735FF00BF0837BD460F
:10257C0080BD80B582B000AF78607868FFF7A2FFAD
:10258C00034618460837BD4680BD000080B485B0B0
:10259C0000AF78600023FB607B68002B01D1012326
:1025AC0043E07B681B681A46224B1344224AA2FB69
:1025BC0003231B099A007B681A647B681F4ADA6341
:1025CC007B68022283F821207B681B681B68FB60F8
:1025DC00FB6823F47F5323F03003FB607B685A685D
:1025EC007B689B681A437B68DB681A437B681B69B2
:1025FC001A437B685B691A437B689B691A437B6847
:10260C00DB691343FA681343FB607B681B68FA6849
:10261C001A607B6800229A637B68012283F8212070
:10262C007B68002283F82020002318461437BD460F
:10263C0080BC7047F8FFFDBFCDCCCCCC0000024075
:10264C0080B586B000AFF860B9607A603B6000235B
:10265C00FB75FB6893F82030012B01D102234BE072
:10266C00FB68012283F82020FB6893F82130DBB251
:10267C00012B3AD1FB68022283F82120FB6800224F
:10268C009A63FB681B681A68FB681B6822F00102DE
:10269C001A603B687A68B968F86800F037F9FB682B
:1026AC00DB6A002B08D0FB681B681A68FB681B6888
:1026BC0042F00E021A600FE0FB681B681A68FB6898
:1026CC001B6822F004021A60FB681B681A68FB681E
:1026DC001B6842F00A021A60FB681B681A68FB68E8
:1026EC001B6842F001021A6005E0FB68002283F8C7
:1026FC0020200223FB75FB7D18461837BD4680BD94
:10270C0080B584B000AF78607B68DB6B1B68FB60C6
:10271C007B681B681B68BB607B681B6C04229A403F
:10272C00FB681340002B4FD0BB6803F00403002B55
:10273C004AD07B681B681B6803F02003002B07D171
:10274C007B681B681A687B681B6822F004021A609D
:10275C007B681B68664A934229D07B681B68654A74
:10276C00934222D07B681B68634A93421AD07B68E1
:10277C001B68624A934212D07B681B68604A934282
:10278C000AD07B681B685F4A934202D14FF48003E6
:10279C000EE04FF080630BE04FF4802308E04FF421
:1027AC00804305E04FF4806302E0402300E0042303
:1027BC00554A53607B68DB6A002B00F094807B6881
:1027CC00DB6A786898478EE07B681B6C02229A4023
:1027DC00FB681340002B56D0BB6803F00203002BA0
:1027EC0051D07B681B681B6803F02003002B0BD1B6
:1027FC007B681B681A687B681B6822F00A021A60E7
:10280C007B68012283F821207B681B68384A93423D
:10281C0029D07B681B68374A934222D07B681B689F
:10282C00354A93421AD07B681B68344A934212D0C3
:10283C007B681B68324A93420AD07B681B68314A1A
:10284C00934202D14FF400130EE04FF000730BE0F3
:10285C004FF4003308E04FF4005305E04FF40073DD
:10286C0002E0202300E00223274A53607B68002209
:10287C0083F820207B689B6A002B34D07B689B6A92
:10288C00786898472FE07B681B6C08229A40FB689D
:10289C001340002B28D0BB6803F00803002B23D077
:1028AC007B681B681A687B681B6822F00E021A6032
:1028BC007B681A6C7B68DB6B012101FA02F25A60AF
:1028CC007B6801229A637B68012283F821207B6854
:1028DC00002283F820207B681B6B002B04D07B68C4
:1028EC001B6B7868984700BF00BF1037BD4680BD92
:1028FC00080002401C00024030000240440002402C
:10290C00580002406C0002400000024080B485B0C8
:10291C0000AFF860B9607A603B60FB681A6CFB68CA
:10292C00DB6B012101FA02F25A60FB681B683A6802
:10293C005A60FB685B68102B08D1FB681B687A68CF
:10294C009A60FB681B68BA68DA6007E0FB681B6872
:10295C00BA689A60FB681B687A68DA6000BF143743
:10296C00BD4680BC7047000080B48BB000AF78606F
:10297C00396000237B6200233B6269E101227B6AA0
:10298C0002FA03F3FB613B681B68FA691340BB61F5
:10299C00BA69FB699A4240F058813B685B689A4A75
:1029AC0093425ED0984A934275D8984A934258D035
:1029BC00964A93426FD8964A934252D0944A934285
:1029CC0069D8944A93424CD0924A934263D8924A23
:1029DC00934246D0904A93425DD8122B2AD8122BA0
:1029EC0059D801A252F823F06F2A0008492A00088E
:1029FC005B2A00089D2A0008A32A0008A32A0008C5
:102A0C00A32A0008A32A0008A32A0008A32A000866
:102A1C00A32A0008A32A0008A32A0008A32A000856
:102A2C00A32A0008A32A0008A32A0008512A000898
:102A3C00652A0008794A934213D02CE03B68DB6886
:102A4C003B6229E03B68DB6804333B6224E03B6873
:102A5C00DB6808333B621FE03B68DB680C333B628E
:102A6C001AE03B689B68002B02D104233B6213E005
:102A7C003B689B68012B05D108233B627B68FA6994
:102A8C001A6109E008233B627B68FA695A6103E02A
:102A9C0000233B6200E000BFBB69FF2B01D87B68C1
:102AAC0001E07B6804337B61BB69FF2B02D87B6A36
:102ABC009B0002E07B6A083B9B003B617B691A68C8
:102ACC000F213B6901FA03F3DB431A40396A3B6976
:102ADC0001FA03F31A437B691A603B685B6803F0E5
:102AEC008053002B00F0B1804D4B9B694C4A43F056
:102AFC00010393614A4B9B6903F00103BB60BB6804
:102B0C00484A7B6A9B08023352F82330FB607B6A8D
:102B1C0003F003039B000F2202FA03F3DB43FA6872
:102B2C001340FB607B68404A934213D07B683F4A5A
:102B3C0093420DD07B683E4A934207D07B683D4A56
:102B4C00934201D1032306E0042304E0022302E0B4
:102B5C00012300E000237A6A02F003029200934002
:102B6C00FA681343FB602F497B6A9B080233FA68AF
:102B7C0041F823203B685B6803F48013002B06D0DC
:102B8C002D4B9A682C49BB6913438B6006E02A4B8A
:102B9C009A68BB69DB43284913408B603B685B68D0
:102BAC0003F40013002B06D0234BDA682249BB69CF
:102BBC001343CB6006E0204BDA68BB69DB431E494C
:102BCC001340CB603B685B6803F40033002B06D0EA
:102BDC00194B5A681849BB6913434B6006E0164BF6
:102BEC005A68BB69DB43144913404B603B685B6814
:102BFC0003F48033002B21D00F4B1A680E49BB69AC
:102C0C0013430B6021E000BF0000321000003110B4
:102C1C000000221000002110000012100000111002
:102C2C00001002400000014000080140000C01406F
:102C3C000010014000140140000401400B4B1A68C5
:102C4C00BB69DB43094913400B607B6A01337B6230
:102C5C003B681A687B6A22FA03F3002B7FF48EAE72
:102C6C0000BF00BF2C37BD4680BC7047000401403C
:102C7C0080B485B000AF78600B467B807B689A6827
:102C8C007B881340002B02D00123FB7301E000234F
:102C9C00FB73FB7B18461437BD4680BC704780B471
:102CAC0083B000AF78600B467B8013467B707B78DB
:102CBC00002B03D07A887B681A6103E07B881A04A6
:102CCC007B681A6100BF0C37BD4680BC70470000A2
:102CDC0080B584B000AF78607B68002B01D10123F4
:102CEC002BE17B6893F83D30DBB2002B06D17B687F
:102CFC00002283F83C207868FEF72EFC7B682422A7
:102D0C0083F83D207B681B681A687B681B6822F07F
:102D1C0001021A607B681B681A687B681B6842F4A6
:102D2C0000421A607B681B681A687B681B6822F477
:102D3C0000421A6002F096FDF8607B685B68814A7D
:102D4C00934207D8FB68804A934294BF0123002327
:102D5C00DBB206E0FB687D4A934294BF012300235B
:102D6C00DBB2002B01D00123E7E0FB68784AA2FB21
:102D7C0003239B0CBB607B681B685B6823F03F01E3
:102D8C007B681B68BA680A435A607B681B681B6ABD
:102D9C0023F03F017B685B686A4A934202D8BB68A8
:102DAC00013309E0BB684FF4967202FB03F3694AE6
:102DBC00A2FB03239B0901337A6812680B4313624D
:102DCC007B681B68DB6923F44F4222F0FF027B68AF
:102DDC005B685C498B4219D8FB68591E7B685B6841
:102DEC005B00B1FBF3F3591C40F6FC730B40002B5A
:102DFC000AD0FB68591E7B685B685B00B1FBF3F380
:102E0C000133C3F30B0351E004234FE07B689B6851
:102E1C00002B11D1FB68581E7B6859680B465B0070
:102E2C000B44B0FBF3F30133C3F30B03002B0CBFC8
:102E3C0001230023DBB212E0FB68581E7B68596843
:102E4C000B469B000B4499000B44B0FBF3F301338E
:102E5C00C3F30B03002B0CBF01230023DBB2002BAD
:102E6C0001D0012322E07B689B68002B0ED1FB680C
:102E7C00581E7B6859680B465B000B44B0FBF3F3A0
:102E8C000133C3F30B0343F400430FE0FB68581EFC
:102E9C007B6859680B469B000B4499000B44B0FBB4
:102EAC00F3F30133C3F30B0343F44043796809682C
:102EBC001343CB617B681B681B6823F0C0017B68E4
:102ECC00DA697B681B6A1A437B681B680A431A60C1
:102EDC007B681B689B6823F4034323F0FF037A6829
:102EEC0011697A68D26811437A6812680B4393604F
:102EFC007B681B68DB6823F0FF017B685A697B6881
:102F0C009B691A437B681B680A43DA607B681B6801
:102F1C001A687B681B6842F001021A607B68002209
:102F2C001A647B68202283F83D207B6800221A6398
:102F3C007B68002283F83E20002318461037BD46DC
:102F4C0080BD00BFA08601007F841E00FF083D00ED
:102F5C0083DE1B43D34D621080B588B002AFF8609E
:102F6C007A601A460B467B8113463B81FEF7CCFCFC
:102F7C007861FB6893F83D30DBB2202B40F0E080A9
:102F8C007B690093192301227049F86800F064F9F9
:102F9C000346002B01D00223D3E0FB6893F83C30AE
:102FAC00012B01D10223CCE0FB68012283F83C20E9
:102FBC00FB681B681B6803F00103012B07D0FB683F
:102FCC001B681A68FB681B6842F001021A60FB68F8
:102FDC001B681A68FB681B6822F400621A60FB68A5
:102FEC00212283F83D20FB68102283F83E20FB68E9
:102FFC0000221A64FB687A685A62FB683A895A851F
:10300C00FB685B8D9AB2FB681A85FB68504ADA62E2
:10301C0079897B693A6AF86800F09CF80346002BC2
:10302C0001D001238DE000233B61FB681B685B69C9
:10303C003B61FB681B689B693B613B6966E07A6995
:10304C00396AF86800F022FA0346002B0DD0FB68B1
:10305C001B6C042B07D1FB681B681A68FB681B6888
:10306C0042F400721A6001236BE0FB685B6A1A7809
:10307C00FB681B681A61FB685B6A5A1CFB685A6226
:10308C00FB685B8D9BB2013B9AB2FB685A85FB686F
:10309C001B8D013B9AB2FB681A85FB681B685B6948
:1030AC0003F00403042B1BD1FB681B8D002B17D0E2
:1030BC00FB685B6A1A78FB681B681A61FB685B6AC1
:1030CC005A1CFB685A62FB685B8D9BB2013B9AB23F
:1030DC00FB685A85FB681B8D013B9AB2FB681A850D
:1030EC007A69396AF86800F019FA0346002B0DD09A
:1030FC00FB681B6C042B07D1FB681B681A68FB6808
:10310C001B6842F400721A6001231AE0FB681B8DE5
:10311C00002B94D1FB681B681A68FB681B6842F48F
:10312C0000721A60FB68202283F83D20FB680022A5
:10313C0083F83E20FB68002283F83C20002300E04B
:10314C00022318461837BD4680BD00BF0200100090
:10315C000000FFFF80B588B002AFF8607A603B607A
:10316C000B467B81FB68DB6A7B617B69082B06D095
:10317C007B69012B03D07B6913F5803F08D1FB6879
:10318C001B681A68FB681B6842F480721A600BE0BB
:10319C00FB681B6B122B07D1FB681B681A68FB685A
:1031AC001B6842F480721A603B6800937B680022B3
:1031BC004FF00111F86800F04FF80346002B0DD0CA
:1031CC00FB681B681B6803F48073B3F5807F03D125
:1031DC00FB684FF400721A64032335E0FB681B692B
:1031EC00B3F5804F08D17B89DBB21A46FB681B68AC
:1031FC0002F0FE021A611BE07B89DB11DBB203F0EB
:10320C000603DBB263F00F03DAB2FB681B681A61CA
:10321C003B687A680E49F86800F098F80346002B72
:10322C0001D0012310E07B89DAB2FB681B681A61BC
:10323C003B687A680749F86800F088F80346002B69
:10324C0001D0012300E0002318461837BD4680BD8D
:10325C00080001000200010080B584B000AFF860E6
:10326C00B9603B601346FB7148E03B68B3F1FF3F2C
:10327C0044D0FEF749FB0246BB69D31A3A689A421E
:10328C0002D33B68002B39D1BB681B0CDBB2012B82
:10329C000DD1FB681B685B69DA43BB6813409BB2BA
:1032AC00002B0CBF01230023DBB21A460CE0FB6899
:1032BC001B689B69DA43BB6813409BB2002B0CBFA5
:1032CC0001230023DBB21A46FB799A4216D1FB6824
:1032DC0000221A63FB68202283F83D20FB68002241
:1032EC0083F83E20FB681B6C43F02002FB681A64D9
:1032FC00FB68002283F83C20012323E0BB681B0CF5
:10330C00DBB2012B0DD1FB681B685B69DA43BB6830
:10331C0013409BB2002B0CBF01230023DBB21A46D7
:10332C000CE0FB681B689B69DA43BB6813409BB2DB
:10333C00002B0CBF01230023DBB21A46FB799A4207
:10334C0093D0002318461037BD4680BD80B584B09D
:10335C0000AFF860B9607A603B6071E0FB681B6895
:10336C005B6903F48063B3F5806F23D1FB681B6842
:10337C001A68FB681B6842F400721A60FB681B68D1
:10338C006FF480625A61FB6800221A63FB6820228A
:10339C0083F83D20FB68002283F83E20FB681B6C01
:1033AC0043F00402FB681A64FB68002283F83C209B
:1033BC00012367E07B68B3F1FF3F41D0FEF7A4FA2D
:1033CC0002463B68D31A7A689A4202D37B68002B78
:1033DC0036D1BB681B0CDBB2012B0CD1FB681B6814
:1033EC005B69DA43BB6813409BB2002B14BF01230B
:1033FC000023DBB20BE0FB681B689B69DA43BB68FC
:10340C0013409BB2002B14BF01230023DBB2002B13
:10341C0016D0FB6800221A63FB68202283F83D203B
:10342C00FB68002283F83E20FB681B6C43F02002F3
:10343C00FB681A64FB68002283F83C20012321E01E
:10344C00BB681B0CDBB2012B0CD1FB681B685B69E6
:10345C00DA43BB6813409BB2002B14BF012300233B
:10346C00DBB20BE0FB681B689B69DA43BB6813405B
:10347C009BB2002B14BF01230023DBB2002B7FF483
:10348C006DAF002318461037BD4680BD80B584B0A3
:10349C0000AFF860B9607A6034E0F86800F086F844
:1034AC000346002B01D0012334E0BB68B3F1FF3F8E
:1034BC0028D0FEF729FA02467B68D31ABA689A42DA
:1034CC0002D3BB68002B1DD1FB681B685B6903F042
:1034DC008003802B16D0FB6800221A63FB68202225
:1034EC0083F83D20FB68002283F83E20FB681B6CB0
:1034FC0043F02002FB681A64FB68002283F83C202E
:10350C00012307E0FB681B685B6903F08003802BD9
:10351C00C3D1002318461037BD4680BD80B584B09A
:10352C0000AFF860B9607A6034E0F86800F03EF8FB
:10353C000346002B01D0012334E0BB68B3F1FF3FFD
:10354C0028D0FEF7E1F902467B68D31ABA689A4292
:10355C0002D3BB68002B1DD1FB681B685B6903F0B1
:10356C000403042B16D0FB6800221A63FB6820228C
:10357C0083F83D20FB68002283F83E20FB681B6C1F
:10358C0043F02002FB681A64FB68002283F83C209D
:10359C00012307E0FB681B685B6903F00403042B41
:1035AC00C3D1002318461037BD4680BD80B483B00C
:1035BC0000AF78607B681B685B6903F48063B3F5CC
:1035CC00806F1BD17B681B686FF480625A617B68CB
:1035DC0000221A637B68202283F83D207B6800223E
:1035EC0083F83E207B681B6C43F004027B681A64F2
:1035FC007B68002283F83C20012300E0002318465E
:10360C000C37BD4680BC704780B584B000AF786085
:10361C007B68002B01D10123E8E07B6893F89132A1
:10362C00DBB2002B06D17B68002283F890227868ED
:10363C0007F0BAFA7B68032283F891227B68002298
:10364C005A717B681B68184603F0D2F97B681868BE
:10365C007B6804330ECB03F0A8F90346002B05D08E
:10366C007B68022283F891220123BFE07B681B68F0
:10367C000021184603F0D6F90346002B05D07B68D1
:10368C00022283F891220123B0E00023FB733EE079
:10369C00FA7B796813469B001344DB000B4411330F
:1036AC0001221A70FA7B796813469B001344DB00E5
:1036BC000B441033FA7B1A70FA7B796813469B0023
:1036CC001344DB000B44133300221A70FA7B796825
:1036DC0013469B001344DB000B44203300221A607A
:1036EC00FA7B796813469B001344DB000B442433AC
:1036FC0000221A60FB7B79685A1C13469B0013440A
:10370C00DB000B4400221A60FB7B0133FB737B68EC
:10371C001B79FA7B9A42BBD30023FB7344E0FA7B00
:10372C00796813469B001344DB000B4403F25113DE
:10373C0000221A70FA7B796813469B001344DB0055
:10374C000B4403F5A873FA7B1A70FA7B796813465D
:10375C009B001344DB000B4403F2531300221A703A
:10376C00FA7B796813469B001344DB000B4403F58A
:10377C00B07300221A60FA7B796813469B001344DD
:10378C00DB000B4403F5B27300221A60FA7B7968F4
:10379C0013469B001344DB000B4403F5B473002267
:1037AC001A60FB7B0133FB737B681B79FA7B9A42B3
:1037BC00B5D37B6818687B6804330ECB03F03EF9F5
:1037CC000346002B05D07B68022283F8912201234B
:1037DC000CE07B6800225A737B68012283F89122EB
:1037EC007B681B68184605F0BEFB00231846103793
:1037FC00BD4680BD80B582B000AF78607B6893F821
:10380C009032012B01D1022316E07B68012283F850
:10381C0090227B681B68184603F0D4F80121786865
:10382C0007F035FC7B681B68184605F092FB7B683B
:10383C00002283F89022002318460837BD4680BD2D
:10384C0080B588B000AF78607B681B68184605F0BF
:10385C0094FBB861BB6903F40043002B03D0786878
:10386C0000F01AFB19E1BB6903F48063002B13D041
:10387C007B681B68B3F844309AB27B681B6822F4EF
:10388C00806292B2A3F84420786807F008FA00210D
:10389C00786800F005F900E1BB6903F48043002B64
:1038AC000CD07B681B68B3F844309AB27B681B68F9
:1038BC0022F4804292B2A3F84420EEE0BB6903F4F8
:1038CC000053002B0CD07B681B68B3F844309AB2C1
:1038DC007B681B6822F4005292B2A3F84420DCE00F
:1038EC00BB6903F48053002B27D07B681B68B3F8AB
:1038FC0040309AB27B681B6822F0040292B2A3F8A3
:10390C0040207B681B68B3F840309AB27B681B6818
:10391C0022F0080292B2A3F84020786807F0F8F978
:10392C007B681B68B3F844309AB27B681B6822F43E
:10393C00805292B2A3F84420AFE0BB6903F4006359
:10394C00002B00F083800023FB7710E07B681B6862
:10395C001A46FB7F9B001A44FB7F128892B25B00D5
:10396C0020333B4423F8182CFB7F0133FB77FB7F80
:10397C00072BEBD97B681B68B3F840309AB27B6895
:10398C001B6842F0010292B2A3F840207B681B68CE
:10399C00B3F840309AB27B681B6822F0010292B2F5
:1039AC00A3F8402000BF7B681B68B3F844309BB27F
:1039BC0003F48063002BF6D07B681B68B3F84430AB
:1039CC009AB27B681B6822F4806292B2A3F84420FE
:1039DC000023FB770FE0FB7F7A6812681146FA7FB1
:1039EC0092000A445B0020333B4433F8183C1380AC
:1039FC00FB7F0133FB77FB7F072BECD97B681B68C4
:103A0C00B3F840309AB27B681B6842F0080292B25D
:103A1C00A3F840207B681B68B3F844309AB27B68EB
:103A2C001B6822F4006292B2A3F844207B681B68E6
:103A3C00B3F840309AB27B681B6842F0040292B231
:103A4C00A3F84020786807F049F926E0BB6903F435
:103A5C000073002B0FD07B681B68B3F844309AB20C
:103A6C007B681B6822F4007292B2A3F84420786839
:103A7C0007F007F911E0BB6903F48073002B0CD03D
:103A8C007B681B68B3F844309AB27B681B6822F4DD
:103A9C00807292B2A3F8442000BF2037BD4680BD8F
:103AAC0080B582B000AF78600B46FB707B6893F8F2
:103ABC009032012B01D1022312E07B68012283F8A2
:103ACC0090227B68FA785A737B681B68FA781146E7
:103ADC00184605F02BFA7B68002283F8902200230D
:103AEC0018460837BD4680BD80B584B000AF7860FD
:103AFC00084611461A460346FB700B463B8013469C
:103B0C00BB700023FB7297F90330002B0EDAFB78A5
:103B1C0003F0070213469B001344DB0010337A6852
:103B2C001344FB60FB6801225A700EE0FB7803F033
:103B3C00070213469B001344DB0003F5A8737A6855
:103B4C001344FB60FB6800225A70FB7803F00703F8
:103B5C00DAB2FB681A703A88FB681A61FB68BA78AB
:103B6C00DA70BB78022B02D1FB6800221A717B68D9
:103B7C0093F89032012B01D102230EE07B680122D5
:103B8C0083F890227B681B68F968184602F074FF72
:103B9C007B68002283F89022FB7A18461037BD46CA
:103BAC0080BD80B584B000AF78600B46FB7097F990
:103BBC000330002B0EDAFB7803F0070213469B0050
:103BCC001344DB0010337A681344FB60FB6801225A
:103BDC005A700EE0FB7803F0070213469B00134467
:103BEC00DB0003F5A8737A681344FB60FB680022C2
:103BFC005A70FB7803F00703DAB2FB681A707B6823
:103C0C0093F89032012B01D102230EE07B68012244
:103C1C0083F890227B681B68F968184603F0ECFA6D
:103C2C007B68002283F89022002318461037BD468B
:103C3C0080BD80B586B000AFF8607A603B600B4603
:103C4C00FB72FB7A03F0070213469B001344DB0064
:103C5C0003F5A873FA6813447B617B697A685A612F
:103C6C007B693A689A617B690022DA617B69002280
:103C7C005A70FB7A03F00703DAB27B691A70FB689F
:103C8C001B687969184603F0A3FC00231846183703
:103C9C00BD4680BD80B483B000AF78600B46FB702E
:103CAC00FB7803F00702796813469B001344DB0092
:103CBC000B4403F5B6731B6818460C37BD4680BC25
:103CCC00704780B586B000AFF8607A603B600B46F9
:103CDC00FB72FB7A03F0070213469B001344DB00D4
:103CEC001033FA6813447B617B697A685A617B698B
:103CFC003A689A617B69012283F824207B693A68CF
:103D0C001A627B690022DA617B6901225A70FB7AA4
:103D1C0003F00703DAB27B691A70FB681B687969D8
:103D2C00184603F055FC002318461837BD4680BDD5
:103D3C0080B584B000AF78600B46FB70FB7803F065
:103D4C0007037A681279934201D901234CE097F961
:103D5C000330002B0EDAFB7803F0070213469B00AE
:103D6C001344DB0010337A681344FB60FB680122B8
:103D7C005A700CE0FA7813469B001344DB0003F5F1
:103D8C00A8737A681344FB60FB6800225A70FB68C6
:103D9C0001229A70FB7803F00703DAB2FB681A7001
:103DAC007B6893F89032012B01D102231CE07B68D5
:103DBC00012283F890227B681B68F968184604F08E
:103DCC00B8FFFB7803F00703002B08D17B681A6857
:103DDC007B6803F526731946104605F0DDF87B6801
:103DEC00002283F89022002318461037BD4680BD70
:103DFC0080B584B000AF78600B46FB70FB7803F0A5
:103E0C000F037A681279934201D9012340E097F9A4
:103E1C000330002B0EDAFB7803F0070213469B00ED
:103E2C001344DB0010337A681344FB60FB680122F7
:103E3C005A700EE0FB7803F0070213469B00134404
:103E4C00DB0003F5A8737A681344FB60FB6800225F
:103E5C005A70FB6800229A70FB7803F00703DAB201
:103E6C00FB681A707B6893F89032012B01D1022306
:103E7C000EE07B68012283F890227B681B68F9684E
:103E8C00184604F0A6FF7B68002283F890220023DA
:103E9C0018461037BD4680BD80B596B000AF78602F
:103EAC00BCE37B681B68B3F84430A7F84E30B7F816
:103EBC004E30DBB203F00F0387F84D3097F84D30DE
:103ECC00002B40F07681B7F84E3003F01003002B36
:103EDC004FD17B681B681B889BB223F4E14323F012
:103EEC007003FB817B681A68FB896FEA43436FEAB6
:103EFC0053439BB213807B6810337B657B681B68D4
:103F0C00B3F850309BB21A467B6D1B78DB00134420
:103F1C0002335B007A681268134403F580631B88D4
:103F2C00C3F309027B6DDA617B6D5A697B6DDB69CA
:103F3C001A447B6D5A610021786806F088FE7B6814
:103F4C005B7BDBB2002B00F069837B6D9B69002BE4
:103F5C0040F064837B685B7BDBB263F07F03DAB297
:103F6C007B681B6892B2A3F84C207B6800225A73C2
:103F7C0054E37B6803F5A8737B657B681B681B881F
:103F8C00A7F84A30B7F84A3003F40063002B34D05A
:103F9C007B681B68B3F850309BB21A467B6D1B785C
:103FAC00DB00134406335B007A681268134403F594
:103FBC0080631B88C3F309027B6DDA617B68186828
:103FCC007B6803F526717B6DDA887B6DDB699BB2B0
:103FDC0005F032F87B681B681B889AB240F68F7329
:103FEC0013403B827B681B683A8A42F0800292B293
:103FFC001A80786806F0FEFD10E3B7F94A30002B02
:10400C0080F20C837B681B681B889AB240F68F7316
:10401C001340FB837B681B68FA8B42F0800292B2E0
:10402C001A807B681B68B3F850309BB21A467B6DC4
:10403C001B78DB00134406335B007A681268134468
:10404C0003F580631B88C3F309027B6DDA617B6D1A
:10405C00DB69002B19D07B6D5B69002B15D07B685D
:10406C0018687B6D59697B6DDA887B6DDB699BB257
:10407C0004F0E2FF7B6D5A697B6DDB691A447B6D42
:10408C005A610021786806F0C7FD7B681B681B88A5
:10409C00A7F84A30B7F84A3003F40063002B40F01D
:1040AC00BD82B7F84A3003F44053B3F5405F00F0DB
:1040BC00B5827B681B68BB617B681B68B3F85030AA
:1040CC009BB21A46BB691344BB61BB6903F20C4338
:1040DC007B617B691B889BB2C3F309039AB27B6932
:1040EC001A807B6D1B693E2B1DD97B6D1B695B098F
:1040FC007B647B6D1B6903F01F03002B02D17B6C6F
:10410C00013B7B647B691B889AB27B6C9BB29B02E4
:10411C009BB213439BB26FEA43436FEA53439AB289
:10412C007B691A8026E07B6D1B69002B0AD17B69A9
:10413C001B889BB26FEA43436FEA53439AB27B6985
:10414C001A8017E07B6D1B695B087B647B6D1B69B8
:10415C0003F00103002B02D07B6C01337B647B6981
:10416C001B889AB27B6C9BB29B029BB213439AB294
:10417C007B691A807B681B681B889BB223F4804385
:10418C0023F070037B827B8A83F480537B827B8A4F
:10419C0083F400537B827B681A687B8A43F07F43ED
:1041AC0043F47F0343F4004343F080039BB213803A
:1041BC0034E27B681B681A4697F84D309B00134419
:1041CC001B88A7F84A30B7F94A30002B80F2FC80E4
:1041DC007B681B681A4697F84D309B0013441B886C
:1041EC009AB240F68F731340A7F848307B681B686F
:1041FC001A4697F84D309B001344B7F8482042F00C
:10420C00800292B21A8097F84D2013469B001344FB
:10421C00DB0003F5A8737A6813447B657B6D1B7B0D
:10422C00002B25D17B681B68B3F850309BB21A4623
:10423C007B6D1B78DB00134406335B007A681268D5
:10424C00134403F580631B88C3F30903A7F85030AC
:10425C00B7F85030002B00F092807B6818687B6DAB
:10426C0059697B6DDA88B7F8503004F0E5FE86E0CA
:10427C007B6DDB78022B0AD1B7F84A301A46796D80
:10428C00786800F0D9F90346A7F8503077E07B68DE
:10429C001B681A467B6D1B789B0013441B889BB2D2
:1042AC0023F4E04323F07003A7F852307B681B68BB
:1042BC001A467B6D1B789B001A44B7F8523043F0BA
:1042CC007F4343F47F0343F4004343F0C0039BB2AA
:1042DC0013807B681B681A467B6D1B789B0013440C
:1042EC001B889BB203F48043002B24D07B681B6893
:1042FC00B3F850309BB21A467B6D1B78DB0013442D
:10430C0002335B007A681268134403F580631B88E0
:10431C00C3F30903A7F85030B7F85030002B2ED058
:10432C007B6818687B6D59697B6D1A89B7F85030BA
:10433C0004F082FE23E07B681B68B3F850309BB21C
:10434C001A467B6D1B78DB00134406335B007A68DE
:10435C001268134403F580631B88C3F30903A7F8A1
:10436C005030B7F85030002B09D07B6818687B6D43
:10437C0059697B6D5A89B7F8503004F05DFE7B6D3E
:10438C00DA69B7F850301A447B6DDA617B6D5A6983
:10439C00B7F850301A447B6D5A617B6D9B69002BCA
:1043AC0005D0B7F850207B6D1B699A4206D27B6D05
:1043BC001B781946786806F02FFC05E07B681B68B3
:1043CC00796D184603F004F9B7F84A3003F080030E
:1043DC00002B00F0238197F84D2013469B001344CB
:1043EC00DB0010337A6813447B657B681B681A46C4
:1043FC0097F84D309B0013441B889BB223F4E14388
:10440C0023F07003A7F842307B681B681A4697F8B4
:10441C004D309B001A44B7F842306FEA43436FEAC1
:10442C0053439BB213807B6DDB78012B40F0A28051
:10443C007B6D00229A617B6D1B7B002B00F09380BF
:10444C00B7F84A3003F04003002B46D07B6D5B7805
:10445C00002B26D17B681B687B627B681B68B3F8DA
:10446C0050309BB21A467B6A13447B627B6D1B787F
:10447C001A017B6A134403F204433B623B6A1B88B8
:10448C009BB2C3F309039AB23B6A1A803B6A1B883E
:10449C009BB26FEA43436FEA53439AB23B6A1A806A
:1044AC0061E07B6D5B78012B5DD17B681B68FB62E7
:1044BC007B681B68B3F850309BB21A46FB6A1344F6
:1044CC00FB627B6D1B781A01FB6A134403F20443F5
:1044DC00BB62BB6A00221A8045E07B681B68FB63E9
:1044EC007B6D5B78002B26D17B681B687B637B68BC
:1044FC001B68B3F850309BB21A467B6B13447B633A
:10450C007B6D1B781A017B6B134403F20C433B63EA
:10451C003B6B1B889BB2C3F309039AB23B6B1A80AB
:10452C003B6B1B889BB26FEA43436FEA53439AB2CF
:10453C003B6B1A8017E07B6D5B78012B13D17B688A
:10454C001B68B3F850309BB21A46FB6B1344FB63E9
:10455C007B6D1B781A01FB6B134403F20C43BB639A
:10456C00BB6B00221A807B6D1B781946786806F0AD
:10457C006EFB53E0B7F84A3003F48073002B46D13E
:10458C007B681B68B3F850309BB21A467B6D1B7866
:10459C00DB00134402335B007A681268134403F5A2
:1045AC0080631B88C3F30903A7F840307B6D9A69BD
:1045BC00B7F840309A4207D97B6D9A69B7F840300A
:1045CC00D21A7B6D9A6102E07B6D00229A617B6D41
:1045DC009B69002B06D17B6D1B781946786806F019
:1045EC0036FB1BE07B6D5A69B7F840301A447B6D83
:1045FC005A617B6DDA69B7F840301A447B6DDA6129
:10460C007B681B68796D184602F0E2FF06E0B7F88C
:10461C004A301A46796D786800F01BF97B681B6884
:10462C00B3F844309BB21BB2002BFFF63AAC00231C
:10463C0018465837BD4680BD80B588B000AFF860CD
:10464C00B9601346FB80FB8803F48043002B7ED0BB
:10465C00FB681B68B3F850309BB21A46BB681B78DA
:10466C00DB00134402335B00FA681268134403F551
:10467C0080631B88C3F309037B83BB689A697B8BBC
:10468C009A4206D3BB689A697B8BD21ABB689A6133
:10469C0002E0BB6800229A61BB689B69002B23D1A6
:1046AC00FB681B681A46BB681B789B0013441B886D
:1046BC009BB223F4804323F070033B833B8B83F446
:1046CC0000533B83FB681B681A46BB681B789B0036
:1046DC001A443B8B43F07F4343F47F0343F4004382
:1046EC0043F080039BB21380FB8803F04003002B44
:1046FC001FD0FB681B681A46BB681B789B001344D1
:10470C001B889BB223F4E04323F07003FB82FB680D
:10471C001B681A46BB681B789B001A44FB8A43F043
:10472C007F4343F47F0343F4004343F0C0039BB245
:10473C0013807B8B002B00F08780FB681868BB68AC
:10474C005969BB681A897B8B04F076FC7CE0FB68AA
:10475C001B68B3F850309BB21A46BB681B78DB0061
:10476C00134406335B00FA681268134403F5806344
:10477C001B88C3F309037B83BB689A697B8B9A42C2
:10478C0006D3BB689A697B8BD21ABB689A6102E02C
:10479C00BB6800229A61BB689B69002B23D1FB6824
:1047AC001B681A46BB681B789B0013441B889BB282
:1047BC0023F4804323F07003FB83FB8B83F40053BF
:1047CC00FB83FB681B681A46BB681B789B001A446A
:1047DC00FB8B43F07F4343F47F0343F4004343F0EC
:1047EC0080039BB21380FB8803F04003002B1FD186
:1047FC00FB681B681A46BB681B789B0013441B881C
:10480C009BB223F4E04323F07003BB83FB681B686B
:10481C001A46BB681B789B001A44BB8B43F07F4342
:10482C0043F47F0343F4004343F0C0039BB2138073
:10483C007B8B002B08D0FB681868BB685969BB6878
:10484C005A897B8B04F0F8FB7B8B18462037BD46CE
:10485C0080BD80B5A4B000AFF860B9601346FB8092
:10486C00FB8803F04003002B00F0DD81FB681B6824
:10487C00B3F850309BB21A46BB681B78DB0013446C
:10488C0002335B00FA681268134403F580631B88DB
:10489C00C3F30903A7F88630BB689A69B7F886306A
:1048AC009A4207D9BB689A69B7F88630D21ABB68A6
:1048BC009A6102E0BB6800229A61BB689B69002B7D
:1048CC0040F0B980BB685B78002B26D1FB681B6875
:1048DC00FB62FB681B68B3F850309BB21A46FB6A4C
:1048EC001344FB62BB681B781A01FB6A134403F286
:1048FC000443BB62BB6A1B889BB2C3F309039AB225
:10490C00BB6A1A80BB6A1B889BB26FEA43436FEA8F
:10491C0053439AB2BB6A1A801AE0BB685B78012BCE
:10492C0016D1FB681B687B63FB681B68B3F85030BF
:10493C009BB21A467B6B13447B63BB681B781A01D2
:10494C007B6B134403F204433B633B6B00221A80E2
:10495C00FB681B687B62BB685B78002B26D1FB680D
:10496C001B68FB61FB681B68B3F850309BB21A469E
:10497C00FB691344FB61BB681B781A01FB69134488
:10498C0003F20C43BB61BB691B889BB2C3F30903E5
:10499C009AB2BB691A80BB691B889BB26FEA43430E
:1049AC006FEA53439AB2BB691A8017E0BB685B7815
:1049BC00012B13D1FB681B68B3F850309BB21A461D
:1049CC007B6A13447B62BB681B781A017B6A1344B5
:1049DC0003F20C433B623B6A00221A80BB681B78D3
:1049EC001946F86806F033F9FB8803F48043002B72
:1049FC0000F0FC82FB681B681A46BB681B789B00A6
:104A0C0013441B889BB223F4E04323F07003FB8216
:104A1C00FB681B681A46BB681B789B001A44FB8A10
:104A2C0043F07F4343F47F0343F4404343F080035C
:104A3C009BB21380DAE2FB8803F48043002B21D075
:104A4C00FB681B681A46BB681B789B0013441B88C9
:104A5C009BB223F4E04323F07003A7F88A30FB6881
:104A6C001B681A46BB681B789B001A44B7F88A303F
:104A7C0043F07F4343F47F0343F4404343F080030C
:104A8C009BB21380BB6893F82430012B40F0AE82AC
:104A9C00BB685A69B7F886301A44BB685A61BB6860
:104AAC00DA69B7F886301A44BB68DA61BB681A6AEF
:104ABC00BB681B699A420BD3BB681B69C7F88C3067
:104ACC00BB681A6AD7F88C30D21ABB681A6217E026
:104ADC00BB681B6A002B08D1B7F88630C7F88C303E
:104AEC00BB68002283F824200AE0BB68002283F80C
:104AFC002420BB681B6AC7F88C30BB6800221A6282
:104B0C00BB685B78002B65D1FB681B68FB63FB689B
:104B1C001B68B3F850309BB21A46FB6B1344FB6313
:104B2C00BB681B781A01FB6B134403F20443BB6391
:104B3C00BB6B1B889BB2C3F309039AB2BB6B1A8085
:104B4C00D7F88C303E2B1DD9D7F88C305B09BB6461
:104B5C00D7F88C3003F01F03002B02D1BB6C013B48
:104B6C00BB64BB6B1B889AB2BB6C9BB29B029BB2A7
:104B7C0013439BB26FEA43436FEA53439AB2BB6B46
:104B8C001A8044E0D7F88C30002B0AD1BB6B1B8801
:104B9C009BB26FEA43436FEA53439AB2BB6B1A80E2
:104BAC0035E0D7F88C305B08BB64D7F88C3003F059
:104BBC000103002B02D0BB6C0133BB64BB6B1B88A5
:104BCC009AB2BB6C9BB29B029BB213439AB2BB6B67
:104BDC001A801CE0BB685B78012B18D1FB681B6842
:104BEC007B64FB681B68B3F850309BB21A467B6C35
:104BFC0013447B64BB681B781A017B6C134403F26F
:104C0C0004433B64D7F88C309AB23B6C1A80FB6837
:104C1C001868BB685969BB681A89D7F88C309BB285
:104C2C0004F0C5F9E2E1FB681B68B3F850309BB2A5
:104C3C001A46BB681B78DB00134406335B00FA682A
:104C4C001268134403F580631B88C3F30903A7F8A8
:104C5C008630BB689A69B7F886309A4207D3BB682E
:104C6C009A69B7F88630D21ABB689A6102E0BB68C1
:104C7C0000229A61BB689B69002B40F0C080BB6826
:104C8C005B78002B26D1FB681B68FB67FB681B68F5
:104C9C00B3F850309BB21A46FB6F1344FB67BB68EA
:104CAC001B781A01FB6F134403F20443BB67BB6F01
:104CBC001B889BB2C3F309039AB2BB6F1A80BB6FFC
:104CCC001B889BB26FEA43436FEA53439AB2BB6FA4
:104CDC001A801AE0BB685B78012B16D1FB681B6845
:104CEC007B66FB681B68B3F850309BB21A467B6E30
:104CFC0013447B66BB681B781A017B6E134403F26A
:104D0C0004433B663B6E00221A80FB681B687B6782
:104D1C00BB685B78002B2BD1FB681B68FB66FB68C0
:104D2C001B68B3F850309BB21A46FB6E1344FB66FB
:104D3C00BB681B781A01FB6E134403F20C43C7F8D3
:104D4C008030D7F880301B889BB2C3F309039AB22A
:104D5C00D7F880301A80D7F880301B889BB26FEA66
:104D6C0043436FEA53439AB2D7F880301A8017E066
:104D7C00BB685B78012B13D1FB681B68B3F8503010
:104D8C009BB21A467B6F13447B67BB681B781A0176
:104D9C007B6F134403F20C433B673B6F00221A807A
:104DAC00BB681B781946F86805F051FFFB8803F4C3
:104DBC008043002B40F01A81FB681B681A46BB68C5
:104DCC001B789B0013441B889BB223F4E04323F015
:104DDC007003A7F88830FB681B681A46BB681B7801
:104DEC009B001A44B7F8883043F07F4343F47F03A9
:104DFC0043F4404343F080039BB21380F6E0FB88FE
:104E0C0003F48043002B21D1FB681B681A46BB6856
:104E1C001B789B0013441B889BB223F4E04323F0C4
:104E2C007003A7F84E30FB681B681A46BB681B78EA
:104E3C009B001A44B7F84E3043F07F4343F47F0392
:104E4C0043F4404343F080039BB21380BB6893F858
:104E5C002430012B40F0CA80BB685A69B7F8863001
:104E6C001A44BB685A61BB68DA69B7F886301A44D1
:104E7C00BB68DA61BB681A6ABB681B699A420BD3C0
:104E8C00BB681B69C7F88C30BB681A6AD7F88C30C2
:104E9C00D21ABB681A6217E0BB681B6A002B08D1D8
:104EAC00B7F88630C7F88C30BB68002283F8242012
:104EBC000AE0BB681B6AC7F88C30BB6800221A6218
:104ECC00BB68002283F82420FB681B687B65BB68E9
:104EDC005B78002B65D1FB681B68FB65FB681B6866
:104EEC00B3F850309BB21A46FB6D1344FB65BB689C
:104EFC001B781A01FB6D134403F20C43BB65BB6DAD
:104F0C001B889BB2C3F309039AB2BB6D1A80D7F806
:104F1C008C303E2B1DD9D7F88C305B09BB66D7F88B
:104F2C008C3003F01F03002B02D1BB6E013BBB6620
:104F3C00BB6D1B889AB2BB6E9BB29B029BB2134398
:104F4C009BB26FEA43436FEA53439AB2BB6D1A802C
:104F5C0041E0D7F88C30002B0AD1BB6D1B889BB27B
:104F6C006FEA43436FEA53439AB2BB6D1A8032E047
:104F7C00D7F88C305B08BB66D7F88C3003F0010394
:104F8C00002B02D0BB6E0133BB66BB6D1B889AB283
:104F9C00BB6E9BB29B029BB213439AB2BB6D1A8041
:104FAC0019E0BB685B78012B15D1FB681B68B3F863
:104FBC0050309BB21A467B6D13447B65BB681B78E3
:104FCC001A017B6D134403F20C433B65D7F88C300C
:104FDC009AB23B6D1A80FB681868BB685969BB684C
:104FEC005A89D7F88C309BB203F0E1FFFB681B6841
:104FFC001A46BB681B789B0013441B889BB223F496
:10500C00E04323F04003BB82BB8A83F01003BB82D6
:10501C00BB8A83F02003BB82FB681B681A46BB6803
:10502C001B789B001A44BB8A43F07F4343F47F03F5
:10503C0043F4004343F080039BB2138000231846D3
:10504C009037BD4680BD80B487B000AFF8607B6000
:10505C000B467B8113463B817B8903F080039BB21B
:10506C00002B0BD07B8903F0070213469B001344E3
:10507C00DB001033FA6813447B6109E07A8913462C
:10508C009B001344DB0003F5A873FA6813447B619F
:10509C003B89002B07D17B6900221A737B689AB27B
:1050AC007B69DA800BE07B6901221A737B689AB208
:1050BC007B691A817B681B0C9AB27B695A8100232D
:1050CC0018461C37BD4680BC7047000080B586B0C2
:1050DC0000AF78607B68002B01D1012372E27B6802
:1050EC001B6803F00103002B00F08780924B5B6878
:1050FC0003F00C03042B0CD08F4B5B6803F00C03F8
:10510C00082B12D18C4B5B6803F48033B3F5803FD2
:10511C000BD1894B1B6803F40033002B6CD07B68DC
:10512C005B68002B68D101234CE27B685B68B3F5AC
:10513C00803F06D1804B1B687F4A43F48033136059
:10514C002EE07B685B68002B0CD17B4B1B687A4A8A
:10515C0023F480331360784B1B68774A23F4802345
:10516C0013601DE07B685B68B3F5A02F0CD1724B0C
:10517C001B68714A43F4802313606F4B1B686E4AA3
:10518C0043F4803313600BE06B4B1B686A4A23F4C7
:10519C0080331360684B1B68674A23F480231360C9
:1051AC007B685B68002B13D0FCF7AEFB386108E022
:1051BC00FCF7AAFB02463B69D31A642B01D90323E3
:1051CC0000E25D4B1B6803F40033002BF0D014E0BD
:1051DC00FCF79AFB386108E0FCF796FB02463B694A
:1051EC00D31A642B01D90323ECE1534B1B6803F452
:1051FC000033002BF0D100E000BF7B681B6803F08C
:10520C000203002B63D04C4B5B6803F00C03002BA8
:10521C000BD0494B5B6803F00C03082B1CD1464B9D
:10522C005B6803F48033002B16D1434B1B6803F0EF
:10523C000203002B05D07B681B69012B01D00123D5
:10524C00C0E13D4B1B6823F0F8027B685B69DB0017
:10525C00394913430B603AE07B681B69002B20D063
:10526C00364B01221A60FCF74FFB386108E0FCF763
:10527C004BFB02463B69D31A022B01D90323A1E154
:10528C002D4B1B6803F00203002BF0D02A4B1B683C
:10529C0023F0F8027B685B69DB00274913430B6042
:1052AC0015E0264B00221A60FCF72EFB386108E053
:1052BC00FCF72AFB02463B69D31A022B01D90323C4
:1052CC0080E11D4B1B6803F00203002BF0D17B68BF
:1052DC001B6803F00803002B3AD07B689B69002BFA
:1052EC0019D0174B01221A60FCF70EFB386108E04D
:1052FC00FCF70AFB02463B69D31A022B01D90323A4
:10530C0060E10D4B5B6A03F00203002BF0D001202F
:10531C0000F0D0FA1CE00A4B00221A60FCF7F4FAF9
:10532C0038610FE0FCF7F0FA02463B69D31A022B06
:10533C0008D9032346E100BF00100240000042429E
:10534C0080044242924B5B6A03F00203002BE9D1CA
:10535C007B681B6803F00403002B00F0A68000237D
:10536C00FB758B4BDB6903F08053002B0DD1884B05
:10537C00DB69874A43F08053D361854BDB6903F0CB
:10538C008053BB60BB680123FB75824B1B6803F425
:10539C008073002B18D17F4B1B687E4A43F48073BB
:1053AC001360FCF7B1FA386108E0FCF7ADFA02467D
:1053BC003B69D31A642B01D9032303E1754B1B689A
:1053CC0003F48073002BF0D07B68DB68012B06D1D3
:1053DC006F4B1B6A6E4A43F0010313622DE07B682E
:1053EC00DB68002B0CD16A4B1B6A694A23F0010362
:1053FC001362674B1B6A664A23F0040313621CE0BA
:10540C007B68DB68052B0CD1614B1B6A604A43F04F
:10541C00040313625E4B1B6A5D4A43F00103136283
:10542C000BE05B4B1B6A5A4A23F001031362584B87
:10543C001B6A574A23F0040313627B68DB68002B5A
:10544C0015D0FCF761FA38610AE0FCF75DFA024608
:10545C003B69D31A41F28832934201D90323B1E05C
:10546C004B4B1B6A03F00203002BEED014E0FCF74D
:10547C004BFA38610AE0FCF747FA02463B69D31A4B
:10548C0041F28832934201D903239BE0404B1B6AC3
:10549C0003F00203002BEED1FB7D012B05D13C4B1D
:1054AC00DB693B4A23F08053D3617B68DB69002BBB
:1054BC0000F08780364B5B6803F00C03082B61D03F
:1054CC007B68DB69022B46D1334B00221A60FCF758
:1054DC001BFA386108E0FCF717FA02463B69D31A4D
:1054EC00022B01D903236DE0294B1B6803F00073D9
:1054FC00002BF0D17B681B6AB3F5803F08D1244B9D
:10550C005B6823F400327B689B68214913434B6032
:10551C001F4B5B6823F474127B68196A7B685B6AA7
:10552C000B431B4913434B601B4B01221A60FCF7C6
:10553C00EBF9386108E0FCF7E7F902463B69D31A4E
:10554C00022B01D903233DE0114B1B6803F00073C0
:10555C00002BF0D035E0104B00221A60FCF7D4F988
:10556C00386108E0FCF7D0F902463B69D31A022BEC
:10557C0001D9032326E0064B1B6803F00073002BB4
:10558C00F0D11EE07B68DB69012B07D1012319E008
:10559C000010024000700040600042420B4B5B6800
:1055AC00FB60FB6803F480327B681B6A9A4206D16D
:1055BC00FB6803F470127B685B6A9A4201D001238A
:1055CC0000E0002318461837BD4680BD001002408D
:1055DC0080B584B000AF786039607B68002B01D156
:1055EC000123D0E06A4B1B6803F007033A689A4228
:1055FC0010D9674B1B6823F0070265493B681343BE
:10560C000B60634B1B6803F007033A689A4201D0A6
:10561C000123B8E07B681B6803F00203002B20D049
:10562C007B681B6803F00403002B05D0594B5B68A7
:10563C00584A43F4E06353607B681B6803F008032B
:10564C00002B05D0534B5B68524A43F460535360B4
:10565C00504B5B6823F0F0027B689B684D49134309
:10566C004B607B681B6803F00103002B40D07B6808
:10567C005B68012B07D1474B1B6803F40033002BED
:10568C0015D101237FE07B685B68022B07D1414B6E
:10569C001B6803F00073002B09D1012373E03D4B11
:1056AC001B6803F00203002B01D101236BE0394B83
:1056BC005B6823F003027B685B68364913434B60DD
:1056CC00FCF722F9F8600AE0FCF71EF90246FB68C9
:1056DC00D31A41F28832934201D9032353E02D4B64
:1056EC005B6803F00C027B685B689B009A42EBD111
:1056FC00274B1B6803F007033A689A4210D2244BDD
:10570C001B6823F0070222493B6813430B60204BB4
:10571C001B6803F007033A689A4201D0012332E078
:10572C007B681B6803F00403002B08D0194B5B68E3
:10573C0023F4E0627B68DB68164913434B607B689B
:10574C001B6803F00803002B09D0124B5B6823F491
:10575C0060527B681B69DB000E4913434B6000F001
:10576C0021F802460B4B5B681B0903F00F030A4937
:10577C00CB5C22FA03F3094A1360094B1B681846E9
:10578C00FCF780F8002318461037BD4680BD00BFDB
:10579C000020024000100240DCBD00080400002084
:1057AC000800002080B487B000AF0023FB6000230A
:1057BC00BB6000237B6100237B6000233B611E4B9D
:1057CC005B68FB60FB6803F00C03042B02D0082B16
:1057DC0003D027E0194B3B6127E0FB689B0C03F0DF
:1057EC000F03174AD35C7B60FB6803F48033002BF8
:1057FC0010D0114B5B685B0C03F00103114AD35CB6
:10580C00BB607B680D4A03FB02F2BB68B2FBF3F38F
:10581C007B6104E07B680C4A02FB03F37B617B69D0
:10582C003B6102E0094B3B6100BF3B6918461C37EA
:10583C00BD4680BC704700BF001002400024F4003D
:10584C00F4BD000804BE000800093D0000127A00F7
:10585C0080B400AF024B1B681846BD4680BC704735
:10586C000400002080B500AFFFF7F2FF0246054BA5
:10587C005B681B0A03F007030349CB5C22FA03F3B2
:10588C00184680BD00100240ECBD000880B500AF8A
:10589C00FFF7DEFF0246054B5B68DB0A03F00703EC
:1058AC000349CB5C22FA03F3184680BD001002407A
:1058BC00ECBD000880B485B000AF78600A4B1B6863
:1058CC000A4AA2FB03235B0A7A6802FB03F3FB6020
:1058DC0000BFFB685A1EFA60002BF9D100BF00BF55
:1058EC001437BD4680BC704704000020D34D6210B5
:1058FC0080B586B000AF786000233B610023FB606D
:10590C007B681B6803F00103002B7DD00023FB7523
:10591C004F4BDB6903F08053002B0DD14C4BDB69F3
:10592C004B4A43F08053D361494BDB6903F08053FE
:10593C00BB60BB680123FB75464B1B6803F480738B
:10594C00002B18D1434B1B68424A43F480731360FD
:10595C00FBF7DAFF386108E0FBF7D6FF02463B693C
:10596C00D31A642B01D903236DE03A4B1B6803F463
:10597C008073002BF0D0364B1B6A03F44073FB6032
:10598C00FB68002B2ED07B685B6803F44073FA68CD
:10599C009A4227D02E4B1B6A23F44073FB602E4B8C
:1059AC0001221A602C4B00221A60294AFB681362F0
:1059BC00FB6803F00103002B14D0FBF7A5FF386143
:1059CC000AE0FBF7A1FF02463B69D31A41F2883289
:1059DC00934201D9032336E01D4B1B6A03F00203EB
:1059EC00002BEED01A4B1B6A23F440727B685B6869
:1059FC00174913430B62FB7D012B05D1144BDB695B
:105A0C00134A23F08053D3617B681B6803F00203B5
:105A1C00002B08D00E4B5B6823F440427B689B68DC
:105A2C000B4913434B607B681B6803F01003002B7E
:105A3C0008D0074B5B6823F480027B68DB68044961
:105A4C0013434B60002318461837BD4680BD00BF7A
:105A5C0000100240007000404004424280B588B003
:105A6C0000AF786000237B610023FB6100233B6166
:105A7C000023FB600023BB617B68102B0AD07B6882
:105A8C00102B00F289807B68012B45D07B68022BA0
:105A9C0074D081E0454B5B68FB60444B1B6803F0A2
:105AAC008073002B7AD0FB689B0C03F00F03404AE9
:105ABC00D35C3B61FB6803F48033002B15D03B4B6C
:105ACC005B685B0C03F001033A4AD35C7B61FB68B7
